{
  "address": "0xdDA9FA3a3368b092acfd9e243a9e68c27b9396Ce",
  "abi": [
    {
      "inputs": [],
      "stateMutability": "nonpayable",
      "type": "constructor"
    },
    {
      "anonymous": false,
      "inputs": [
        {
          "indexed": true,
          "internalType": "address",
          "name": "studentAddress",
          "type": "address"
        },
        {
          "indexed": true,
          "internalType": "uint256",
          "name": "eventId",
          "type": "uint256"
        },
        {
          "indexed": false,
          "internalType": "bytes32",
          "name": "attestation",
          "type": "bytes32"
        }
      ],
      "name": "AttestationAdded",
      "type": "event"
    },
    {
      "anonymous": false,
      "inputs": [
        {
          "indexed": true,
          "internalType": "uint256",
          "name": "eventId",
          "type": "uint256"
        },
        {
          "indexed": false,
          "internalType": "string",
          "name": "eventName",
          "type": "string"
        },
        {
          "indexed": true,
          "internalType": "address",
          "name": "mentorAddress",
          "type": "address"
        },
        {
          "indexed": false,
          "internalType": "uint256",
          "name": "closingTimestamp",
          "type": "uint256"
        }
      ],
      "name": "EventCreated",
      "type": "event"
    },
    {
      "anonymous": false,
      "inputs": [
        {
          "indexed": true,
          "internalType": "address",
          "name": "mentorAddress",
          "type": "address"
        }
      ],
      "name": "MentorAdded",
      "type": "event"
    },
    {
      "anonymous": false,
      "inputs": [
        {
          "indexed": true,
          "internalType": "address",
          "name": "mentorAddress",
          "type": "address"
        }
      ],
      "name": "MentorRemoved",
      "type": "event"
    },
    {
      "anonymous": false,
      "inputs": [
        {
          "indexed": true,
          "internalType": "uint256",
          "name": "eventId",
          "type": "uint256"
        },
        {
          "indexed": false,
          "internalType": "bool",
          "name": "status",
          "type": "bool"
        }
      ],
      "name": "OverrideEventFlagToggled",
      "type": "event"
    },
    {
      "inputs": [
        {
          "internalType": "bytes32",
          "name": "_attestation",
          "type": "bytes32"
        },
        {
          "internalType": "address",
          "name": "_studentAddress",
          "type": "address"
        },
        {
          "internalType": "uint256",
          "name": "_eventId",
          "type": "uint256"
        }
      ],
      "name": "addAttestation",
      "outputs": [],
      "stateMutability": "nonpayable",
      "type": "function"
    },
    {
      "inputs": [
        {
          "internalType": "address[]",
          "name": "_newMentors",
          "type": "address[]"
        }
      ],
      "name": "addMentors",
      "outputs": [],
      "stateMutability": "nonpayable",
      "type": "function"
    },
    {
      "inputs": [
        {
          "internalType": "address",
          "name": "",
          "type": "address"
        }
      ],
      "name": "attestationProfile",
      "outputs": [
        {
          "internalType": "uint256",
          "name": "studentLevel",
          "type": "uint256"
        }
      ],
      "stateMutability": "view",
      "type": "function"
    },
    {
      "inputs": [
        {
          "internalType": "uint256",
          "name": "_closingTimestamp",
          "type": "uint256"
        },
        {
          "internalType": "uint256",
          "name": "_level",
          "type": "uint256"
        },
        {
          "internalType": "uint8",
          "name": "_type",
          "type": "uint8"
        },
        {
          "internalType": "string",
          "name": "_eventName",
          "type": "string"
        },
        {
          "internalType": "string",
          "name": "_eventDescription",
          "type": "string"
        },
        {
          "internalType": "string",
          "name": "_mentorName",
          "type": "string"
        },
        {
          "internalType": "string",
          "name": "_badgeUri",
          "type": "string"
        },
        {
          "internalType": "bytes32",
          "name": "_schemaUID",
          "type": "bytes32"
        }
      ],
      "name": "createEvent",
      "outputs": [],
      "stateMutability": "nonpayable",
      "type": "function"
    },
    {
      "inputs": [],
      "name": "eventIdCounter",
      "outputs": [
        {
          "internalType": "uint256",
          "name": "",
          "type": "uint256"
        }
      ],
      "stateMutability": "view",
      "type": "function"
    },
    {
      "inputs": [
        {
          "internalType": "uint256",
          "name": "",
          "type": "uint256"
        }
      ],
      "name": "events",
      "outputs": [
        {
          "internalType": "uint8",
          "name": "typeOf",
          "type": "uint8"
        },
        {
          "internalType": "uint256",
          "name": "eventId",
          "type": "uint256"
        },
        {
          "internalType": "uint256",
          "name": "level",
          "type": "uint256"
        },
        {
          "internalType": "uint256",
          "name": "closingTimestamp",
          "type": "uint256"
        },
        {
          "internalType": "uint256",
          "name": "attendeeCount",
          "type": "uint256"
        },
        {
          "internalType": "string",
          "name": "eventName",
          "type": "string"
        },
        {
          "internalType": "string",
          "name": "eventDescription",
          "type": "string"
        },
        {
          "internalType": "string",
          "name": "mentorName",
          "type": "string"
        },
        {
          "internalType": "string",
          "name": "badgeUri",
          "type": "string"
        },
        {
          "internalType": "address",
          "name": "mentorAddress",
          "type": "address"
        },
        {
          "internalType": "bool",
          "name": "isActive",
          "type": "bool"
        },
        {
          "internalType": "bool",
          "name": "overrideClosingTimestamp",
          "type": "bool"
        },
        {
          "internalType": "bytes32",
          "name": "schemaUID",
          "type": "bytes32"
        }
      ],
      "stateMutability": "view",
      "type": "function"
    },
    {
      "inputs": [],
      "name": "getAllEvents",
      "outputs": [
        {
          "components": [
            {
              "internalType": "uint8",
              "name": "typeOf",
              "type": "uint8"
            },
            {
              "internalType": "uint256",
              "name": "eventId",
              "type": "uint256"
            },
            {
              "internalType": "uint256",
              "name": "level",
              "type": "uint256"
            },
            {
              "internalType": "uint256",
              "name": "closingTimestamp",
              "type": "uint256"
            },
            {
              "internalType": "uint256",
              "name": "attendeeCount",
              "type": "uint256"
            },
            {
              "internalType": "string",
              "name": "eventName",
              "type": "string"
            },
            {
              "internalType": "string",
              "name": "eventDescription",
              "type": "string"
            },
            {
              "internalType": "string",
              "name": "mentorName",
              "type": "string"
            },
            {
              "internalType": "string",
              "name": "badgeUri",
              "type": "string"
            },
            {
              "internalType": "address",
              "name": "mentorAddress",
              "type": "address"
            },
            {
              "internalType": "address[]",
              "name": "attendees",
              "type": "address[]"
            },
            {
              "internalType": "bool",
              "name": "isActive",
              "type": "bool"
            },
            {
              "internalType": "bool",
              "name": "overrideClosingTimestamp",
              "type": "bool"
            },
            {
              "internalType": "bytes32",
              "name": "schemaUID",
              "type": "bytes32"
            }
          ],
          "internalType": "struct Structs.Event[]",
          "name": "",
          "type": "tuple[]"
        }
      ],
      "stateMutability": "view",
      "type": "function"
    },
    {
      "inputs": [
        {
          "internalType": "address",
          "name": "_studentAddress",
          "type": "address"
        }
      ],
      "name": "getAllStudentEventsWithAttestations",
      "outputs": [
        {
          "components": [
            {
              "internalType": "bytes32",
              "name": "attestation",
              "type": "bytes32"
            },
            {
              "internalType": "uint256",
              "name": "eventId",
              "type": "uint256"
            },
            {
              "internalType": "uint256",
              "name": "level",
              "type": "uint256"
            },
            {
              "internalType": "string",
              "name": "eventName",
              "type": "string"
            },
            {
              "internalType": "string",
              "name": "eventDescription",
              "type": "string"
            },
            {
              "internalType": "string",
              "name": "mentorName",
              "type": "string"
            },
            {
              "internalType": "address",
              "name": "mentorAddress",
              "type": "address"
            }
          ],
          "internalType": "struct Structs.metaEvent[]",
          "name": "",
          "type": "tuple[]"
        }
      ],
      "stateMutability": "view",
      "type": "function"
    },
    {
      "inputs": [
        {
          "internalType": "uint256",
          "name": "_eventId",
          "type": "uint256"
        },
        {
          "internalType": "uint256",
          "name": "_level",
          "type": "uint256"
        },
        {
          "internalType": "bytes32",
          "name": "_msgHash",
          "type": "bytes32"
        },
        {
          "internalType": "bytes",
          "name": "_signature",
          "type": "bytes"
        }
      ],
      "name": "getAttested",
      "outputs": [
        {
          "internalType": "bool",
          "name": "",
          "type": "bool"
        }
      ],
      "stateMutability": "nonpayable",
      "type": "function"
    },
    {
      "inputs": [
        {
          "internalType": "bytes32",
          "name": "_messageHash",
          "type": "bytes32"
        }
      ],
      "name": "getEthSignedMessageHash",
      "outputs": [
        {
          "internalType": "bytes32",
          "name": "",
          "type": "bytes32"
        }
      ],
      "stateMutability": "pure",
      "type": "function"
    },
    {
      "inputs": [
        {
          "internalType": "address",
          "name": "_studentAddress",
          "type": "address"
        }
      ],
      "name": "getEventsCompleted",
      "outputs": [
        {
          "internalType": "uint256",
          "name": "_studentLevel",
          "type": "uint256"
        },
        {
          "internalType": "uint256[]",
          "name": "",
          "type": "uint256[]"
        },
        {
          "internalType": "bytes32[]",
          "name": "",
          "type": "bytes32[]"
        }
      ],
      "stateMutability": "view",
      "type": "function"
    },
    {
      "inputs": [
        {
          "internalType": "bytes32",
          "name": "_messageHash",
          "type": "bytes32"
        },
        {
          "internalType": "bytes",
          "name": "_signature",
          "type": "bytes"
        }
      ],
      "name": "isVerified",
      "outputs": [
        {
          "internalType": "bool",
          "name": "",
          "type": "bool"
        }
      ],
      "stateMutability": "view",
      "type": "function"
    },
    {
      "inputs": [
        {
          "internalType": "bytes32",
          "name": "_ethSignedMessageHash",
          "type": "bytes32"
        },
        {
          "internalType": "bytes",
          "name": "_signature",
          "type": "bytes"
        }
      ],
      "name": "recoverSigner",
      "outputs": [
        {
          "internalType": "address",
          "name": "",
          "type": "address"
        }
      ],
      "stateMutability": "pure",
      "type": "function"
    },
    {
      "inputs": [
        {
          "internalType": "address[]",
          "name": "_mentors",
          "type": "address[]"
        }
      ],
      "name": "removeMentors",
      "outputs": [],
      "stateMutability": "nonpayable",
      "type": "function"
    },
    {
      "inputs": [
        {
          "internalType": "bytes",
          "name": "sig",
          "type": "bytes"
        }
      ],
      "name": "splitSignature",
      "outputs": [
        {
          "internalType": "uint8",
          "name": "",
          "type": "uint8"
        },
        {
          "internalType": "bytes32",
          "name": "",
          "type": "bytes32"
        },
        {
          "internalType": "bytes32",
          "name": "",
          "type": "bytes32"
        }
      ],
      "stateMutability": "pure",
      "type": "function"
    },
    {
      "inputs": [
        {
          "internalType": "address",
          "name": "",
          "type": "address"
        },
        {
          "internalType": "uint256",
          "name": "",
          "type": "uint256"
        }
      ],
      "name": "studentEventMap",
      "outputs": [
        {
          "internalType": "bytes32",
          "name": "attestation",
          "type": "bytes32"
        },
        {
          "internalType": "uint256",
          "name": "eventId",
          "type": "uint256"
        },
        {
          "internalType": "uint256",
          "name": "level",
          "type": "uint256"
        },
        {
          "internalType": "string",
          "name": "eventName",
          "type": "string"
        },
        {
          "internalType": "string",
          "name": "eventDescription",
          "type": "string"
        },
        {
          "internalType": "string",
          "name": "mentorName",
          "type": "string"
        },
        {
          "internalType": "address",
          "name": "mentorAddress",
          "type": "address"
        }
      ],
      "stateMutability": "view",
      "type": "function"
    },
    {
      "inputs": [
        {
          "internalType": "uint256",
          "name": "_eventId",
          "type": "uint256"
        },
        {
          "internalType": "bool",
          "name": "_res",
          "type": "bool"
        }
      ],
      "name": "toggleOverrideEventFlag",
      "outputs": [],
      "stateMutability": "nonpayable",
      "type": "function"
    }
  ],
  "transactionHash": "0x75fecc04edcc62741aef3a0b6ef34833315367f3e0cb6c1bd2be1aba5569c4a8",
  "args": [],
  "numDeployments": 10,
  "solcInputHash": "c6efdecd7a97a8b8ada5910e08f65bf7",
  "bytecode": "0x6080604052600160055534801561001557600080fd5b50600080546001600160a01b03191633179055612710806100376000396000f3fe608060405234801561001057600080fd5b506004361061010b5760003560e01c8063a264efce116100a2578063e01a0ebe11610071578063e01a0ebe1461029e578063e7ce9ba3146102a7578063ed0568af146102ba578063fa540801146102da578063fed6bf28146102ed57600080fd5b8063a264efce14610231578063a7bb580314610244578063c27a500d14610276578063c3816c131461028b57600080fd5b80636dff9131116100de5780636dff9131146101935780637fcacc0e146101c157806391ea6364146101e457806397aba7f91461020657600080fd5b8063030666c51461011057806306648651146101255780630b791430146101385780635c78442c1461016d575b600080fd5b61012361011e366004611c15565b610300565b005b610123610133366004611d07565b610563565b61014b610146366004611d3c565b6106a2565b6040516101649d9c9b9a99989796959493929190611d9b565b60405180910390f35b61018061017b366004611e4c565b61093e565b6040516101649796959493929190611e76565b6101b36101a1366004611ede565b60016020526000908152604090205481565b604051908152602001610164565b6101d46101cf366004611f00565b610b24565b6040519015158152602001610164565b6101f76101f2366004611ede565b610bab565b60405161016493929190611f47565b610219610214366004611f00565b610c81565b6040516001600160a01b039091168152602001610164565b61012361023f366004611fcd565b610d00565b610257610252366004612002565b610dae565b6040805160ff9094168452602084019290925290820152606001610164565b61027e610e20565b6040516101649190612083565b6101d46102993660046121df565b61128a565b6101b360055481565b6101236102b5366004612239565b61151f565b6102cd6102c8366004611ede565b611684565b60405161016491906122e6565b6101b36102e8366004611d3c565b6119e5565b6101236102fb366004612239565b611a38565b3360008181526004602052604090205460ff168061032b57506000546001600160a01b038281169116145b6103505760405162461bcd60e51b8152600401610347906123ae565b60405180910390fd5b4289116103b05760405162461bcd60e51b815260206004820152602860248201527f436c6f73696e672074696d657374616d702063616e6e6f7420626520696e20746044820152673432903830b9ba1760c11b6064820152608401610347565b600580546000908152600360208190526040808320805460ff191660ff8d1617905583548084528184206001818101929092556002018d9055845484528184209092018d9055835483528083206004019190915582548252902001610415878261247e565b506005546000908152600360205260409020600601610434868261247e565b506005546000908152600360205260409020600701610453858261247e565b506005546000908152600360205260409020600801610472848261247e565b506005805460009081526003602090815260408083206009018054336001600160a01b0319918216811790925585548552828520600a018054600181810183559187529486209094018054909116909117905583548352808320600b908101805460ff191690931790925583548352808320909101805461ff0019169055825482528120600c018490558154919061050983612554565b9091555050600554339061051f9060019061256d565b7fad389ee79ceb9d0e3a1739d75d42c8727ca5946b701beaa8ef2801b04d7d7a57888c604051610550929190612580565b60405180910390a3505050505050505050565b6000546001600160a01b0316331461057a57600080fd5b6001600160a01b0382166000908152600260209081526040808320848452909152902054156105bb5760405162461bcd60e51b8152600401610347906125a2565b60008181526003602090815260408220600a8101805460018101825590845291832090910180546001600160a01b0319166001600160a01b03861617905582825260040180549161060b83612554565b90915550506001600160a01b038216600081815260016020818152604080842080840180548086018255908652838620018790556002908101805494850181558552828520909301889055848452918152818320858452815291819020869055518581528392917ffd78fe1c1010dd57ea4476d0eb6d5bd32e62d719166bf0974f538b76dbf9fdb2910160405180910390a3505050565b600360208190526000918252604090912080546001820154600283015493830154600484015460058501805460ff9095169693959394929391926106e5906123fc565b80601f0160208091040260200160405190810160405280929190818152602001828054610711906123fc565b801561075e5780601f106107335761010080835404028352916020019161075e565b820191906000526020600020905b81548152906001019060200180831161074157829003601f168201915b505050505090806006018054610773906123fc565b80601f016020809104026020016040519081016040528092919081815260200182805461079f906123fc565b80156107ec5780601f106107c1576101008083540402835291602001916107ec565b820191906000526020600020905b8154815290600101906020018083116107cf57829003601f168201915b505050505090806007018054610801906123fc565b80601f016020809104026020016040519081016040528092919081815260200182805461082d906123fc565b801561087a5780601f1061084f5761010080835404028352916020019161087a565b820191906000526020600020905b81548152906001019060200180831161085d57829003601f168201915b50505050509080600801805461088f906123fc565b80601f01602080910402602001604051908101604052809291908181526020018280546108bb906123fc565b80156109085780601f106108dd57610100808354040283529160200191610908565b820191906000526020600020905b8154815290600101906020018083116108eb57829003601f168201915b5050506009840154600b850154600c9095015493946001600160a01b039091169360ff808316945061010090920490911691508d565b6002602081815260009384526040808520909152918352912080546001820154928201546003830180549294939192610976906123fc565b80601f01602080910402602001604051908101604052809291908181526020018280546109a2906123fc565b80156109ef5780601f106109c4576101008083540402835291602001916109ef565b820191906000526020600020905b8154815290600101906020018083116109d257829003601f168201915b505050505090806004018054610a04906123fc565b80601f0160208091040260200160405190810160405280929190818152602001828054610a30906123fc565b8015610a7d5780601f10610a5257610100808354040283529160200191610a7d565b820191906000526020600020905b815481529060010190602001808311610a6057829003601f168201915b505050505090806005018054610a92906123fc565b80601f0160208091040260200160405190810160405280929190818152602001828054610abe906123fc565b8015610b0b5780601f10610ae057610100808354040283529160200191610b0b565b820191906000526020600020905b815481529060010190602001808311610aee57829003601f168201915b505050600690930154919250506001600160a01b031687565b600080610b30846119e5565b90506000610b3e8285610c81565b6000549091506001600160a01b03808316911614610b9e5760405162461bcd60e51b815260206004820152601a60248201527f556e617574686f72697a656420436f6e74726163742063616c6c0000000000006044820152606401610347565b6001925050505b92915050565b6001600160a01b03811660009081526001602081815260408084208054938101805483518186028101860190945280845260609586959094929360020192918491830182828015610c1b57602002820191906000526020600020905b815481526020019060010190808311610c07575b5050505050915080805480602002602001604051908101604052809291908181526020018280548015610c6d57602002820191906000526020600020905b815481526020019060010190808311610c59575b505050505090509250925092509193909250565b600080600080610c9085610dae565b6040805160008152602081018083528b905260ff8516918101919091526060810183905260808101829052929550909350915060019060a0016020604051602081039080840390855afa158015610ceb573d6000803e3d6000fd5b5050604051601f190151979650505050505050565b3360008181526004602052604090205460ff1680610d2b57506000546001600160a01b038281169116145b610d475760405162461bcd60e51b8152600401610347906123ae565b60008381526003602052604090819020600b0180548415156101000261ff00199091161790555183907f255b22f81f52ca696c92545ed4e776709442e0c2f0d5b053f1bb5e73729826a990610da190851515815260200190565b60405180910390a2505050565b60008060008351604114610e045760405162461bcd60e51b815260206004820152601860248201527f696e76616c6964207369676e6174757265206c656e67746800000000000000006044820152606401610347565b5050506020810151604082015160609092015160001a92909190565b606060006001600554610e33919061256d565b67ffffffffffffffff811115610e4b57610e4b611b5e565b604051908082528060200260200182016040528015610f0157816020015b610eee604051806101c00160405280600060ff168152602001600081526020016000815260200160008152602001600081526020016060815260200160608152602001606081526020016060815260200160006001600160a01b0316815260200160608152602001600015158152602001600015158152602001600080191681525090565b815260200190600190039081610e695790505b50905060015b6005548110156112845760008181526003602081815260409283902083516101c081018552815460ff1681526001820154928101929092526002810154938201939093529082015460608201526004820154608082015260058201805491929160a084019190610f76906123fc565b80601f0160208091040260200160405190810160405280929190818152602001828054610fa2906123fc565b8015610fef5780601f10610fc457610100808354040283529160200191610fef565b820191906000526020600020905b815481529060010190602001808311610fd257829003601f168201915b50505050508152602001600682018054611008906123fc565b80601f0160208091040260200160405190810160405280929190818152602001828054611034906123fc565b80156110815780601f1061105657610100808354040283529160200191611081565b820191906000526020600020905b81548152906001019060200180831161106457829003601f168201915b5050505050815260200160078201805461109a906123fc565b80601f01602080910402602001604051908101604052809291908181526020018280546110c6906123fc565b80156111135780601f106110e857610100808354040283529160200191611113565b820191906000526020600020905b8154815290600101906020018083116110f657829003601f168201915b5050505050815260200160088201805461112c906123fc565b80601f0160208091040260200160405190810160405280929190818152602001828054611158906123fc565b80156111a55780601f1061117a576101008083540402835291602001916111a5565b820191906000526020600020905b81548152906001019060200180831161118857829003601f168201915b505050918352505060098201546001600160a01b0316602080830191909152600a83018054604080518285028101850182528281529401939283018282801561121757602002820191906000526020600020905b81546001600160a01b031681526001909101906020018083116111f9575b5050509183525050600b82015460ff808216151560208401526101009091041615156040820152600c909101546060909101528261125660018461256d565b81518110611266576112666125e9565b6020026020010181905250808061127c90612554565b915050610f07565b50919050565b336000908152600260209081526040808320878452909152812054156112c25760405162461bcd60e51b8152600401610347906125a2565b6112cc8383610b24565b61130d5760405162461bcd60e51b8152602060048201526012602482015271496e76616c69642054786e20536f7572636560701b6044820152606401610347565b6000858152600360205260409020600b015460ff168061134457506000858152600360205260409020600b0154610100900460ff16155b6113905760405162461bcd60e51b815260206004820152601960248201527f4576656e74206973206e6f206c6f6e67657220616374697665000000000000006044820152606401610347565b600085815260036020819052604090912001544210806113c757506000858152600360205260409020600b0154610100900460ff16155b6114135760405162461bcd60e51b815260206004820152601f60248201527f4576656e74206973207061737420636c6f73696e672074696d657374616d70006044820152606401610347565b336000908152600160208181526040808420889055600282528084208985528083528185209384018a905560038084529190942093909152019061145a90600501826125ff565b506000858152600360209081526040808320338452600283528184208985529092529091206004019061149090600601826125ff565b50600085815260036020908152604080832033845260028352818420898552909252909120600501906114c690600701826125ff565b5050506000838152600360209081526040808320600901543384526002808452828520978552969092529091206006810180546001600160a01b0319166001600160a01b03909316929092179091559092015550600190565b6000546001600160a01b031633146115795760405162461bcd60e51b815260206004820181905260248201527f4f6e6c79206465706c6f7965722063616e2072656d6f7665206d656e746f72736044820152606401610347565b60005b8151811015611680576004600083838151811061159b5761159b6125e9565b6020908102919091018101516001600160a01b031682528101919091526040016000205460ff161561166e576000600460008484815181106115df576115df6125e9565b60200260200101516001600160a01b03166001600160a01b0316815260200190815260200160002060006101000a81548160ff021916908315150217905550818181518110611630576116306125e9565b60200260200101516001600160a01b03167f8a89d1bce5d2a5b9324b1e700a7bb2d8ed55b236f9ba2c17a6917a0597fc404160405160405180910390a25b8061167881612554565b91505061157c565b5050565b6001600160a01b0381166000908152600160208190526040822001546060919067ffffffffffffffff8111156116bc576116bc611b5e565b60405190808252806020026020018201604052801561173957816020015b6117266040518060e0016040528060008019168152602001600081526020016000815260200160608152602001606081526020016060815260200160006001600160a01b031681525090565b8152602001906001900390816116da5790505b50905060005b6001600160a01b038416600090815260016020819052604090912001548110156119de576001600160a01b038416600090815260026020908152604080832060019283905290832090910180549192918490811061179f5761179f6125e9565b906000526020600020015481526020019081526020016000206040518060e00160405290816000820154815260200160018201548152602001600282015481526020016003820180546117f1906123fc565b80601f016020809104026020016040519081016040528092919081815260200182805461181d906123fc565b801561186a5780601f1061183f5761010080835404028352916020019161186a565b820191906000526020600020905b81548152906001019060200180831161184d57829003601f168201915b50505050508152602001600482018054611883906123fc565b80601f01602080910402602001604051908101604052809291908181526020018280546118af906123fc565b80156118fc5780601f106118d1576101008083540402835291602001916118fc565b820191906000526020600020905b8154815290600101906020018083116118df57829003601f168201915b50505050508152602001600582018054611915906123fc565b80601f0160208091040260200160405190810160405280929190818152602001828054611941906123fc565b801561198e5780601f106119635761010080835404028352916020019161198e565b820191906000526020600020905b81548152906001019060200180831161197157829003601f168201915b5050509183525050600691909101546001600160a01b031660209091015282518390839081106119c0576119c06125e9565b602002602001018190525080806119d690612554565b91505061173f565b5092915050565b6040517f19457468657265756d205369676e6564204d6573736167653a0a3332000000006020820152603c8101829052600090605c01604051602081830303815290604052805190602001209050919050565b3360008181526004602052604090205460ff1680611a6357506000546001600160a01b038281169116145b611a7f5760405162461bcd60e51b8152600401610347906123ae565b60005b8251811015611b4357600160046000858481518110611aa357611aa36125e9565b60200260200101516001600160a01b03166001600160a01b0316815260200190815260200160002060006101000a81548160ff021916908315150217905550828181518110611af457611af46125e9565b60200260200101516001600160a01b03167f4df3f3208bfbe9457b85364190a65e66a3e7a7cded1cf16b59627bc99bad5db960405160405180910390a280611b3b81612554565b915050611a82565b505050565b803560ff81168114611b5957600080fd5b919050565b634e487b7160e01b600052604160045260246000fd5b604051601f8201601f1916810167ffffffffffffffff81118282101715611b9d57611b9d611b5e565b604052919050565b600082601f830112611bb657600080fd5b813567ffffffffffffffff811115611bd057611bd0611b5e565b611be3601f8201601f1916602001611b74565b818152846020838601011115611bf857600080fd5b816020850160208301376000918101602001919091529392505050565b600080600080600080600080610100898b031215611c3257600080fd5b8835975060208901359650611c4960408a01611b48565b9550606089013567ffffffffffffffff80821115611c6657600080fd5b611c728c838d01611ba5565b965060808b0135915080821115611c8857600080fd5b611c948c838d01611ba5565b955060a08b0135915080821115611caa57600080fd5b611cb68c838d01611ba5565b945060c08b0135915080821115611ccc57600080fd5b50611cd98b828c01611ba5565b92505060e089013590509295985092959890939650565b80356001600160a01b0381168114611b5957600080fd5b600080600060608486031215611d1c57600080fd5b83359250611d2c60208501611cf0565b9150604084013590509250925092565b600060208284031215611d4e57600080fd5b5035919050565b6000815180845260005b81811015611d7b57602081850181015186830182015201611d5f565b506000602082860101526020601f19601f83011685010191505092915050565b60ff8e1681528c60208201528b60408201528a60608201528960808201526101a060a08201526000611dd16101a083018b611d55565b82810360c0840152611de3818b611d55565b905082810360e0840152611df7818a611d55565b9050828103610100840152611e0c8189611d55565b915050611e256101208301876001600160a01b03169052565b931515610140820152911515610160830152610180909101529a9950505050505050505050565b60008060408385031215611e5f57600080fd5b611e6883611cf0565b946020939093013593505050565b87815286602082015285604082015260e060608201526000611e9b60e0830187611d55565b8281036080840152611ead8187611d55565b905082810360a0840152611ec18186611d55565b91505060018060a01b03831660c083015298975050505050505050565b600060208284031215611ef057600080fd5b611ef982611cf0565b9392505050565b60008060408385031215611f1357600080fd5b82359150602083013567ffffffffffffffff811115611f3157600080fd5b611f3d85828601611ba5565b9150509250929050565b6000606082018583526020606081850152818651808452608086019150828801935060005b81811015611f8857845183529383019391830191600101611f6c565b50508481036040860152855180825290820192508186019060005b81811015611fbf57825185529383019391830191600101611fa3565b509298975050505050505050565b60008060408385031215611fe057600080fd5b8235915060208301358015158114611ff757600080fd5b809150509250929050565b60006020828403121561201457600080fd5b813567ffffffffffffffff81111561202b57600080fd5b61203784828501611ba5565b949350505050565b600081518084526020808501945080840160005b838110156120785781516001600160a01b031687529582019590820190600101612053565b509495945050505050565b60006020808301818452808551808352604092508286019150828160051b87010184880160005b838110156121d157888303603f190185528151805160ff1684526101c081890151858a01528782015188860152606080830151908601526080808301519086015260a08083015181870183905261210383880182611d55565b9250505060c0808301518683038288015261211e8382611d55565b9250505060e080830151868303828801526121398382611d55565b9250505061010080830151868303828801526121558382611d55565b9250505061012080830151612174828801826001600160a01b03169052565b5050610140808301518683038288015261218e838261203f565b92505050610160808301516121a68288018215159052565b5050610180828101511515908601526101a091820151919094015293860193908601906001016120aa565b509098975050505050505050565b600080600080608085870312156121f557600080fd5b843593506020850135925060408501359150606085013567ffffffffffffffff81111561222157600080fd5b61222d87828801611ba5565b91505092959194509250565b6000602080838503121561224c57600080fd5b823567ffffffffffffffff8082111561226457600080fd5b818501915085601f83011261227857600080fd5b81358181111561228a5761228a611b5e565b8060051b915061229b848301611b74565b81815291830184019184810190888411156122b557600080fd5b938501935b838510156122da576122cb85611cf0565b825293850193908501906122ba565b98975050505050505050565b60006020808301818452808551808352604092508286019150828160051b87010184880160005b838110156121d157603f19898403018552815160e08151855288820151898601528782015188860152606080830151828288015261234d83880182611d55565b92505050608080830151868303828801526123688382611d55565b9250505060a080830151868303828801526123838382611d55565b60c0948501516001600160a01b0316979094019690965250509487019492509086019060010161230d565b6020808252602e908201527f4f6e6c792073656c6563746564206d656e746f7220616464726573736573206360408201526d30b71031b932b0ba329038bab4bd60911b606082015260800190565b600181811c9082168061241057607f821691505b60208210810361128457634e487b7160e01b600052602260045260246000fd5b601f821115611b4357600081815260208120601f850160051c810160208610156124575750805b601f850160051c820191505b8181101561247657828155600101612463565b505050505050565b815167ffffffffffffffff81111561249857612498611b5e565b6124ac816124a684546123fc565b84612430565b602080601f8311600181146124e157600084156124c95750858301515b600019600386901b1c1916600185901b178555612476565b600085815260208120601f198616915b82811015612510578886015182559484019460019091019084016124f1565b508582101561252e5787850151600019600388901b60f8161c191681555b5050505050600190811b01905550565b634e487b7160e01b600052601160045260246000fd5b6000600182016125665761256661253e565b5060010190565b81810381811115610ba557610ba561253e565b6040815260006125936040830185611d55565b90508260208301529392505050565b60208082526027908201527f53747564656e7420616c726561647920617474657374656420666f72207468696040820152661cc8195d995b9d60ca1b606082015260800190565b634e487b7160e01b600052603260045260246000fd5b81810361260a575050565b61261482546123fc565b67ffffffffffffffff81111561262c5761262c611b5e565b61263a816124a684546123fc565b6000601f82116001811461266e57600083156126565750848201545b600019600385901b1c1916600184901b1784556126d3565b600085815260209020601f19841690600086815260209020845b838110156126a85782860154825560019586019590910190602001612688565b50858310156126c65781850154600019600388901b60f8161c191681555b50505060018360011b0184555b505050505056fea26469706673582212203d782898b60b967d78e04b4abd7b7f05644ae0ce1e0211a4244db0bfd2a8e37964736f6c63430008140033",
  "devdoc": {
    "kind": "dev",
    "methods": {},
    "version": 1
  },
  "userdoc": {
    "kind": "user",
    "methods": {},
    "version": 1
  },
  "storageLayout": {
    "storage": [
      {
        "astId": 2521,
        "contract": "contracts/EASOnboarding.sol:EASOnboarding",
        "label": "deployer",
        "offset": 0,
        "slot": "0",
        "type": "t_address"
      },
      {
        "astId": 2526,
        "contract": "contracts/EASOnboarding.sol:EASOnboarding",
        "label": "attestationProfile",
        "offset": 0,
        "slot": "1",
        "type": "t_mapping(t_address,t_struct(AttestationProfile)2499_storage)"
      },
      {
        "astId": 2533,
        "contract": "contracts/EASOnboarding.sol:EASOnboarding",
        "label": "studentEventMap",
        "offset": 0,
        "slot": "2",
        "type": "t_mapping(t_address,t_mapping(t_uint256,t_struct(metaEvent)2514_storage))"
      },
      {
        "astId": 2538,
        "contract": "contracts/EASOnboarding.sol:EASOnboarding",
        "label": "events",
        "offset": 0,
        "slot": "3",
        "type": "t_mapping(t_uint256,t_struct(Event)2490_storage)"
      },
      {
        "astId": 2542,
        "contract": "contracts/EASOnboarding.sol:EASOnboarding",
        "label": "isMentor",
        "offset": 0,
        "slot": "4",
        "type": "t_mapping(t_address,t_bool)"
      },
      {
        "astId": 2545,
        "contract": "contracts/EASOnboarding.sol:EASOnboarding",
        "label": "eventIdCounter",
        "offset": 0,
        "slot": "5",
        "type": "t_uint256"
      }
    ],
    "types": {
      "t_address": {
        "encoding": "inplace",
        "label": "address",
        "numberOfBytes": "20"
      },
      "t_array(t_address)dyn_storage": {
        "base": "t_address",
        "encoding": "dynamic_array",
        "label": "address[]",
        "numberOfBytes": "32"
      },
      "t_array(t_bytes32)dyn_storage": {
        "base": "t_bytes32",
        "encoding": "dynamic_array",
        "label": "bytes32[]",
        "numberOfBytes": "32"
      },
      "t_array(t_uint256)dyn_storage": {
        "base": "t_uint256",
        "encoding": "dynamic_array",
        "label": "uint256[]",
        "numberOfBytes": "32"
      },
      "t_bool": {
        "encoding": "inplace",
        "label": "bool",
        "numberOfBytes": "1"
      },
      "t_bytes32": {
        "encoding": "inplace",
        "label": "bytes32",
        "numberOfBytes": "32"
      },
      "t_mapping(t_address,t_bool)": {
        "encoding": "mapping",
        "key": "t_address",
        "label": "mapping(address => bool)",
        "numberOfBytes": "32",
        "value": "t_bool"
      },
      "t_mapping(t_address,t_mapping(t_uint256,t_struct(metaEvent)2514_storage))": {
        "encoding": "mapping",
        "key": "t_address",
        "label": "mapping(address => mapping(uint256 => struct Structs.metaEvent))",
        "numberOfBytes": "32",
        "value": "t_mapping(t_uint256,t_struct(metaEvent)2514_storage)"
      },
      "t_mapping(t_address,t_struct(AttestationProfile)2499_storage)": {
        "encoding": "mapping",
        "key": "t_address",
        "label": "mapping(address => struct Structs.AttestationProfile)",
        "numberOfBytes": "32",
        "value": "t_struct(AttestationProfile)2499_storage"
      },
      "t_mapping(t_uint256,t_struct(Event)2490_storage)": {
        "encoding": "mapping",
        "key": "t_uint256",
        "label": "mapping(uint256 => struct Structs.Event)",
        "numberOfBytes": "32",
        "value": "t_struct(Event)2490_storage"
      },
      "t_mapping(t_uint256,t_struct(metaEvent)2514_storage)": {
        "encoding": "mapping",
        "key": "t_uint256",
        "label": "mapping(uint256 => struct Structs.metaEvent)",
        "numberOfBytes": "32",
        "value": "t_struct(metaEvent)2514_storage"
      },
      "t_string_storage": {
        "encoding": "bytes",
        "label": "string",
        "numberOfBytes": "32"
      },
      "t_struct(AttestationProfile)2499_storage": {
        "encoding": "inplace",
        "label": "struct Structs.AttestationProfile",
        "members": [
          {
            "astId": 2492,
            "contract": "contracts/EASOnboarding.sol:EASOnboarding",
            "label": "studentLevel",
            "offset": 0,
            "slot": "0",
            "type": "t_uint256"
          },
          {
            "astId": 2495,
            "contract": "contracts/EASOnboarding.sol:EASOnboarding",
            "label": "eventsCompleted",
            "offset": 0,
            "slot": "1",
            "type": "t_array(t_uint256)dyn_storage"
          },
          {
            "astId": 2498,
            "contract": "contracts/EASOnboarding.sol:EASOnboarding",
            "label": "attestations",
            "offset": 0,
            "slot": "2",
            "type": "t_array(t_bytes32)dyn_storage"
          }
        ],
        "numberOfBytes": "96"
      },
      "t_struct(Event)2490_storage": {
        "encoding": "inplace",
        "label": "struct Structs.Event",
        "members": [
          {
            "astId": 2462,
            "contract": "contracts/EASOnboarding.sol:EASOnboarding",
            "label": "typeOf",
            "offset": 0,
            "slot": "0",
            "type": "t_uint8"
          },
          {
            "astId": 2464,
            "contract": "contracts/EASOnboarding.sol:EASOnboarding",
            "label": "eventId",
            "offset": 0,
            "slot": "1",
            "type": "t_uint256"
          },
          {
            "astId": 2466,
            "contract": "contracts/EASOnboarding.sol:EASOnboarding",
            "label": "level",
            "offset": 0,
            "slot": "2",
            "type": "t_uint256"
          },
          {
            "astId": 2468,
            "contract": "contracts/EASOnboarding.sol:EASOnboarding",
            "label": "closingTimestamp",
            "offset": 0,
            "slot": "3",
            "type": "t_uint256"
          },
          {
            "astId": 2470,
            "contract": "contracts/EASOnboarding.sol:EASOnboarding",
            "label": "attendeeCount",
            "offset": 0,
            "slot": "4",
            "type": "t_uint256"
          },
          {
            "astId": 2472,
            "contract": "contracts/EASOnboarding.sol:EASOnboarding",
            "label": "eventName",
            "offset": 0,
            "slot": "5",
            "type": "t_string_storage"
          },
          {
            "astId": 2474,
            "contract": "contracts/EASOnboarding.sol:EASOnboarding",
            "label": "eventDescription",
            "offset": 0,
            "slot": "6",
            "type": "t_string_storage"
          },
          {
            "astId": 2476,
            "contract": "contracts/EASOnboarding.sol:EASOnboarding",
            "label": "mentorName",
            "offset": 0,
            "slot": "7",
            "type": "t_string_storage"
          },
          {
            "astId": 2478,
            "contract": "contracts/EASOnboarding.sol:EASOnboarding",
            "label": "badgeUri",
            "offset": 0,
            "slot": "8",
            "type": "t_string_storage"
          },
          {
            "astId": 2480,
            "contract": "contracts/EASOnboarding.sol:EASOnboarding",
            "label": "mentorAddress",
            "offset": 0,
            "slot": "9",
            "type": "t_address"
          },
          {
            "astId": 2483,
            "contract": "contracts/EASOnboarding.sol:EASOnboarding",
            "label": "attendees",
            "offset": 0,
            "slot": "10",
            "type": "t_array(t_address)dyn_storage"
          },
          {
            "astId": 2485,
            "contract": "contracts/EASOnboarding.sol:EASOnboarding",
            "label": "isActive",
            "offset": 0,
            "slot": "11",
            "type": "t_bool"
          },
          {
            "astId": 2487,
            "contract": "contracts/EASOnboarding.sol:EASOnboarding",
            "label": "overrideClosingTimestamp",
            "offset": 1,
            "slot": "11",
            "type": "t_bool"
          },
          {
            "astId": 2489,
            "contract": "contracts/EASOnboarding.sol:EASOnboarding",
            "label": "schemaUID",
            "offset": 0,
            "slot": "12",
            "type": "t_bytes32"
          }
        ],
        "numberOfBytes": "416"
      },
      "t_struct(metaEvent)2514_storage": {
        "encoding": "inplace",
        "label": "struct Structs.metaEvent",
        "members": [
          {
            "astId": 2501,
            "contract": "contracts/EASOnboarding.sol:EASOnboarding",
            "label": "attestation",
            "offset": 0,
            "slot": "0",
            "type": "t_bytes32"
          },
          {
            "astId": 2503,
            "contract": "contracts/EASOnboarding.sol:EASOnboarding",
            "label": "eventId",
            "offset": 0,
            "slot": "1",
            "type": "t_uint256"
          },
          {
            "astId": 2505,
            "contract": "contracts/EASOnboarding.sol:EASOnboarding",
            "label": "level",
            "offset": 0,
            "slot": "2",
            "type": "t_uint256"
          },
          {
            "astId": 2507,
            "contract": "contracts/EASOnboarding.sol:EASOnboarding",
            "label": "eventName",
            "offset": 0,
            "slot": "3",
            "type": "t_string_storage"
          },
          {
            "astId": 2509,
            "contract": "contracts/EASOnboarding.sol:EASOnboarding",
            "label": "eventDescription",
            "offset": 0,
            "slot": "4",
            "type": "t_string_storage"
          },
          {
            "astId": 2511,
            "contract": "contracts/EASOnboarding.sol:EASOnboarding",
            "label": "mentorName",
            "offset": 0,
            "slot": "5",
            "type": "t_string_storage"
          },
          {
            "astId": 2513,
            "contract": "contracts/EASOnboarding.sol:EASOnboarding",
            "label": "mentorAddress",
            "offset": 0,
            "slot": "6",
            "type": "t_address"
          }
        ],
        "numberOfBytes": "224"
      },
      "t_uint256": {
        "encoding": "inplace",
        "label": "uint256",
        "numberOfBytes": "32"
      },
      "t_uint8": {
        "encoding": "inplace",
        "label": "uint8",
        "numberOfBytes": "1"
      }
    }
  }
}