{
  "address": "0x2a16df6f0D15535e3C44feb12457065a64496E35",
  "abi": [
    {
      "inputs": [],
      "stateMutability": "nonpayable",
      "type": "constructor"
    },
    {
      "inputs": [
        {
          "internalType": "bytes32",
          "name": "_attestation",
          "type": "bytes32"
        },
        {
          "internalType": "address",
          "name": "_studentAddress",
          "type": "address"
        },
        {
          "internalType": "uint256",
          "name": "_eventId",
          "type": "uint256"
        }
      ],
      "name": "addAttestation",
      "outputs": [],
      "stateMutability": "nonpayable",
      "type": "function"
    },
    {
      "inputs": [
        {
          "internalType": "address[]",
          "name": "_newMentors",
          "type": "address[]"
        }
      ],
      "name": "addMentors",
      "outputs": [],
      "stateMutability": "nonpayable",
      "type": "function"
    },
    {
      "inputs": [
        {
          "internalType": "address",
          "name": "",
          "type": "address"
        }
      ],
      "name": "attestationProfile",
      "outputs": [
        {
          "internalType": "uint256",
          "name": "studentLevel",
          "type": "uint256"
        }
      ],
      "stateMutability": "view",
      "type": "function"
    },
    {
      "inputs": [
        {
          "internalType": "uint256",
          "name": "_closingTimestamp",
          "type": "uint256"
        },
        {
          "internalType": "uint256",
          "name": "_level",
          "type": "uint256"
        },
        {
          "internalType": "uint8",
          "name": "_type",
          "type": "uint8"
        },
        {
          "internalType": "string",
          "name": "_eventName",
          "type": "string"
        },
        {
          "internalType": "string",
          "name": "_eventDescription",
          "type": "string"
        },
        {
          "internalType": "string",
          "name": "_mentorName",
          "type": "string"
        }
      ],
      "name": "createEvent",
      "outputs": [],
      "stateMutability": "nonpayable",
      "type": "function"
    },
    {
      "inputs": [],
      "name": "eventIdCounter",
      "outputs": [
        {
          "internalType": "uint256",
          "name": "",
          "type": "uint256"
        }
      ],
      "stateMutability": "view",
      "type": "function"
    },
    {
      "inputs": [
        {
          "internalType": "uint256",
          "name": "",
          "type": "uint256"
        }
      ],
      "name": "events",
      "outputs": [
        {
          "internalType": "uint8",
          "name": "typeOf",
          "type": "uint8"
        },
        {
          "internalType": "uint256",
          "name": "eventId",
          "type": "uint256"
        },
        {
          "internalType": "uint256",
          "name": "level",
          "type": "uint256"
        },
        {
          "internalType": "uint256",
          "name": "closingTimestamp",
          "type": "uint256"
        },
        {
          "internalType": "uint256",
          "name": "attendeeCount",
          "type": "uint256"
        },
        {
          "internalType": "string",
          "name": "eventName",
          "type": "string"
        },
        {
          "internalType": "string",
          "name": "eventDescription",
          "type": "string"
        },
        {
          "internalType": "string",
          "name": "mentorName",
          "type": "string"
        },
        {
          "internalType": "address",
          "name": "mentorAddress",
          "type": "address"
        },
        {
          "internalType": "bool",
          "name": "isActive",
          "type": "bool"
        },
        {
          "internalType": "bool",
          "name": "overrideClosingTimestamp",
          "type": "bool"
        }
      ],
      "stateMutability": "view",
      "type": "function"
    },
    {
      "inputs": [],
      "name": "getAllEvents",
      "outputs": [
        {
          "components": [
            {
              "internalType": "uint8",
              "name": "typeOf",
              "type": "uint8"
            },
            {
              "internalType": "uint256",
              "name": "eventId",
              "type": "uint256"
            },
            {
              "internalType": "uint256",
              "name": "level",
              "type": "uint256"
            },
            {
              "internalType": "uint256",
              "name": "closingTimestamp",
              "type": "uint256"
            },
            {
              "internalType": "uint256",
              "name": "attendeeCount",
              "type": "uint256"
            },
            {
              "internalType": "string",
              "name": "eventName",
              "type": "string"
            },
            {
              "internalType": "string",
              "name": "eventDescription",
              "type": "string"
            },
            {
              "internalType": "string",
              "name": "mentorName",
              "type": "string"
            },
            {
              "internalType": "address",
              "name": "mentorAddress",
              "type": "address"
            },
            {
              "internalType": "address[]",
              "name": "attendees",
              "type": "address[]"
            },
            {
              "internalType": "bool",
              "name": "isActive",
              "type": "bool"
            },
            {
              "internalType": "bool",
              "name": "overrideClosingTimestamp",
              "type": "bool"
            }
          ],
          "internalType": "struct Structs.Event[]",
          "name": "",
          "type": "tuple[]"
        }
      ],
      "stateMutability": "view",
      "type": "function"
    },
    {
      "inputs": [
        {
          "internalType": "uint256",
          "name": "_eventId",
          "type": "uint256"
        },
        {
          "internalType": "uint256",
          "name": "_level",
          "type": "uint256"
        },
        {
          "internalType": "bytes32",
          "name": "_msgHash",
          "type": "bytes32"
        },
        {
          "internalType": "bytes",
          "name": "_signature",
          "type": "bytes"
        }
      ],
      "name": "getAttested",
      "outputs": [
        {
          "internalType": "bool",
          "name": "",
          "type": "bool"
        }
      ],
      "stateMutability": "nonpayable",
      "type": "function"
    },
    {
      "inputs": [
        {
          "internalType": "bytes32",
          "name": "_messageHash",
          "type": "bytes32"
        }
      ],
      "name": "getEthSignedMessageHash",
      "outputs": [
        {
          "internalType": "bytes32",
          "name": "",
          "type": "bytes32"
        }
      ],
      "stateMutability": "pure",
      "type": "function"
    },
    {
      "inputs": [
        {
          "internalType": "address",
          "name": "_studentAddress",
          "type": "address"
        }
      ],
      "name": "getEventsCompleted",
      "outputs": [
        {
          "internalType": "uint256",
          "name": "_studentLevel",
          "type": "uint256"
        },
        {
          "internalType": "uint256[]",
          "name": "",
          "type": "uint256[]"
        },
        {
          "internalType": "bytes32[]",
          "name": "",
          "type": "bytes32[]"
        }
      ],
      "stateMutability": "view",
      "type": "function"
    },
    {
      "inputs": [
        {
          "internalType": "bytes32",
          "name": "_messageHash",
          "type": "bytes32"
        },
        {
          "internalType": "bytes",
          "name": "_signature",
          "type": "bytes"
        }
      ],
      "name": "isVerified",
      "outputs": [
        {
          "internalType": "bool",
          "name": "",
          "type": "bool"
        }
      ],
      "stateMutability": "view",
      "type": "function"
    },
    {
      "inputs": [
        {
          "internalType": "bytes32",
          "name": "_ethSignedMessageHash",
          "type": "bytes32"
        },
        {
          "internalType": "bytes",
          "name": "_signature",
          "type": "bytes"
        }
      ],
      "name": "recoverSigner",
      "outputs": [
        {
          "internalType": "address",
          "name": "",
          "type": "address"
        }
      ],
      "stateMutability": "pure",
      "type": "function"
    },
    {
      "inputs": [
        {
          "internalType": "bytes",
          "name": "sig",
          "type": "bytes"
        }
      ],
      "name": "splitSignature",
      "outputs": [
        {
          "internalType": "uint8",
          "name": "",
          "type": "uint8"
        },
        {
          "internalType": "bytes32",
          "name": "",
          "type": "bytes32"
        },
        {
          "internalType": "bytes32",
          "name": "",
          "type": "bytes32"
        }
      ],
      "stateMutability": "pure",
      "type": "function"
    },
    {
      "inputs": [
        {
          "internalType": "address",
          "name": "",
          "type": "address"
        },
        {
          "internalType": "uint256",
          "name": "",
          "type": "uint256"
        }
      ],
      "name": "studentEventMap",
      "outputs": [
        {
          "internalType": "bytes32",
          "name": "attestation",
          "type": "bytes32"
        },
        {
          "internalType": "uint256",
          "name": "eventId",
          "type": "uint256"
        },
        {
          "internalType": "uint256",
          "name": "level",
          "type": "uint256"
        },
        {
          "internalType": "string",
          "name": "eventName",
          "type": "string"
        },
        {
          "internalType": "string",
          "name": "eventDescription",
          "type": "string"
        },
        {
          "internalType": "string",
          "name": "mentorName",
          "type": "string"
        },
        {
          "internalType": "address",
          "name": "mentorAddress",
          "type": "address"
        }
      ],
      "stateMutability": "view",
      "type": "function"
    },
    {
      "inputs": [
        {
          "internalType": "uint256",
          "name": "_eventId",
          "type": "uint256"
        },
        {
          "internalType": "bool",
          "name": "_res",
          "type": "bool"
        }
      ],
      "name": "toggleOverrideEventFlag",
      "outputs": [],
      "stateMutability": "nonpayable",
      "type": "function"
    }
  ],
  "transactionHash": "0x36a5a3d94d199e7679874dc472d4cda8d6aba178308d6f7953d4ac7bd887f014",
  "args": [],
  "numDeployments": 3,
  "solcInputHash": "b78f126ae3975ec8d2f44c7ff96827a1",
  "bytecode": "0x6080604052600160055534801561001557600080fd5b50600080546001600160a01b03191633179055611d91806100376000396000f3fe608060405234801561001057600080fd5b50600436106100f55760003560e01c806397aba7f911610097578063c3816c1311610066578063c3816c1314610273578063e01a0ebe14610286578063fa5408011461028f578063fed6bf28146102a257600080fd5b806397aba7f9146101ee578063a264efce14610219578063a7bb58031461022c578063c27a500d1461025e57600080fd5b80635c78442c116100d35780635c78442c146101555780636dff91311461017b5780637fcacc0e146101a957806391ea6364146101cc57600080fd5b806306648651146100fa5780630b7914301461010f57806358586bad14610142575b600080fd5b61010d610108366004611395565b6102b5565b005b61012261011d3660046113ca565b610314565b6040516101399b9a99989796959493929190611429565b60405180910390f35b61010d61015036600461156f565b610518565b610168610163366004611622565b610701565b604051610139979695949392919061164c565b61019b6101893660046116b4565b60016020526000908152604090205481565b604051908152602001610139565b6101bc6101b73660046116d6565b6108e7565b6040519015158152602001610139565b6101df6101da3660046116b4565b61096e565b6040516101399392919061171d565b6102016101fc3660046116d6565b610a44565b6040516001600160a01b039091168152602001610139565b61010d6102273660046117a3565b610ac3565b61023f61023a3660046117d8565b610b35565b6040805160ff9094168452602084019290925290820152606001610139565b610266610ba7565b6040516101399190611859565b6101bc610281366004611991565b610f65565b61019b60055481565b61019b61029d3660046113ca565b611272565b61010d6102b03660046119eb565b6112c5565b6000546001600160a01b031633146102cc57600080fd5b6001600160a01b039091166000818152600160208181526040808420600290810180549485018155855282852090930187905593835290815282822093825292909252902055565b600360208190526000918252604090912080546001820154600283015493830154600484015460058501805460ff90951696939593949293919261035790611a98565b80601f016020809104026020016040519081016040528092919081815260200182805461038390611a98565b80156103d05780601f106103a5576101008083540402835291602001916103d0565b820191906000526020600020905b8154815290600101906020018083116103b357829003601f168201915b5050505050908060060180546103e590611a98565b80601f016020809104026020016040519081016040528092919081815260200182805461041190611a98565b801561045e5780601f106104335761010080835404028352916020019161045e565b820191906000526020600020905b81548152906001019060200180831161044157829003601f168201915b50505050509080600701805461047390611a98565b80601f016020809104026020016040519081016040528092919081815260200182805461049f90611a98565b80156104ec5780601f106104c1576101008083540402835291602001916104ec565b820191906000526020600020905b8154815290600101906020018083116104cf57829003601f168201915b505050506008830154600a9093015491926001600160a01b03169160ff8082169250610100909104168b565b3360008181526004602052604090205460ff168061054357506000546001600160a01b038281169116145b6105685760405162461bcd60e51b815260040161055f90611acc565b60405180910390fd5b4287116105c85760405162461bcd60e51b815260206004820152602860248201527f436c6f73696e672074696d657374616d702063616e6e6f7420626520696e20746044820152673432903830b9ba1760c11b606482015260840161055f565b600580546000908152600360208190526040808320805460ff191660ff8b1617905583548084528184206001818101929092556002018b9055845484528184209092018b905583548352808320600401919091558254825290200161062d8582611b68565b50600554600090815260036020526040902060060161064c8482611b68565b50600554600090815260036020526040902060070161066b8382611b68565b506005805460009081526003602090815260408083206008018054336001600160a01b03199182168117909255855485528285206009018054600181810183559187529486209094018054909116909117905583548352808320600a908101805460ff191690931790925583548352822001805461ff0019169055815491906106f383611c3e565b919050555050505050505050565b600260208181526000938452604080852090915291835291208054600182015492820154600383018054929493919261073990611a98565b80601f016020809104026020016040519081016040528092919081815260200182805461076590611a98565b80156107b25780601f10610787576101008083540402835291602001916107b2565b820191906000526020600020905b81548152906001019060200180831161079557829003601f168201915b5050505050908060040180546107c790611a98565b80601f01602080910402602001604051908101604052809291908181526020018280546107f390611a98565b80156108405780601f1061081557610100808354040283529160200191610840565b820191906000526020600020905b81548152906001019060200180831161082357829003601f168201915b50505050509080600501805461085590611a98565b80601f016020809104026020016040519081016040528092919081815260200182805461088190611a98565b80156108ce5780601f106108a3576101008083540402835291602001916108ce565b820191906000526020600020905b8154815290600101906020018083116108b157829003601f168201915b505050600690930154919250506001600160a01b031687565b6000806108f384611272565b905060006109018285610a44565b6000549091506001600160a01b038083169116146109615760405162461bcd60e51b815260206004820152601a60248201527f556e617574686f72697a656420436f6e74726163742063616c6c000000000000604482015260640161055f565b6001925050505b92915050565b6001600160a01b038116600090815260016020818152604080842080549381018054835181860281018601909452808452606095869590949293600201929184918301828280156109de57602002820191906000526020600020905b8154815260200190600101908083116109ca575b5050505050915080805480602002602001604051908101604052809291908181526020018280548015610a3057602002820191906000526020600020905b815481526020019060010190808311610a1c575b505050505090509250925092509193909250565b600080600080610a5385610b35565b6040805160008152602081018083528b905260ff8516918101919091526060810183905260808101829052929550909350915060019060a0016020604051602081039080840390855afa158015610aae573d6000803e3d6000fd5b5050604051601f190151979650505050505050565b3360008181526004602052604090205460ff1680610aee57506000546001600160a01b038281169116145b610b0a5760405162461bcd60e51b815260040161055f90611acc565b50600091825260036020526040909120600a0180549115156101000261ff0019909216919091179055565b60008060008351604114610b8b5760405162461bcd60e51b815260206004820152601860248201527f696e76616c6964207369676e6174757265206c656e6774680000000000000000604482015260640161055f565b5050506020810151604082015160609092015160001a92909190565b606060006001600554610bba9190611c57565b67ffffffffffffffff811115610bd257610bd26114b8565b604051908082528060200260200182016040528015610c7757816020015b610c64604051806101800160405280600060ff1681526020016000815260200160008152602001600081526020016000815260200160608152602001606081526020016060815260200160006001600160a01b03168152602001606081526020016000151581526020016000151581525090565b815260200190600190039081610bf05790505b50905060015b600554811015610f5f57600081815260036020818152604092839020835161018081018552815460ff1681526001820154928101929092526002810154938201939093529082015460608201526004820154608082015260058201805491929160a084019190610cec90611a98565b80601f0160208091040260200160405190810160405280929190818152602001828054610d1890611a98565b8015610d655780601f10610d3a57610100808354040283529160200191610d65565b820191906000526020600020905b815481529060010190602001808311610d4857829003601f168201915b50505050508152602001600682018054610d7e90611a98565b80601f0160208091040260200160405190810160405280929190818152602001828054610daa90611a98565b8015610df75780601f10610dcc57610100808354040283529160200191610df7565b820191906000526020600020905b815481529060010190602001808311610dda57829003601f168201915b50505050508152602001600782018054610e1090611a98565b80601f0160208091040260200160405190810160405280929190818152602001828054610e3c90611a98565b8015610e895780601f10610e5e57610100808354040283529160200191610e89565b820191906000526020600020905b815481529060010190602001808311610e6c57829003601f168201915b505050918352505060088201546001600160a01b03166020808301919091526009830180546040805182850281018501825282815294019392830182828015610efb57602002820191906000526020600020905b81546001600160a01b03168152600190910190602001808311610edd575b5050509183525050600a919091015460ff8082161515602084015261010090910416151560409091015282610f31600184611c57565b81518110610f4157610f41611c6a565b60200260200101819052508080610f5790611c3e565b915050610c7d565b50919050565b33600090815260026020908152604080832087845290915281205415610fdd5760405162461bcd60e51b815260206004820152602760248201527f53747564656e7420616c726561647920617474657374656420666f72207468696044820152661cc8195d995b9d60ca1b606482015260840161055f565b610fe783836108e7565b6110285760405162461bcd60e51b8152602060048201526012602482015271496e76616c69642054786e20536f7572636560701b604482015260640161055f565b6000858152600360205260409020600a015460ff168061105f57506000858152600360205260409020600a0154610100900460ff16155b6110ab5760405162461bcd60e51b815260206004820152601960248201527f4576656e74206973206e6f206c6f6e6765722061637469766500000000000000604482015260640161055f565b600085815260036020819052604090912001544210806110e257506000858152600360205260409020600a0154610100900460ff16155b61112e5760405162461bcd60e51b815260206004820152601f60248201527f4576656e74206973207061737420636c6f73696e672074696d657374616d7000604482015260640161055f565b6000858152600360208181526040808420600981018054600180820183559187528487200180546001600160a01b0319163390811790915580875281855283872080830180548085018255908952868920018d90559087528a9055600284528286208b8752909352932090810188905501906111ad9060050182611c80565b50600085815260036020908152604080832033845260028352818420898552909252909120600401906111e39060060182611c80565b50600085815260036020908152604080832033845260028352818420898552909252909120600501906112199060070182611c80565b5050506000838152600360209081526040808320600801543384526002808452828520978552969092529091206006810180546001600160a01b0319166001600160a01b03909316929092179091559092015550600190565b6040517f19457468657265756d205369676e6564204d6573736167653a0a3332000000006020820152603c8101829052600090605c01604051602081830303815290604052805190602001209050919050565b3360008181526004602052604090205460ff16806112f057506000546001600160a01b038281169116145b61130c5760405162461bcd60e51b815260040161055f90611acc565b60005b82518110156113745760016004600085848151811061133057611330611c6a565b6020908102919091018101516001600160a01b03168252810191909152604001600020805460ff19169115159190911790558061136c81611c3e565b91505061130f565b505050565b80356001600160a01b038116811461139057600080fd5b919050565b6000806000606084860312156113aa57600080fd5b833592506113ba60208501611379565b9150604084013590509250925092565b6000602082840312156113dc57600080fd5b5035919050565b6000815180845260005b81811015611409576020818501810151868301820152016113ed565b506000602082860101526020601f19601f83011685010191505092915050565b600061016060ff8e1683528c60208401528b60408401528a60608401528960808401528060a084015261145e8184018a6113e3565b905082810360c084015261147281896113e3565b905082810360e084015261148681886113e3565b6001600160a01b0396909616610100840152505091151561012083015215156101409091015298975050505050505050565b634e487b7160e01b600052604160045260246000fd5b604051601f8201601f1916810167ffffffffffffffff811182821017156114f7576114f76114b8565b604052919050565b600082601f83011261151057600080fd5b813567ffffffffffffffff81111561152a5761152a6114b8565b61153d601f8201601f19166020016114ce565b81815284602083860101111561155257600080fd5b816020850160208301376000918101602001919091529392505050565b60008060008060008060c0878903121561158857600080fd5b8635955060208701359450604087013560ff811681146115a757600080fd5b9350606087013567ffffffffffffffff808211156115c457600080fd5b6115d08a838b016114ff565b945060808901359150808211156115e657600080fd5b6115f28a838b016114ff565b935060a089013591508082111561160857600080fd5b5061161589828a016114ff565b9150509295509295509295565b6000806040838503121561163557600080fd5b61163e83611379565b946020939093013593505050565b87815286602082015285604082015260e06060820152600061167160e08301876113e3565b828103608084015261168381876113e3565b905082810360a084015261169781866113e3565b91505060018060a01b03831660c083015298975050505050505050565b6000602082840312156116c657600080fd5b6116cf82611379565b9392505050565b600080604083850312156116e957600080fd5b82359150602083013567ffffffffffffffff81111561170757600080fd5b611713858286016114ff565b9150509250929050565b6000606082018583526020606081850152818651808452608086019150828801935060005b8181101561175e57845183529383019391830191600101611742565b50508481036040860152855180825290820192508186019060005b8181101561179557825185529383019391830191600101611779565b509298975050505050505050565b600080604083850312156117b657600080fd5b82359150602083013580151581146117cd57600080fd5b809150509250929050565b6000602082840312156117ea57600080fd5b813567ffffffffffffffff81111561180157600080fd5b61180d848285016114ff565b949350505050565b600081518084526020808501945080840160005b8381101561184e5781516001600160a01b031687529582019590820190600101611829565b509495945050505050565b60006020808301818452808551808352604092508286019150828160051b87010184880160005b8381101561198357888303603f190185528151805160ff16845261018081890151858a01528782015188860152606080830151908601526080808301519086015260a0808301518187018390526118d9838801826113e3565b9250505060c080830151868303828801526118f483826113e3565b9250505060e0808301518683038288015261190f83826113e3565b925050506101008083015161192e828801826001600160a01b03169052565b505061012080830151868303828801526119488382611815565b92505050610140808301516119608288018215159052565b505061016091820151151594909101939093529386019390860190600101611880565b509098975050505050505050565b600080600080608085870312156119a757600080fd5b843593506020850135925060408501359150606085013567ffffffffffffffff8111156119d357600080fd5b6119df878288016114ff565b91505092959194509250565b600060208083850312156119fe57600080fd5b823567ffffffffffffffff80821115611a1657600080fd5b818501915085601f830112611a2a57600080fd5b813581811115611a3c57611a3c6114b8565b8060051b9150611a4d8483016114ce565b8181529183018401918481019088841115611a6757600080fd5b938501935b83851015611a8c57611a7d85611379565b82529385019390850190611a6c565b98975050505050505050565b600181811c90821680611aac57607f821691505b602082108103610f5f57634e487b7160e01b600052602260045260246000fd5b6020808252602e908201527f4f6e6c792073656c6563746564206d656e746f7220616464726573736573206360408201526d30b71031b932b0ba329038bab4bd60911b606082015260800190565b601f82111561137457600081815260208120601f850160051c81016020861015611b415750805b601f850160051c820191505b81811015611b6057828155600101611b4d565b505050505050565b815167ffffffffffffffff811115611b8257611b826114b8565b611b9681611b908454611a98565b84611b1a565b602080601f831160018114611bcb5760008415611bb35750858301515b600019600386901b1c1916600185901b178555611b60565b600085815260208120601f198616915b82811015611bfa57888601518255948401946001909101908401611bdb565b5085821015611c185787850151600019600388901b60f8161c191681555b5050505050600190811b01905550565b634e487b7160e01b600052601160045260246000fd5b600060018201611c5057611c50611c28565b5060010190565b8181038181111561096857610968611c28565b634e487b7160e01b600052603260045260246000fd5b818103611c8b575050565b611c958254611a98565b67ffffffffffffffff811115611cad57611cad6114b8565b611cbb81611b908454611a98565b6000601f821160018114611cef5760008315611cd75750848201545b600019600385901b1c1916600184901b178455611d54565b600085815260209020601f19841690600086815260209020845b83811015611d295782860154825560019586019590910190602001611d09565b5085831015611d475781850154600019600388901b60f8161c191681555b50505060018360011b0184555b505050505056fea264697066735822122037f911c31c4c1271f6447876e871f601a47393071a767d7b4ff62f64493d062764736f6c63430008140033",
  "devdoc": {
    "kind": "dev",
    "methods": {},
    "version": 1
  },
  "userdoc": {
    "kind": "user",
    "methods": {},
    "version": 1
  },
  "storageLayout": {
    "storage": [
      {
        "astId": 2363,
        "contract": "contracts/EASOnboarding.sol:EASOnboarding",
        "label": "deployer",
        "offset": 0,
        "slot": "0",
        "type": "t_address"
      },
      {
        "astId": 2368,
        "contract": "contracts/EASOnboarding.sol:EASOnboarding",
        "label": "attestationProfile",
        "offset": 0,
        "slot": "1",
        "type": "t_mapping(t_address,t_struct(AttestationProfile)2342_storage)"
      },
      {
        "astId": 2375,
        "contract": "contracts/EASOnboarding.sol:EASOnboarding",
        "label": "studentEventMap",
        "offset": 0,
        "slot": "2",
        "type": "t_mapping(t_address,t_mapping(t_uint256,t_struct(metaEvent)2357_storage))"
      },
      {
        "astId": 2380,
        "contract": "contracts/EASOnboarding.sol:EASOnboarding",
        "label": "events",
        "offset": 0,
        "slot": "3",
        "type": "t_mapping(t_uint256,t_struct(Event)2333_storage)"
      },
      {
        "astId": 2384,
        "contract": "contracts/EASOnboarding.sol:EASOnboarding",
        "label": "isMentor",
        "offset": 0,
        "slot": "4",
        "type": "t_mapping(t_address,t_bool)"
      },
      {
        "astId": 2387,
        "contract": "contracts/EASOnboarding.sol:EASOnboarding",
        "label": "eventIdCounter",
        "offset": 0,
        "slot": "5",
        "type": "t_uint256"
      }
    ],
    "types": {
      "t_address": {
        "encoding": "inplace",
        "label": "address",
        "numberOfBytes": "20"
      },
      "t_array(t_address)dyn_storage": {
        "base": "t_address",
        "encoding": "dynamic_array",
        "label": "address[]",
        "numberOfBytes": "32"
      },
      "t_array(t_bytes32)dyn_storage": {
        "base": "t_bytes32",
        "encoding": "dynamic_array",
        "label": "bytes32[]",
        "numberOfBytes": "32"
      },
      "t_array(t_uint256)dyn_storage": {
        "base": "t_uint256",
        "encoding": "dynamic_array",
        "label": "uint256[]",
        "numberOfBytes": "32"
      },
      "t_bool": {
        "encoding": "inplace",
        "label": "bool",
        "numberOfBytes": "1"
      },
      "t_bytes32": {
        "encoding": "inplace",
        "label": "bytes32",
        "numberOfBytes": "32"
      },
      "t_mapping(t_address,t_bool)": {
        "encoding": "mapping",
        "key": "t_address",
        "label": "mapping(address => bool)",
        "numberOfBytes": "32",
        "value": "t_bool"
      },
      "t_mapping(t_address,t_mapping(t_uint256,t_struct(metaEvent)2357_storage))": {
        "encoding": "mapping",
        "key": "t_address",
        "label": "mapping(address => mapping(uint256 => struct Structs.metaEvent))",
        "numberOfBytes": "32",
        "value": "t_mapping(t_uint256,t_struct(metaEvent)2357_storage)"
      },
      "t_mapping(t_address,t_struct(AttestationProfile)2342_storage)": {
        "encoding": "mapping",
        "key": "t_address",
        "label": "mapping(address => struct Structs.AttestationProfile)",
        "numberOfBytes": "32",
        "value": "t_struct(AttestationProfile)2342_storage"
      },
      "t_mapping(t_uint256,t_struct(Event)2333_storage)": {
        "encoding": "mapping",
        "key": "t_uint256",
        "label": "mapping(uint256 => struct Structs.Event)",
        "numberOfBytes": "32",
        "value": "t_struct(Event)2333_storage"
      },
      "t_mapping(t_uint256,t_struct(metaEvent)2357_storage)": {
        "encoding": "mapping",
        "key": "t_uint256",
        "label": "mapping(uint256 => struct Structs.metaEvent)",
        "numberOfBytes": "32",
        "value": "t_struct(metaEvent)2357_storage"
      },
      "t_string_storage": {
        "encoding": "bytes",
        "label": "string",
        "numberOfBytes": "32"
      },
      "t_struct(AttestationProfile)2342_storage": {
        "encoding": "inplace",
        "label": "struct Structs.AttestationProfile",
        "members": [
          {
            "astId": 2335,
            "contract": "contracts/EASOnboarding.sol:EASOnboarding",
            "label": "studentLevel",
            "offset": 0,
            "slot": "0",
            "type": "t_uint256"
          },
          {
            "astId": 2338,
            "contract": "contracts/EASOnboarding.sol:EASOnboarding",
            "label": "eventsCompleted",
            "offset": 0,
            "slot": "1",
            "type": "t_array(t_uint256)dyn_storage"
          },
          {
            "astId": 2341,
            "contract": "contracts/EASOnboarding.sol:EASOnboarding",
            "label": "attestations",
            "offset": 0,
            "slot": "2",
            "type": "t_array(t_bytes32)dyn_storage"
          }
        ],
        "numberOfBytes": "96"
      },
      "t_struct(Event)2333_storage": {
        "encoding": "inplace",
        "label": "struct Structs.Event",
        "members": [
          {
            "astId": 2309,
            "contract": "contracts/EASOnboarding.sol:EASOnboarding",
            "label": "typeOf",
            "offset": 0,
            "slot": "0",
            "type": "t_uint8"
          },
          {
            "astId": 2311,
            "contract": "contracts/EASOnboarding.sol:EASOnboarding",
            "label": "eventId",
            "offset": 0,
            "slot": "1",
            "type": "t_uint256"
          },
          {
            "astId": 2313,
            "contract": "contracts/EASOnboarding.sol:EASOnboarding",
            "label": "level",
            "offset": 0,
            "slot": "2",
            "type": "t_uint256"
          },
          {
            "astId": 2315,
            "contract": "contracts/EASOnboarding.sol:EASOnboarding",
            "label": "closingTimestamp",
            "offset": 0,
            "slot": "3",
            "type": "t_uint256"
          },
          {
            "astId": 2317,
            "contract": "contracts/EASOnboarding.sol:EASOnboarding",
            "label": "attendeeCount",
            "offset": 0,
            "slot": "4",
            "type": "t_uint256"
          },
          {
            "astId": 2319,
            "contract": "contracts/EASOnboarding.sol:EASOnboarding",
            "label": "eventName",
            "offset": 0,
            "slot": "5",
            "type": "t_string_storage"
          },
          {
            "astId": 2321,
            "contract": "contracts/EASOnboarding.sol:EASOnboarding",
            "label": "eventDescription",
            "offset": 0,
            "slot": "6",
            "type": "t_string_storage"
          },
          {
            "astId": 2323,
            "contract": "contracts/EASOnboarding.sol:EASOnboarding",
            "label": "mentorName",
            "offset": 0,
            "slot": "7",
            "type": "t_string_storage"
          },
          {
            "astId": 2325,
            "contract": "contracts/EASOnboarding.sol:EASOnboarding",
            "label": "mentorAddress",
            "offset": 0,
            "slot": "8",
            "type": "t_address"
          },
          {
            "astId": 2328,
            "contract": "contracts/EASOnboarding.sol:EASOnboarding",
            "label": "attendees",
            "offset": 0,
            "slot": "9",
            "type": "t_array(t_address)dyn_storage"
          },
          {
            "astId": 2330,
            "contract": "contracts/EASOnboarding.sol:EASOnboarding",
            "label": "isActive",
            "offset": 0,
            "slot": "10",
            "type": "t_bool"
          },
          {
            "astId": 2332,
            "contract": "contracts/EASOnboarding.sol:EASOnboarding",
            "label": "overrideClosingTimestamp",
            "offset": 1,
            "slot": "10",
            "type": "t_bool"
          }
        ],
        "numberOfBytes": "352"
      },
      "t_struct(metaEvent)2357_storage": {
        "encoding": "inplace",
        "label": "struct Structs.metaEvent",
        "members": [
          {
            "astId": 2344,
            "contract": "contracts/EASOnboarding.sol:EASOnboarding",
            "label": "attestation",
            "offset": 0,
            "slot": "0",
            "type": "t_bytes32"
          },
          {
            "astId": 2346,
            "contract": "contracts/EASOnboarding.sol:EASOnboarding",
            "label": "eventId",
            "offset": 0,
            "slot": "1",
            "type": "t_uint256"
          },
          {
            "astId": 2348,
            "contract": "contracts/EASOnboarding.sol:EASOnboarding",
            "label": "level",
            "offset": 0,
            "slot": "2",
            "type": "t_uint256"
          },
          {
            "astId": 2350,
            "contract": "contracts/EASOnboarding.sol:EASOnboarding",
            "label": "eventName",
            "offset": 0,
            "slot": "3",
            "type": "t_string_storage"
          },
          {
            "astId": 2352,
            "contract": "contracts/EASOnboarding.sol:EASOnboarding",
            "label": "eventDescription",
            "offset": 0,
            "slot": "4",
            "type": "t_string_storage"
          },
          {
            "astId": 2354,
            "contract": "contracts/EASOnboarding.sol:EASOnboarding",
            "label": "mentorName",
            "offset": 0,
            "slot": "5",
            "type": "t_string_storage"
          },
          {
            "astId": 2356,
            "contract": "contracts/EASOnboarding.sol:EASOnboarding",
            "label": "mentorAddress",
            "offset": 0,
            "slot": "6",
            "type": "t_address"
          }
        ],
        "numberOfBytes": "224"
      },
      "t_uint256": {
        "encoding": "inplace",
        "label": "uint256",
        "numberOfBytes": "32"
      },
      "t_uint8": {
        "encoding": "inplace",
        "label": "uint8",
        "numberOfBytes": "1"
      }
    }
  }
}