{
  "address": "0x4CE6EC617d7DebC5c1CF3386E5bf0927cACFFf8B",
  "abi": [
    {
      "inputs": [],
      "stateMutability": "nonpayable",
      "type": "constructor"
    },
    {
      "inputs": [
        {
          "internalType": "bytes32",
          "name": "_attestation",
          "type": "bytes32"
        },
        {
          "internalType": "address",
          "name": "_studentAddress",
          "type": "address"
        }
      ],
      "name": "addAttestation",
      "outputs": [],
      "stateMutability": "nonpayable",
      "type": "function"
    },
    {
      "inputs": [
        {
          "internalType": "address[]",
          "name": "_newMentors",
          "type": "address[]"
        }
      ],
      "name": "addMentors",
      "outputs": [],
      "stateMutability": "nonpayable",
      "type": "function"
    },
    {
      "inputs": [
        {
          "internalType": "address",
          "name": "",
          "type": "address"
        }
      ],
      "name": "attestationProfile",
      "outputs": [
        {
          "internalType": "uint256",
          "name": "studentLevel",
          "type": "uint256"
        }
      ],
      "stateMutability": "view",
      "type": "function"
    },
    {
      "inputs": [
        {
          "internalType": "uint256",
          "name": "_closingTimestamp",
          "type": "uint256"
        },
        {
          "internalType": "uint256",
          "name": "_level",
          "type": "uint256"
        },
        {
          "internalType": "uint8",
          "name": "_type",
          "type": "uint8"
        },
        {
          "internalType": "string",
          "name": "_eventName",
          "type": "string"
        },
        {
          "internalType": "string",
          "name": "_eventDescription",
          "type": "string"
        },
        {
          "internalType": "string",
          "name": "_mentorName",
          "type": "string"
        }
      ],
      "name": "createEvent",
      "outputs": [],
      "stateMutability": "nonpayable",
      "type": "function"
    },
    {
      "inputs": [],
      "name": "eventIdCounter",
      "outputs": [
        {
          "internalType": "uint256",
          "name": "",
          "type": "uint256"
        }
      ],
      "stateMutability": "view",
      "type": "function"
    },
    {
      "inputs": [
        {
          "internalType": "uint256",
          "name": "",
          "type": "uint256"
        }
      ],
      "name": "events",
      "outputs": [
        {
          "internalType": "uint8",
          "name": "typeOf",
          "type": "uint8"
        },
        {
          "internalType": "uint256",
          "name": "eventId",
          "type": "uint256"
        },
        {
          "internalType": "uint256",
          "name": "level",
          "type": "uint256"
        },
        {
          "internalType": "uint256",
          "name": "closingTimestamp",
          "type": "uint256"
        },
        {
          "internalType": "uint256",
          "name": "attendeeCount",
          "type": "uint256"
        },
        {
          "internalType": "string",
          "name": "eventName",
          "type": "string"
        },
        {
          "internalType": "string",
          "name": "eventDescription",
          "type": "string"
        },
        {
          "internalType": "string",
          "name": "mentorName",
          "type": "string"
        },
        {
          "internalType": "address",
          "name": "mentorAddress",
          "type": "address"
        },
        {
          "internalType": "bool",
          "name": "isActive",
          "type": "bool"
        },
        {
          "internalType": "bool",
          "name": "overrideClosingTimestamp",
          "type": "bool"
        }
      ],
      "stateMutability": "view",
      "type": "function"
    },
    {
      "inputs": [],
      "name": "getAllEvents",
      "outputs": [
        {
          "components": [
            {
              "internalType": "uint8",
              "name": "typeOf",
              "type": "uint8"
            },
            {
              "internalType": "uint256",
              "name": "eventId",
              "type": "uint256"
            },
            {
              "internalType": "uint256",
              "name": "level",
              "type": "uint256"
            },
            {
              "internalType": "uint256",
              "name": "closingTimestamp",
              "type": "uint256"
            },
            {
              "internalType": "uint256",
              "name": "attendeeCount",
              "type": "uint256"
            },
            {
              "internalType": "string",
              "name": "eventName",
              "type": "string"
            },
            {
              "internalType": "string",
              "name": "eventDescription",
              "type": "string"
            },
            {
              "internalType": "string",
              "name": "mentorName",
              "type": "string"
            },
            {
              "internalType": "address",
              "name": "mentorAddress",
              "type": "address"
            },
            {
              "internalType": "address[]",
              "name": "attendees",
              "type": "address[]"
            },
            {
              "internalType": "bool",
              "name": "isActive",
              "type": "bool"
            },
            {
              "internalType": "bool",
              "name": "overrideClosingTimestamp",
              "type": "bool"
            }
          ],
          "internalType": "struct Structs.Event[]",
          "name": "",
          "type": "tuple[]"
        }
      ],
      "stateMutability": "view",
      "type": "function"
    },
    {
      "inputs": [
        {
          "internalType": "uint256",
          "name": "_eventId",
          "type": "uint256"
        },
        {
          "internalType": "uint256",
          "name": "_level",
          "type": "uint256"
        },
        {
          "internalType": "bytes32",
          "name": "_msgHash",
          "type": "bytes32"
        },
        {
          "internalType": "bytes",
          "name": "_signature",
          "type": "bytes"
        }
      ],
      "name": "getAttested",
      "outputs": [
        {
          "internalType": "bool",
          "name": "",
          "type": "bool"
        }
      ],
      "stateMutability": "nonpayable",
      "type": "function"
    },
    {
      "inputs": [
        {
          "internalType": "bytes32",
          "name": "_messageHash",
          "type": "bytes32"
        }
      ],
      "name": "getEthSignedMessageHash",
      "outputs": [
        {
          "internalType": "bytes32",
          "name": "",
          "type": "bytes32"
        }
      ],
      "stateMutability": "pure",
      "type": "function"
    },
    {
      "inputs": [
        {
          "internalType": "address",
          "name": "_studentAddress",
          "type": "address"
        }
      ],
      "name": "getEventsCompleted",
      "outputs": [
        {
          "internalType": "uint256",
          "name": "_studentLevel",
          "type": "uint256"
        },
        {
          "internalType": "uint256[]",
          "name": "",
          "type": "uint256[]"
        },
        {
          "internalType": "bytes32[]",
          "name": "",
          "type": "bytes32[]"
        }
      ],
      "stateMutability": "view",
      "type": "function"
    },
    {
      "inputs": [
        {
          "internalType": "bytes32",
          "name": "_messageHash",
          "type": "bytes32"
        },
        {
          "internalType": "bytes",
          "name": "_signature",
          "type": "bytes"
        }
      ],
      "name": "isVerified",
      "outputs": [
        {
          "internalType": "bool",
          "name": "",
          "type": "bool"
        }
      ],
      "stateMutability": "view",
      "type": "function"
    },
    {
      "inputs": [
        {
          "internalType": "bytes32",
          "name": "_ethSignedMessageHash",
          "type": "bytes32"
        },
        {
          "internalType": "bytes",
          "name": "_signature",
          "type": "bytes"
        }
      ],
      "name": "recoverSigner",
      "outputs": [
        {
          "internalType": "address",
          "name": "",
          "type": "address"
        }
      ],
      "stateMutability": "pure",
      "type": "function"
    },
    {
      "inputs": [
        {
          "internalType": "bytes",
          "name": "sig",
          "type": "bytes"
        }
      ],
      "name": "splitSignature",
      "outputs": [
        {
          "internalType": "uint8",
          "name": "",
          "type": "uint8"
        },
        {
          "internalType": "bytes32",
          "name": "",
          "type": "bytes32"
        },
        {
          "internalType": "bytes32",
          "name": "",
          "type": "bytes32"
        }
      ],
      "stateMutability": "pure",
      "type": "function"
    },
    {
      "inputs": [
        {
          "internalType": "address",
          "name": "",
          "type": "address"
        },
        {
          "internalType": "uint256",
          "name": "",
          "type": "uint256"
        }
      ],
      "name": "studentEventMap",
      "outputs": [
        {
          "internalType": "bool",
          "name": "",
          "type": "bool"
        }
      ],
      "stateMutability": "view",
      "type": "function"
    },
    {
      "inputs": [
        {
          "internalType": "uint256",
          "name": "_eventId",
          "type": "uint256"
        },
        {
          "internalType": "bool",
          "name": "_res",
          "type": "bool"
        }
      ],
      "name": "toggleOverrideEventFlag",
      "outputs": [],
      "stateMutability": "nonpayable",
      "type": "function"
    }
  ],
  "transactionHash": "0xd4f38364e49e469af3c86af80f7405b18c4aaaad79a0a8d5edf1dc672763005f",
  "args": [],
  "numDeployments": 1,
  "solcInputHash": "268cbd0d42dd443530976d60d0490e52",
  "bytecode": "0x6080604052600160055534801561001557600080fd5b50600080546001600160a01b03191633179055611909806100376000396000f3fe608060405234801561001057600080fd5b50600436106100f55760003560e01c806397aba7f911610097578063c3816c1311610066578063c3816c131461027b578063e01a0ebe1461028e578063fa54080114610297578063fed6bf28146102aa57600080fd5b806397aba7f9146101f6578063a264efce14610221578063a7bb580314610234578063c27a500d1461026657600080fd5b80635c78442c116100d35780635c78442c146101555780636dff9131146101935780637fcacc0e146101c157806391ea6364146101d457600080fd5b80630b791430146100fa578063246115c21461012d57806358586bad14610142575b600080fd5b61010d61010836600461103d565b6102bd565b6040516101249b9a9998979695949392919061109c565b60405180910390f35b61014061013b366004611147565b6104c0565b005b61014061015036600461122a565b610503565b6101836101633660046112dd565b600360209081526000928352604080842090915290825290205460ff1681565b6040519015158152602001610124565b6101b36101a1366004611307565b60016020526000908152604090205481565b604051908152602001610124565b6101836101cf366004611329565b6106ec565b6101e76101e2366004611307565b610773565b60405161012493929190611370565b610209610204366004611329565b610849565b6040516001600160a01b039091168152602001610124565b61014061022f3660046113f6565b6108c8565b61024761024236600461142b565b61093a565b6040805160ff9094168452602084019290925290820152606001610124565b61026e6109ac565b60405161012491906114ac565b6101836102893660046115e4565b610d67565b6101b360055481565b6101b36102a536600461103d565b610f36565b6101406102b836600461163e565b610f89565b600260208190526000918252604090912080546001820154928201546003830154600484015460058501805460ff90951696959394929391926102ff906116eb565b80601f016020809104026020016040519081016040528092919081815260200182805461032b906116eb565b80156103785780601f1061034d57610100808354040283529160200191610378565b820191906000526020600020905b81548152906001019060200180831161035b57829003601f168201915b50505050509080600601805461038d906116eb565b80601f01602080910402602001604051908101604052809291908181526020018280546103b9906116eb565b80156104065780601f106103db57610100808354040283529160200191610406565b820191906000526020600020905b8154815290600101906020018083116103e957829003601f168201915b50505050509080600701805461041b906116eb565b80601f0160208091040260200160405190810160405280929190818152602001828054610447906116eb565b80156104945780601f1061046957610100808354040283529160200191610494565b820191906000526020600020905b81548152906001019060200180831161047757829003601f168201915b505050506008830154600a9093015491926001600160a01b03169160ff8082169250610100909104168b565b6000546001600160a01b031633146104d757600080fd5b6001600160a01b0316600090815260016020818152604083206002018054928301815583529091200155565b3360008181526004602052604090205460ff168061052e57506000546001600160a01b038281169116145b6105535760405162461bcd60e51b815260040161054a9061171f565b60405180910390fd5b4287116105b35760405162461bcd60e51b815260206004820152602860248201527f436c6f73696e672074696d657374616d702063616e6e6f7420626520696e20746044820152673432903830b9ba1760c11b606482015260840161054a565b600580546000908152600260208190526040808320805460ff191660ff8b1617905583548084528184206001818101929092559092018a9055835483528083206003018b905583548352808320600401919091558254825290200161061885826117bb565b50600554600090815260026020526040902060060161063784826117bb565b50600554600090815260026020526040902060070161065683826117bb565b506005805460009081526002602090815260408083206008018054336001600160a01b03199182168117909255855485528285206009018054600181810183559187529486209094018054909116909117905583548352808320600a908101805460ff191690931790925583548352822001805461ff0019169055815491906106de83611891565b919050555050505050505050565b6000806106f884610f36565b905060006107068285610849565b6000549091506001600160a01b038083169116146107665760405162461bcd60e51b815260206004820152601a60248201527f556e617574686f72697a656420436f6e74726163742063616c6c000000000000604482015260640161054a565b6001925050505b92915050565b6001600160a01b038116600090815260016020818152604080842080549381018054835181860281018601909452808452606095869590949293600201929184918301828280156107e357602002820191906000526020600020905b8154815260200190600101908083116107cf575b505050505091508080548060200260200160405190810160405280929190818152602001828054801561083557602002820191906000526020600020905b815481526020019060010190808311610821575b505050505090509250925092509193909250565b6000806000806108588561093a565b6040805160008152602081018083528b905260ff8516918101919091526060810183905260808101829052929550909350915060019060a0016020604051602081039080840390855afa1580156108b3573d6000803e3d6000fd5b5050604051601f190151979650505050505050565b3360008181526004602052604090205460ff16806108f357506000546001600160a01b038281169116145b61090f5760405162461bcd60e51b815260040161054a9061171f565b50600091825260026020526040909120600a0180549115156101000261ff0019909216919091179055565b600080600083516041146109905760405162461bcd60e51b815260206004820152601860248201527f696e76616c6964207369676e6174757265206c656e6774680000000000000000604482015260640161054a565b5050506020810151604082015160609092015160001a92909190565b6060600060016005546109bf91906118aa565b67ffffffffffffffff8111156109d7576109d7611173565b604051908082528060200260200182016040528015610a7c57816020015b610a69604051806101800160405280600060ff1681526020016000815260200160008152602001600081526020016000815260200160608152602001606081526020016060815260200160006001600160a01b03168152602001606081526020016000151581526020016000151581525090565b8152602001906001900390816109f55790505b50905060015b600554811015610d6157600081815260026020818152604092839020835161018081018552815460ff1681526001820154928101929092529182015492810192909252600381015460608301526004810154608083015260058101805460a084019190610aee906116eb565b80601f0160208091040260200160405190810160405280929190818152602001828054610b1a906116eb565b8015610b675780601f10610b3c57610100808354040283529160200191610b67565b820191906000526020600020905b815481529060010190602001808311610b4a57829003601f168201915b50505050508152602001600682018054610b80906116eb565b80601f0160208091040260200160405190810160405280929190818152602001828054610bac906116eb565b8015610bf95780601f10610bce57610100808354040283529160200191610bf9565b820191906000526020600020905b815481529060010190602001808311610bdc57829003601f168201915b50505050508152602001600782018054610c12906116eb565b80601f0160208091040260200160405190810160405280929190818152602001828054610c3e906116eb565b8015610c8b5780601f10610c6057610100808354040283529160200191610c8b565b820191906000526020600020905b815481529060010190602001808311610c6e57829003601f168201915b505050918352505060088201546001600160a01b03166020808301919091526009830180546040805182850281018501825282815294019392830182828015610cfd57602002820191906000526020600020905b81546001600160a01b03168152600190910190602001808311610cdf575b5050509183525050600a919091015460ff8082161515602084015261010090910416151560409091015282610d336001846118aa565b81518110610d4357610d436118bd565b60200260200101819052508080610d5990611891565b915050610a82565b50919050565b6000610d7383836106ec565b610db45760405162461bcd60e51b8152602060048201526012602482015271496e76616c69642054786e20536f7572636560701b604482015260640161054a565b6000858152600260205260409020600a015460ff1680610deb57506000858152600260205260409020600a0154610100900460ff16155b610e375760405162461bcd60e51b815260206004820152601960248201527f4576656e74206973206e6f206c6f6e6765722061637469766500000000000000604482015260640161054a565b600085815260026020526040902060030154421080610e6d57506000858152600260205260409020600a0154610100900460ff16155b610eb95760405162461bcd60e51b815260206004820152601f60248201527f4576656e74206973207061737420636c6f73696e672074696d657374616d7000604482015260640161054a565b5060008481526002602090815260408083206009018054600181810183559185528385200180546001600160a01b0319163390811790915580855281845282852080830180548085018255908752858720018a905590855287905560038352818420888552909252909120805460ff191682179055949350505050565b6040517f19457468657265756d205369676e6564204d6573736167653a0a3332000000006020820152603c8101829052600090605c01604051602081830303815290604052805190602001209050919050565b3360008181526004602052604090205460ff1680610fb457506000546001600160a01b038281169116145b610fd05760405162461bcd60e51b815260040161054a9061171f565b60005b825181101561103857600160046000858481518110610ff457610ff46118bd565b6020908102919091018101516001600160a01b03168252810191909152604001600020805460ff19169115159190911790558061103081611891565b915050610fd3565b505050565b60006020828403121561104f57600080fd5b5035919050565b6000815180845260005b8181101561107c57602081850181015186830182015201611060565b506000602082860101526020601f19601f83011685010191505092915050565b600061016060ff8e1683528c60208401528b60408401528a60608401528960808401528060a08401526110d18184018a611056565b905082810360c08401526110e58189611056565b905082810360e08401526110f98188611056565b6001600160a01b0396909616610100840152505091151561012083015215156101409091015298975050505050505050565b80356001600160a01b038116811461114257600080fd5b919050565b6000806040838503121561115a57600080fd5b8235915061116a6020840161112b565b90509250929050565b634e487b7160e01b600052604160045260246000fd5b604051601f8201601f1916810167ffffffffffffffff811182821017156111b2576111b2611173565b604052919050565b600082601f8301126111cb57600080fd5b813567ffffffffffffffff8111156111e5576111e5611173565b6111f8601f8201601f1916602001611189565b81815284602083860101111561120d57600080fd5b816020850160208301376000918101602001919091529392505050565b60008060008060008060c0878903121561124357600080fd5b8635955060208701359450604087013560ff8116811461126257600080fd5b9350606087013567ffffffffffffffff8082111561127f57600080fd5b61128b8a838b016111ba565b945060808901359150808211156112a157600080fd5b6112ad8a838b016111ba565b935060a08901359150808211156112c357600080fd5b506112d089828a016111ba565b9150509295509295509295565b600080604083850312156112f057600080fd5b6112f98361112b565b946020939093013593505050565b60006020828403121561131957600080fd5b6113228261112b565b9392505050565b6000806040838503121561133c57600080fd5b82359150602083013567ffffffffffffffff81111561135a57600080fd5b611366858286016111ba565b9150509250929050565b6000606082018583526020606081850152818651808452608086019150828801935060005b818110156113b157845183529383019391830191600101611395565b50508481036040860152855180825290820192508186019060005b818110156113e8578251855293830193918301916001016113cc565b509298975050505050505050565b6000806040838503121561140957600080fd5b823591506020830135801515811461142057600080fd5b809150509250929050565b60006020828403121561143d57600080fd5b813567ffffffffffffffff81111561145457600080fd5b611460848285016111ba565b949350505050565b600081518084526020808501945080840160005b838110156114a15781516001600160a01b03168752958201959082019060010161147c565b509495945050505050565b60006020808301818452808551808352604092508286019150828160051b87010184880160005b838110156115d657888303603f190185528151805160ff16845261018081890151858a01528782015188860152606080830151908601526080808301519086015260a08083015181870183905261152c83880182611056565b9250505060c080830151868303828801526115478382611056565b9250505060e080830151868303828801526115628382611056565b9250505061010080830151611581828801826001600160a01b03169052565b5050610120808301518683038288015261159b8382611468565b92505050610140808301516115b38288018215159052565b5050610160918201511515949091019390935293860193908601906001016114d3565b509098975050505050505050565b600080600080608085870312156115fa57600080fd5b843593506020850135925060408501359150606085013567ffffffffffffffff81111561162657600080fd5b611632878288016111ba565b91505092959194509250565b6000602080838503121561165157600080fd5b823567ffffffffffffffff8082111561166957600080fd5b818501915085601f83011261167d57600080fd5b81358181111561168f5761168f611173565b8060051b91506116a0848301611189565b81815291830184019184810190888411156116ba57600080fd5b938501935b838510156116df576116d08561112b565b825293850193908501906116bf565b98975050505050505050565b600181811c908216806116ff57607f821691505b602082108103610d6157634e487b7160e01b600052602260045260246000fd5b6020808252602e908201527f4f6e6c792073656c6563746564206d656e746f7220616464726573736573206360408201526d30b71031b932b0ba329038bab4bd60911b606082015260800190565b601f82111561103857600081815260208120601f850160051c810160208610156117945750805b601f850160051c820191505b818110156117b3578281556001016117a0565b505050505050565b815167ffffffffffffffff8111156117d5576117d5611173565b6117e9816117e384546116eb565b8461176d565b602080601f83116001811461181e57600084156118065750858301515b600019600386901b1c1916600185901b1785556117b3565b600085815260208120601f198616915b8281101561184d5788860151825594840194600190910190840161182e565b508582101561186b5787850151600019600388901b60f8161c191681555b5050505050600190811b01905550565b634e487b7160e01b600052601160045260246000fd5b6000600182016118a3576118a361187b565b5060010190565b8181038181111561076d5761076d61187b565b634e487b7160e01b600052603260045260246000fdfea26469706673582212205916b2cb4846a62039e1cd60d767aa02b719eb70ce28b86889740f85a0cbb91d64736f6c63430008140033",
  "devdoc": {
    "kind": "dev",
    "methods": {},
    "version": 1
  },
  "userdoc": {
    "kind": "user",
    "methods": {},
    "version": 1
  },
  "storageLayout": {
    "storage": [
      {
        "astId": 2258,
        "contract": "contracts/EASOnboarding.sol:EASOnboarding",
        "label": "deployer",
        "offset": 0,
        "slot": "0",
        "type": "t_address"
      },
      {
        "astId": 2263,
        "contract": "contracts/EASOnboarding.sol:EASOnboarding",
        "label": "attestationProfile",
        "offset": 0,
        "slot": "1",
        "type": "t_mapping(t_address,t_struct(AttestationProfile)2252_storage)"
      },
      {
        "astId": 2268,
        "contract": "contracts/EASOnboarding.sol:EASOnboarding",
        "label": "events",
        "offset": 0,
        "slot": "2",
        "type": "t_mapping(t_uint256,t_struct(Event)2243_storage)"
      },
      {
        "astId": 2274,
        "contract": "contracts/EASOnboarding.sol:EASOnboarding",
        "label": "studentEventMap",
        "offset": 0,
        "slot": "3",
        "type": "t_mapping(t_address,t_mapping(t_uint256,t_bool))"
      },
      {
        "astId": 2278,
        "contract": "contracts/EASOnboarding.sol:EASOnboarding",
        "label": "isMentor",
        "offset": 0,
        "slot": "4",
        "type": "t_mapping(t_address,t_bool)"
      },
      {
        "astId": 2281,
        "contract": "contracts/EASOnboarding.sol:EASOnboarding",
        "label": "eventIdCounter",
        "offset": 0,
        "slot": "5",
        "type": "t_uint256"
      }
    ],
    "types": {
      "t_address": {
        "encoding": "inplace",
        "label": "address",
        "numberOfBytes": "20"
      },
      "t_array(t_address)dyn_storage": {
        "base": "t_address",
        "encoding": "dynamic_array",
        "label": "address[]",
        "numberOfBytes": "32"
      },
      "t_array(t_bytes32)dyn_storage": {
        "base": "t_bytes32",
        "encoding": "dynamic_array",
        "label": "bytes32[]",
        "numberOfBytes": "32"
      },
      "t_array(t_uint256)dyn_storage": {
        "base": "t_uint256",
        "encoding": "dynamic_array",
        "label": "uint256[]",
        "numberOfBytes": "32"
      },
      "t_bool": {
        "encoding": "inplace",
        "label": "bool",
        "numberOfBytes": "1"
      },
      "t_bytes32": {
        "encoding": "inplace",
        "label": "bytes32",
        "numberOfBytes": "32"
      },
      "t_mapping(t_address,t_bool)": {
        "encoding": "mapping",
        "key": "t_address",
        "label": "mapping(address => bool)",
        "numberOfBytes": "32",
        "value": "t_bool"
      },
      "t_mapping(t_address,t_mapping(t_uint256,t_bool))": {
        "encoding": "mapping",
        "key": "t_address",
        "label": "mapping(address => mapping(uint256 => bool))",
        "numberOfBytes": "32",
        "value": "t_mapping(t_uint256,t_bool)"
      },
      "t_mapping(t_address,t_struct(AttestationProfile)2252_storage)": {
        "encoding": "mapping",
        "key": "t_address",
        "label": "mapping(address => struct Structs.AttestationProfile)",
        "numberOfBytes": "32",
        "value": "t_struct(AttestationProfile)2252_storage"
      },
      "t_mapping(t_uint256,t_bool)": {
        "encoding": "mapping",
        "key": "t_uint256",
        "label": "mapping(uint256 => bool)",
        "numberOfBytes": "32",
        "value": "t_bool"
      },
      "t_mapping(t_uint256,t_struct(Event)2243_storage)": {
        "encoding": "mapping",
        "key": "t_uint256",
        "label": "mapping(uint256 => struct Structs.Event)",
        "numberOfBytes": "32",
        "value": "t_struct(Event)2243_storage"
      },
      "t_string_storage": {
        "encoding": "bytes",
        "label": "string",
        "numberOfBytes": "32"
      },
      "t_struct(AttestationProfile)2252_storage": {
        "encoding": "inplace",
        "label": "struct Structs.AttestationProfile",
        "members": [
          {
            "astId": 2245,
            "contract": "contracts/EASOnboarding.sol:EASOnboarding",
            "label": "studentLevel",
            "offset": 0,
            "slot": "0",
            "type": "t_uint256"
          },
          {
            "astId": 2248,
            "contract": "contracts/EASOnboarding.sol:EASOnboarding",
            "label": "eventsCompleted",
            "offset": 0,
            "slot": "1",
            "type": "t_array(t_uint256)dyn_storage"
          },
          {
            "astId": 2251,
            "contract": "contracts/EASOnboarding.sol:EASOnboarding",
            "label": "attestations",
            "offset": 0,
            "slot": "2",
            "type": "t_array(t_bytes32)dyn_storage"
          }
        ],
        "numberOfBytes": "96"
      },
      "t_struct(Event)2243_storage": {
        "encoding": "inplace",
        "label": "struct Structs.Event",
        "members": [
          {
            "astId": 2219,
            "contract": "contracts/EASOnboarding.sol:EASOnboarding",
            "label": "typeOf",
            "offset": 0,
            "slot": "0",
            "type": "t_uint8"
          },
          {
            "astId": 2221,
            "contract": "contracts/EASOnboarding.sol:EASOnboarding",
            "label": "eventId",
            "offset": 0,
            "slot": "1",
            "type": "t_uint256"
          },
          {
            "astId": 2223,
            "contract": "contracts/EASOnboarding.sol:EASOnboarding",
            "label": "level",
            "offset": 0,
            "slot": "2",
            "type": "t_uint256"
          },
          {
            "astId": 2225,
            "contract": "contracts/EASOnboarding.sol:EASOnboarding",
            "label": "closingTimestamp",
            "offset": 0,
            "slot": "3",
            "type": "t_uint256"
          },
          {
            "astId": 2227,
            "contract": "contracts/EASOnboarding.sol:EASOnboarding",
            "label": "attendeeCount",
            "offset": 0,
            "slot": "4",
            "type": "t_uint256"
          },
          {
            "astId": 2229,
            "contract": "contracts/EASOnboarding.sol:EASOnboarding",
            "label": "eventName",
            "offset": 0,
            "slot": "5",
            "type": "t_string_storage"
          },
          {
            "astId": 2231,
            "contract": "contracts/EASOnboarding.sol:EASOnboarding",
            "label": "eventDescription",
            "offset": 0,
            "slot": "6",
            "type": "t_string_storage"
          },
          {
            "astId": 2233,
            "contract": "contracts/EASOnboarding.sol:EASOnboarding",
            "label": "mentorName",
            "offset": 0,
            "slot": "7",
            "type": "t_string_storage"
          },
          {
            "astId": 2235,
            "contract": "contracts/EASOnboarding.sol:EASOnboarding",
            "label": "mentorAddress",
            "offset": 0,
            "slot": "8",
            "type": "t_address"
          },
          {
            "astId": 2238,
            "contract": "contracts/EASOnboarding.sol:EASOnboarding",
            "label": "attendees",
            "offset": 0,
            "slot": "9",
            "type": "t_array(t_address)dyn_storage"
          },
          {
            "astId": 2240,
            "contract": "contracts/EASOnboarding.sol:EASOnboarding",
            "label": "isActive",
            "offset": 0,
            "slot": "10",
            "type": "t_bool"
          },
          {
            "astId": 2242,
            "contract": "contracts/EASOnboarding.sol:EASOnboarding",
            "label": "overrideClosingTimestamp",
            "offset": 1,
            "slot": "10",
            "type": "t_bool"
          }
        ],
        "numberOfBytes": "352"
      },
      "t_uint256": {
        "encoding": "inplace",
        "label": "uint256",
        "numberOfBytes": "32"
      },
      "t_uint8": {
        "encoding": "inplace",
        "label": "uint8",
        "numberOfBytes": "1"
      }
    }
  }
}