{
  "address": "0x34358c3016a77A4e5835bd5CF867E0c7785b41A2",
  "abi": [
    {
      "inputs": [],
      "stateMutability": "nonpayable",
      "type": "constructor"
    },
    {
      "anonymous": false,
      "inputs": [
        {
          "indexed": true,
          "internalType": "address",
          "name": "studentAddress",
          "type": "address"
        },
        {
          "indexed": true,
          "internalType": "uint256",
          "name": "eventId",
          "type": "uint256"
        },
        {
          "indexed": false,
          "internalType": "bytes32",
          "name": "attestation",
          "type": "bytes32"
        }
      ],
      "name": "AttestationAdded",
      "type": "event"
    },
    {
      "anonymous": false,
      "inputs": [
        {
          "indexed": true,
          "internalType": "uint256",
          "name": "eventId",
          "type": "uint256"
        },
        {
          "indexed": false,
          "internalType": "string",
          "name": "eventName",
          "type": "string"
        },
        {
          "indexed": true,
          "internalType": "address",
          "name": "mentorAddress",
          "type": "address"
        },
        {
          "indexed": false,
          "internalType": "uint256",
          "name": "closingTimestamp",
          "type": "uint256"
        }
      ],
      "name": "EventCreated",
      "type": "event"
    },
    {
      "anonymous": false,
      "inputs": [
        {
          "indexed": true,
          "internalType": "address",
          "name": "mentorAddress",
          "type": "address"
        }
      ],
      "name": "MentorAdded",
      "type": "event"
    },
    {
      "anonymous": false,
      "inputs": [
        {
          "indexed": true,
          "internalType": "address",
          "name": "mentorAddress",
          "type": "address"
        }
      ],
      "name": "MentorRemoved",
      "type": "event"
    },
    {
      "anonymous": false,
      "inputs": [
        {
          "indexed": true,
          "internalType": "uint256",
          "name": "eventId",
          "type": "uint256"
        },
        {
          "indexed": false,
          "internalType": "bool",
          "name": "status",
          "type": "bool"
        }
      ],
      "name": "OverrideEventFlagToggled",
      "type": "event"
    },
    {
      "inputs": [
        {
          "internalType": "bytes32",
          "name": "_attestation",
          "type": "bytes32"
        },
        {
          "internalType": "address",
          "name": "_studentAddress",
          "type": "address"
        },
        {
          "internalType": "uint256",
          "name": "_eventId",
          "type": "uint256"
        }
      ],
      "name": "addAttestation",
      "outputs": [],
      "stateMutability": "nonpayable",
      "type": "function"
    },
    {
      "inputs": [
        {
          "internalType": "address[]",
          "name": "_newMentors",
          "type": "address[]"
        }
      ],
      "name": "addMentors",
      "outputs": [],
      "stateMutability": "nonpayable",
      "type": "function"
    },
    {
      "inputs": [
        {
          "internalType": "address",
          "name": "",
          "type": "address"
        }
      ],
      "name": "attestationProfile",
      "outputs": [
        {
          "internalType": "uint256",
          "name": "studentLevel",
          "type": "uint256"
        }
      ],
      "stateMutability": "view",
      "type": "function"
    },
    {
      "inputs": [
        {
          "internalType": "uint256",
          "name": "_closingTimestamp",
          "type": "uint256"
        },
        {
          "internalType": "uint256",
          "name": "_level",
          "type": "uint256"
        },
        {
          "internalType": "uint8",
          "name": "_type",
          "type": "uint8"
        },
        {
          "internalType": "string",
          "name": "_eventName",
          "type": "string"
        },
        {
          "internalType": "string",
          "name": "_eventDescription",
          "type": "string"
        },
        {
          "internalType": "string",
          "name": "_mentorName",
          "type": "string"
        },
        {
          "internalType": "string",
          "name": "_badgeUri",
          "type": "string"
        },
        {
          "internalType": "bytes32",
          "name": "_schemaUID",
          "type": "bytes32"
        }
      ],
      "name": "createEvent",
      "outputs": [],
      "stateMutability": "nonpayable",
      "type": "function"
    },
    {
      "inputs": [],
      "name": "eventIdCounter",
      "outputs": [
        {
          "internalType": "uint256",
          "name": "",
          "type": "uint256"
        }
      ],
      "stateMutability": "view",
      "type": "function"
    },
    {
      "inputs": [
        {
          "internalType": "uint256",
          "name": "",
          "type": "uint256"
        }
      ],
      "name": "events",
      "outputs": [
        {
          "internalType": "uint8",
          "name": "typeOf",
          "type": "uint8"
        },
        {
          "internalType": "uint256",
          "name": "eventId",
          "type": "uint256"
        },
        {
          "internalType": "uint256",
          "name": "level",
          "type": "uint256"
        },
        {
          "internalType": "uint256",
          "name": "closingTimestamp",
          "type": "uint256"
        },
        {
          "internalType": "uint256",
          "name": "attendeeCount",
          "type": "uint256"
        },
        {
          "internalType": "string",
          "name": "eventName",
          "type": "string"
        },
        {
          "internalType": "string",
          "name": "eventDescription",
          "type": "string"
        },
        {
          "internalType": "string",
          "name": "mentorName",
          "type": "string"
        },
        {
          "internalType": "string",
          "name": "badgeUri",
          "type": "string"
        },
        {
          "internalType": "address",
          "name": "mentorAddress",
          "type": "address"
        },
        {
          "internalType": "bool",
          "name": "isActive",
          "type": "bool"
        },
        {
          "internalType": "bool",
          "name": "overrideClosingTimestamp",
          "type": "bool"
        },
        {
          "internalType": "bytes32",
          "name": "schemaUID",
          "type": "bytes32"
        }
      ],
      "stateMutability": "view",
      "type": "function"
    },
    {
      "inputs": [],
      "name": "getAllEvents",
      "outputs": [
        {
          "components": [
            {
              "internalType": "uint8",
              "name": "typeOf",
              "type": "uint8"
            },
            {
              "internalType": "uint256",
              "name": "eventId",
              "type": "uint256"
            },
            {
              "internalType": "uint256",
              "name": "level",
              "type": "uint256"
            },
            {
              "internalType": "uint256",
              "name": "closingTimestamp",
              "type": "uint256"
            },
            {
              "internalType": "uint256",
              "name": "attendeeCount",
              "type": "uint256"
            },
            {
              "internalType": "string",
              "name": "eventName",
              "type": "string"
            },
            {
              "internalType": "string",
              "name": "eventDescription",
              "type": "string"
            },
            {
              "internalType": "string",
              "name": "mentorName",
              "type": "string"
            },
            {
              "internalType": "string",
              "name": "badgeUri",
              "type": "string"
            },
            {
              "internalType": "address",
              "name": "mentorAddress",
              "type": "address"
            },
            {
              "internalType": "address[]",
              "name": "attendees",
              "type": "address[]"
            },
            {
              "internalType": "bool",
              "name": "isActive",
              "type": "bool"
            },
            {
              "internalType": "bool",
              "name": "overrideClosingTimestamp",
              "type": "bool"
            },
            {
              "internalType": "bytes32",
              "name": "schemaUID",
              "type": "bytes32"
            }
          ],
          "internalType": "struct Structs.Event[]",
          "name": "",
          "type": "tuple[]"
        }
      ],
      "stateMutability": "view",
      "type": "function"
    },
    {
      "inputs": [
        {
          "internalType": "address",
          "name": "_studentAddress",
          "type": "address"
        }
      ],
      "name": "getAllStudentEventsWithAttestations",
      "outputs": [
        {
          "components": [
            {
              "internalType": "bytes32",
              "name": "attestation",
              "type": "bytes32"
            },
            {
              "internalType": "uint256",
              "name": "eventId",
              "type": "uint256"
            },
            {
              "internalType": "uint256",
              "name": "level",
              "type": "uint256"
            },
            {
              "internalType": "string",
              "name": "eventName",
              "type": "string"
            },
            {
              "internalType": "string",
              "name": "eventDescription",
              "type": "string"
            },
            {
              "internalType": "string",
              "name": "mentorName",
              "type": "string"
            },
            {
              "internalType": "address",
              "name": "mentorAddress",
              "type": "address"
            }
          ],
          "internalType": "struct Structs.metaEvent[]",
          "name": "",
          "type": "tuple[]"
        },
        {
          "internalType": "string[]",
          "name": "",
          "type": "string[]"
        }
      ],
      "stateMutability": "view",
      "type": "function"
    },
    {
      "inputs": [
        {
          "internalType": "uint256",
          "name": "_eventId",
          "type": "uint256"
        },
        {
          "internalType": "uint256",
          "name": "_level",
          "type": "uint256"
        },
        {
          "internalType": "bytes32",
          "name": "_msgHash",
          "type": "bytes32"
        },
        {
          "internalType": "bytes",
          "name": "_signature",
          "type": "bytes"
        }
      ],
      "name": "getAttested",
      "outputs": [
        {
          "internalType": "bool",
          "name": "",
          "type": "bool"
        }
      ],
      "stateMutability": "nonpayable",
      "type": "function"
    },
    {
      "inputs": [
        {
          "internalType": "bytes32",
          "name": "_messageHash",
          "type": "bytes32"
        }
      ],
      "name": "getEthSignedMessageHash",
      "outputs": [
        {
          "internalType": "bytes32",
          "name": "",
          "type": "bytes32"
        }
      ],
      "stateMutability": "pure",
      "type": "function"
    },
    {
      "inputs": [
        {
          "internalType": "address",
          "name": "_studentAddress",
          "type": "address"
        }
      ],
      "name": "getEventsCompleted",
      "outputs": [
        {
          "internalType": "uint256",
          "name": "_studentLevel",
          "type": "uint256"
        },
        {
          "internalType": "uint256[]",
          "name": "",
          "type": "uint256[]"
        },
        {
          "internalType": "bytes32[]",
          "name": "",
          "type": "bytes32[]"
        }
      ],
      "stateMutability": "view",
      "type": "function"
    },
    {
      "inputs": [
        {
          "internalType": "bytes32",
          "name": "_messageHash",
          "type": "bytes32"
        },
        {
          "internalType": "bytes",
          "name": "_signature",
          "type": "bytes"
        }
      ],
      "name": "isVerified",
      "outputs": [
        {
          "internalType": "bool",
          "name": "",
          "type": "bool"
        }
      ],
      "stateMutability": "view",
      "type": "function"
    },
    {
      "inputs": [
        {
          "internalType": "bytes32",
          "name": "_ethSignedMessageHash",
          "type": "bytes32"
        },
        {
          "internalType": "bytes",
          "name": "_signature",
          "type": "bytes"
        }
      ],
      "name": "recoverSigner",
      "outputs": [
        {
          "internalType": "address",
          "name": "",
          "type": "address"
        }
      ],
      "stateMutability": "pure",
      "type": "function"
    },
    {
      "inputs": [
        {
          "internalType": "address[]",
          "name": "_mentors",
          "type": "address[]"
        }
      ],
      "name": "removeMentors",
      "outputs": [],
      "stateMutability": "nonpayable",
      "type": "function"
    },
    {
      "inputs": [
        {
          "internalType": "bytes",
          "name": "sig",
          "type": "bytes"
        }
      ],
      "name": "splitSignature",
      "outputs": [
        {
          "internalType": "uint8",
          "name": "",
          "type": "uint8"
        },
        {
          "internalType": "bytes32",
          "name": "",
          "type": "bytes32"
        },
        {
          "internalType": "bytes32",
          "name": "",
          "type": "bytes32"
        }
      ],
      "stateMutability": "pure",
      "type": "function"
    },
    {
      "inputs": [
        {
          "internalType": "address",
          "name": "",
          "type": "address"
        },
        {
          "internalType": "uint256",
          "name": "",
          "type": "uint256"
        }
      ],
      "name": "studentEventMap",
      "outputs": [
        {
          "internalType": "bytes32",
          "name": "attestation",
          "type": "bytes32"
        },
        {
          "internalType": "uint256",
          "name": "eventId",
          "type": "uint256"
        },
        {
          "internalType": "uint256",
          "name": "level",
          "type": "uint256"
        },
        {
          "internalType": "string",
          "name": "eventName",
          "type": "string"
        },
        {
          "internalType": "string",
          "name": "eventDescription",
          "type": "string"
        },
        {
          "internalType": "string",
          "name": "mentorName",
          "type": "string"
        },
        {
          "internalType": "address",
          "name": "mentorAddress",
          "type": "address"
        }
      ],
      "stateMutability": "view",
      "type": "function"
    },
    {
      "inputs": [
        {
          "internalType": "uint256",
          "name": "_eventId",
          "type": "uint256"
        },
        {
          "internalType": "bool",
          "name": "_res",
          "type": "bool"
        }
      ],
      "name": "toggleOverrideEventFlag",
      "outputs": [],
      "stateMutability": "nonpayable",
      "type": "function"
    }
  ],
  "transactionHash": "0xeb5df70ce18b76fdd6662d1c085459b69fd43f315a57b43c94f6e6bd317fcd94",
  "args": [],
  "numDeployments": 3,
  "solcInputHash": "b3c56808d8b4f550964da68dd954f077",
  "bytecode": "0x6080604052600160055534801561001557600080fd5b50600080546001600160a01b031916331790556128f4806100376000396000f3fe608060405234801561001057600080fd5b506004361061010b5760003560e01c8063a264efce116100a2578063e01a0ebe11610071578063e01a0ebe1461029e578063e7ce9ba3146102a7578063ed0568af146102ba578063fa540801146102db578063fed6bf28146102ee57600080fd5b8063a264efce14610231578063a7bb580314610244578063c27a500d14610276578063c3816c131461028b57600080fd5b80636dff9131116100de5780636dff9131146101935780637fcacc0e146101c157806391ea6364146101e457806397aba7f91461020657600080fd5b8063030666c51461011057806306648651146101255780630b791430146101385780635c78442c1461016d575b600080fd5b61012361011e366004611d85565b610301565b005b610123610133366004611e77565b610564565b61014b610146366004611eac565b6106a3565b6040516101649d9c9b9a99989796959493929190611f0b565b60405180910390f35b61018061017b366004611fbc565b61093f565b6040516101649796959493929190611fe6565b6101b36101a136600461204e565b60016020526000908152604090205481565b604051908152602001610164565b6101d46101cf366004612070565b610b25565b6040519015158152602001610164565b6101f76101f236600461204e565b610bac565b604051610164939291906120b7565b610219610214366004612070565b610c82565b6040516001600160a01b039091168152602001610164565b61012361023f36600461213d565b610d01565b610257610252366004612172565b610daf565b6040805160ff9094168452602084019290925290820152606001610164565b61027e610e21565b60405161016491906121f3565b6101d461029936600461234f565b61128b565b6101b360055481565b6101236102b53660046123a9565b611520565b6102cd6102c836600461204e565b611685565b6040516101649291906124ab565b6101b36102e9366004611eac565b611b55565b6101236102fc3660046123a9565b611ba8565b3360008181526004602052604090205460ff168061032c57506000546001600160a01b038281169116145b6103515760405162461bcd60e51b815260040161034890612592565b60405180910390fd5b4289116103b15760405162461bcd60e51b815260206004820152602860248201527f436c6f73696e672074696d657374616d702063616e6e6f7420626520696e20746044820152673432903830b9ba1760c11b6064820152608401610348565b600580546000908152600360208190526040808320805460ff191660ff8d1617905583548084528184206001818101929092556002018d9055845484528184209092018d90558354835280832060040191909155825482529020016104168782612662565b5060055460009081526003602052604090206006016104358682612662565b5060055460009081526003602052604090206007016104548582612662565b5060055460009081526003602052604090206008016104738482612662565b506005805460009081526003602090815260408083206009018054336001600160a01b0319918216811790925585548552828520600a018054600181810183559187529486209094018054909116909117905583548352808320600b908101805460ff191690931790925583548352808320909101805461ff0019169055825482528120600c018490558154919061050a83612738565b9091555050600554339061052090600190612751565b7fad389ee79ceb9d0e3a1739d75d42c8727ca5946b701beaa8ef2801b04d7d7a57888c604051610551929190612764565b60405180910390a3505050505050505050565b6000546001600160a01b0316331461057b57600080fd5b6001600160a01b0382166000908152600260209081526040808320848452909152902054156105bc5760405162461bcd60e51b815260040161034890612786565b60008181526003602090815260408220600a8101805460018101825590845291832090910180546001600160a01b0319166001600160a01b03861617905582825260040180549161060c83612738565b90915550506001600160a01b038216600081815260016020818152604080842080840180548086018255908652838620018790556002908101805494850181558552828520909301889055848452918152818320858452815291819020869055518581528392917ffd78fe1c1010dd57ea4476d0eb6d5bd32e62d719166bf0974f538b76dbf9fdb2910160405180910390a3505050565b600360208190526000918252604090912080546001820154600283015493830154600484015460058501805460ff9095169693959394929391926106e6906125e0565b80601f0160208091040260200160405190810160405280929190818152602001828054610712906125e0565b801561075f5780601f106107345761010080835404028352916020019161075f565b820191906000526020600020905b81548152906001019060200180831161074257829003601f168201915b505050505090806006018054610774906125e0565b80601f01602080910402602001604051908101604052809291908181526020018280546107a0906125e0565b80156107ed5780601f106107c2576101008083540402835291602001916107ed565b820191906000526020600020905b8154815290600101906020018083116107d057829003601f168201915b505050505090806007018054610802906125e0565b80601f016020809104026020016040519081016040528092919081815260200182805461082e906125e0565b801561087b5780601f106108505761010080835404028352916020019161087b565b820191906000526020600020905b81548152906001019060200180831161085e57829003601f168201915b505050505090806008018054610890906125e0565b80601f01602080910402602001604051908101604052809291908181526020018280546108bc906125e0565b80156109095780601f106108de57610100808354040283529160200191610909565b820191906000526020600020905b8154815290600101906020018083116108ec57829003601f168201915b5050506009840154600b850154600c9095015493946001600160a01b039091169360ff808316945061010090920490911691508d565b6002602081815260009384526040808520909152918352912080546001820154928201546003830180549294939192610977906125e0565b80601f01602080910402602001604051908101604052809291908181526020018280546109a3906125e0565b80156109f05780601f106109c5576101008083540402835291602001916109f0565b820191906000526020600020905b8154815290600101906020018083116109d357829003601f168201915b505050505090806004018054610a05906125e0565b80601f0160208091040260200160405190810160405280929190818152602001828054610a31906125e0565b8015610a7e5780601f10610a5357610100808354040283529160200191610a7e565b820191906000526020600020905b815481529060010190602001808311610a6157829003601f168201915b505050505090806005018054610a93906125e0565b80601f0160208091040260200160405190810160405280929190818152602001828054610abf906125e0565b8015610b0c5780601f10610ae157610100808354040283529160200191610b0c565b820191906000526020600020905b815481529060010190602001808311610aef57829003601f168201915b505050600690930154919250506001600160a01b031687565b600080610b3184611b55565b90506000610b3f8285610c82565b6000549091506001600160a01b03808316911614610b9f5760405162461bcd60e51b815260206004820152601a60248201527f556e617574686f72697a656420436f6e74726163742063616c6c0000000000006044820152606401610348565b6001925050505b92915050565b6001600160a01b03811660009081526001602081815260408084208054938101805483518186028101860190945280845260609586959094929360020192918491830182828015610c1c57602002820191906000526020600020905b815481526020019060010190808311610c08575b5050505050915080805480602002602001604051908101604052809291908181526020018280548015610c6e57602002820191906000526020600020905b815481526020019060010190808311610c5a575b505050505090509250925092509193909250565b600080600080610c9185610daf565b6040805160008152602081018083528b905260ff8516918101919091526060810183905260808101829052929550909350915060019060a0016020604051602081039080840390855afa158015610cec573d6000803e3d6000fd5b5050604051601f190151979650505050505050565b3360008181526004602052604090205460ff1680610d2c57506000546001600160a01b038281169116145b610d485760405162461bcd60e51b815260040161034890612592565b60008381526003602052604090819020600b0180548415156101000261ff00199091161790555183907f255b22f81f52ca696c92545ed4e776709442e0c2f0d5b053f1bb5e73729826a990610da290851515815260200190565b60405180910390a2505050565b60008060008351604114610e055760405162461bcd60e51b815260206004820152601860248201527f696e76616c6964207369676e6174757265206c656e67746800000000000000006044820152606401610348565b5050506020810151604082015160609092015160001a92909190565b606060006001600554610e349190612751565b67ffffffffffffffff811115610e4c57610e4c611cce565b604051908082528060200260200182016040528015610f0257816020015b610eef604051806101c00160405280600060ff168152602001600081526020016000815260200160008152602001600081526020016060815260200160608152602001606081526020016060815260200160006001600160a01b0316815260200160608152602001600015158152602001600015158152602001600080191681525090565b815260200190600190039081610e6a5790505b50905060015b6005548110156112855760008181526003602081815260409283902083516101c081018552815460ff1681526001820154928101929092526002810154938201939093529082015460608201526004820154608082015260058201805491929160a084019190610f77906125e0565b80601f0160208091040260200160405190810160405280929190818152602001828054610fa3906125e0565b8015610ff05780601f10610fc557610100808354040283529160200191610ff0565b820191906000526020600020905b815481529060010190602001808311610fd357829003601f168201915b50505050508152602001600682018054611009906125e0565b80601f0160208091040260200160405190810160405280929190818152602001828054611035906125e0565b80156110825780601f1061105757610100808354040283529160200191611082565b820191906000526020600020905b81548152906001019060200180831161106557829003601f168201915b5050505050815260200160078201805461109b906125e0565b80601f01602080910402602001604051908101604052809291908181526020018280546110c7906125e0565b80156111145780601f106110e957610100808354040283529160200191611114565b820191906000526020600020905b8154815290600101906020018083116110f757829003601f168201915b5050505050815260200160088201805461112d906125e0565b80601f0160208091040260200160405190810160405280929190818152602001828054611159906125e0565b80156111a65780601f1061117b576101008083540402835291602001916111a6565b820191906000526020600020905b81548152906001019060200180831161118957829003601f168201915b505050918352505060098201546001600160a01b0316602080830191909152600a83018054604080518285028101850182528281529401939283018282801561121857602002820191906000526020600020905b81546001600160a01b031681526001909101906020018083116111fa575b5050509183525050600b82015460ff808216151560208401526101009091041615156040820152600c9091015460609091015282611257600184612751565b81518110611267576112676127cd565b6020026020010181905250808061127d90612738565b915050610f08565b50919050565b336000908152600260209081526040808320878452909152812054156112c35760405162461bcd60e51b815260040161034890612786565b6112cd8383610b25565b61130e5760405162461bcd60e51b8152602060048201526012602482015271496e76616c69642054786e20536f7572636560701b6044820152606401610348565b6000858152600360205260409020600b015460ff168061134557506000858152600360205260409020600b0154610100900460ff16155b6113915760405162461bcd60e51b815260206004820152601960248201527f4576656e74206973206e6f206c6f6e67657220616374697665000000000000006044820152606401610348565b600085815260036020819052604090912001544210806113c857506000858152600360205260409020600b0154610100900460ff16155b6114145760405162461bcd60e51b815260206004820152601f60248201527f4576656e74206973207061737420636c6f73696e672074696d657374616d70006044820152606401610348565b336000908152600160208181526040808420889055600282528084208985528083528185209384018a905560038084529190942093909152019061145b90600501826127e3565b506000858152600360209081526040808320338452600283528184208985529092529091206004019061149190600601826127e3565b50600085815260036020908152604080832033845260028352818420898552909252909120600501906114c790600701826127e3565b5050506000838152600360209081526040808320600901543384526002808452828520978552969092529091206006810180546001600160a01b0319166001600160a01b03909316929092179091559092015550600190565b6000546001600160a01b0316331461157a5760405162461bcd60e51b815260206004820181905260248201527f4f6e6c79206465706c6f7965722063616e2072656d6f7665206d656e746f72736044820152606401610348565b60005b8151811015611681576004600083838151811061159c5761159c6127cd565b6020908102919091018101516001600160a01b031682528101919091526040016000205460ff161561166f576000600460008484815181106115e0576115e06127cd565b60200260200101516001600160a01b03166001600160a01b0316815260200190815260200160002060006101000a81548160ff021916908315150217905550818181518110611631576116316127cd565b60200260200101516001600160a01b03167f8a89d1bce5d2a5b9324b1e700a7bb2d8ed55b236f9ba2c17a6917a0597fc404160405160405180910390a25b8061167981612738565b91505061157d565b5050565b6001600160a01b038116600090815260016020819052604082200154606091829167ffffffffffffffff8111156116be576116be611cce565b6040519080825280602002602001820160405280156116f157816020015b60608152602001906001900390816116dc5790505b506001600160a01b0385166000908152600160208190526040822001549192509067ffffffffffffffff81111561172a5761172a611cce565b6040519080825280602002602001820160405280156117a757816020015b6117946040518060e0016040528060008019168152602001600081526020016000815260200160608152602001606081526020016060815260200160006001600160a01b031681525090565b8152602001906001900390816117485790505b50905060005b6001600160a01b03861660009081526001602081905260409091200154811015611b4b576001600160a01b038616600090815260026020908152604080832060019283905290832090910180549192918490811061180d5761180d6127cd565b906000526020600020015481526020019081526020016000206040518060e001604052908160008201548152602001600182015481526020016002820154815260200160038201805461185f906125e0565b80601f016020809104026020016040519081016040528092919081815260200182805461188b906125e0565b80156118d85780601f106118ad576101008083540402835291602001916118d8565b820191906000526020600020905b8154815290600101906020018083116118bb57829003601f168201915b505050505081526020016004820180546118f1906125e0565b80601f016020809104026020016040519081016040528092919081815260200182805461191d906125e0565b801561196a5780601f1061193f5761010080835404028352916020019161196a565b820191906000526020600020905b81548152906001019060200180831161194d57829003601f168201915b50505050508152602001600582018054611983906125e0565b80601f01602080910402602001604051908101604052809291908181526020018280546119af906125e0565b80156119fc5780601f106119d1576101008083540402835291602001916119fc565b820191906000526020600020905b8154815290600101906020018083116119df57829003601f168201915b5050509183525050600691909101546001600160a01b03166020909101528251839083908110611a2e57611a2e6127cd565b60200260200101819052506003600060016000896001600160a01b03166001600160a01b031681526020019081526020016000206001018381548110611a7657611a766127cd565b906000526020600020015481526020019081526020016000206008018054611a9d906125e0565b80601f0160208091040260200160405190810160405280929190818152602001828054611ac9906125e0565b8015611b165780601f10611aeb57610100808354040283529160200191611b16565b820191906000526020600020905b815481529060010190602001808311611af957829003601f168201915b5050505050838281518110611b2d57611b2d6127cd565b60200260200101819052508080611b4390612738565b9150506117ad565b5094909350915050565b6040517f19457468657265756d205369676e6564204d6573736167653a0a3332000000006020820152603c8101829052600090605c01604051602081830303815290604052805190602001209050919050565b3360008181526004602052604090205460ff1680611bd357506000546001600160a01b038281169116145b611bef5760405162461bcd60e51b815260040161034890612592565b60005b8251811015611cb357600160046000858481518110611c1357611c136127cd565b60200260200101516001600160a01b03166001600160a01b0316815260200190815260200160002060006101000a81548160ff021916908315150217905550828181518110611c6457611c646127cd565b60200260200101516001600160a01b03167f4df3f3208bfbe9457b85364190a65e66a3e7a7cded1cf16b59627bc99bad5db960405160405180910390a280611cab81612738565b915050611bf2565b505050565b803560ff81168114611cc957600080fd5b919050565b634e487b7160e01b600052604160045260246000fd5b604051601f8201601f1916810167ffffffffffffffff81118282101715611d0d57611d0d611cce565b604052919050565b600082601f830112611d2657600080fd5b813567ffffffffffffffff811115611d4057611d40611cce565b611d53601f8201601f1916602001611ce4565b818152846020838601011115611d6857600080fd5b816020850160208301376000918101602001919091529392505050565b600080600080600080600080610100898b031215611da257600080fd5b8835975060208901359650611db960408a01611cb8565b9550606089013567ffffffffffffffff80821115611dd657600080fd5b611de28c838d01611d15565b965060808b0135915080821115611df857600080fd5b611e048c838d01611d15565b955060a08b0135915080821115611e1a57600080fd5b611e268c838d01611d15565b945060c08b0135915080821115611e3c57600080fd5b50611e498b828c01611d15565b92505060e089013590509295985092959890939650565b80356001600160a01b0381168114611cc957600080fd5b600080600060608486031215611e8c57600080fd5b83359250611e9c60208501611e60565b9150604084013590509250925092565b600060208284031215611ebe57600080fd5b5035919050565b6000815180845260005b81811015611eeb57602081850181015186830182015201611ecf565b506000602082860101526020601f19601f83011685010191505092915050565b60ff8e1681528c60208201528b60408201528a60608201528960808201526101a060a08201526000611f416101a083018b611ec5565b82810360c0840152611f53818b611ec5565b905082810360e0840152611f67818a611ec5565b9050828103610100840152611f7c8189611ec5565b915050611f956101208301876001600160a01b03169052565b931515610140820152911515610160830152610180909101529a9950505050505050505050565b60008060408385031215611fcf57600080fd5b611fd883611e60565b946020939093013593505050565b87815286602082015285604082015260e06060820152600061200b60e0830187611ec5565b828103608084015261201d8187611ec5565b905082810360a08401526120318186611ec5565b91505060018060a01b03831660c083015298975050505050505050565b60006020828403121561206057600080fd5b61206982611e60565b9392505050565b6000806040838503121561208357600080fd5b82359150602083013567ffffffffffffffff8111156120a157600080fd5b6120ad85828601611d15565b9150509250929050565b6000606082018583526020606081850152818651808452608086019150828801935060005b818110156120f8578451835293830193918301916001016120dc565b50508481036040860152855180825290820192508186019060005b8181101561212f57825185529383019391830191600101612113565b509298975050505050505050565b6000806040838503121561215057600080fd5b823591506020830135801515811461216757600080fd5b809150509250929050565b60006020828403121561218457600080fd5b813567ffffffffffffffff81111561219b57600080fd5b6121a784828501611d15565b949350505050565b600081518084526020808501945080840160005b838110156121e85781516001600160a01b0316875295820195908201906001016121c3565b509495945050505050565b60006020808301818452808551808352604092508286019150828160051b87010184880160005b8381101561234157888303603f190185528151805160ff1684526101c081890151858a01528782015188860152606080830151908601526080808301519086015260a08083015181870183905261227383880182611ec5565b9250505060c0808301518683038288015261228e8382611ec5565b9250505060e080830151868303828801526122a98382611ec5565b9250505061010080830151868303828801526122c58382611ec5565b92505050610120808301516122e4828801826001600160a01b03169052565b505061014080830151868303828801526122fe83826121af565b92505050610160808301516123168288018215159052565b5050610180828101511515908601526101a0918201519190940152938601939086019060010161221a565b509098975050505050505050565b6000806000806080858703121561236557600080fd5b843593506020850135925060408501359150606085013567ffffffffffffffff81111561239157600080fd5b61239d87828801611d15565b91505092959194509250565b600060208083850312156123bc57600080fd5b823567ffffffffffffffff808211156123d457600080fd5b818501915085601f8301126123e857600080fd5b8135818111156123fa576123fa611cce565b8060051b915061240b848301611ce4565b818152918301840191848101908884111561242557600080fd5b938501935b8385101561244a5761243b85611e60565b8252938501939085019061242a565b98975050505050505050565b600081518084526020808501808196508360051b8101915082860160005b8581101561249e57828403895261248c848351611ec5565b98850198935090840190600101612474565b5091979650505050505050565b60006040808301818452808651808352606092508286019150828160051b8701016020808a0160005b8481101561257257605f198a8503018652815160e0815186528482015185870152898201518a87015288820151818a88015261251282880182611ec5565b9150506080808301518783038289015261252c8382611ec5565b9250505060a080830151878303828901526125478382611ec5565b60c0948501516001600160a01b031698909401979097525050958301959350908201906001016124d4565b5050878203908801526125858189612456565b9998505050505050505050565b6020808252602e908201527f4f6e6c792073656c6563746564206d656e746f7220616464726573736573206360408201526d30b71031b932b0ba329038bab4bd60911b606082015260800190565b600181811c908216806125f457607f821691505b60208210810361128557634e487b7160e01b600052602260045260246000fd5b601f821115611cb357600081815260208120601f850160051c8101602086101561263b5750805b601f850160051c820191505b8181101561265a57828155600101612647565b505050505050565b815167ffffffffffffffff81111561267c5761267c611cce565b6126908161268a84546125e0565b84612614565b602080601f8311600181146126c557600084156126ad5750858301515b600019600386901b1c1916600185901b17855561265a565b600085815260208120601f198616915b828110156126f4578886015182559484019460019091019084016126d5565b50858210156127125787850151600019600388901b60f8161c191681555b5050505050600190811b01905550565b634e487b7160e01b600052601160045260246000fd5b60006001820161274a5761274a612722565b5060010190565b81810381811115610ba657610ba6612722565b6040815260006127776040830185611ec5565b90508260208301529392505050565b60208082526027908201527f53747564656e7420616c726561647920617474657374656420666f72207468696040820152661cc8195d995b9d60ca1b606082015260800190565b634e487b7160e01b600052603260045260246000fd5b8181036127ee575050565b6127f882546125e0565b67ffffffffffffffff81111561281057612810611cce565b61281e8161268a84546125e0565b6000601f821160018114612852576000831561283a5750848201545b600019600385901b1c1916600184901b1784556128b7565b600085815260209020601f19841690600086815260209020845b8381101561288c578286015482556001958601959091019060200161286c565b50858310156128aa5781850154600019600388901b60f8161c191681555b50505060018360011b0184555b505050505056fea26469706673582212206add46f8d12adb9de6422a14ee2887614c5720c74d5c83f6fee653756e02a84764736f6c63430008140033",
  "devdoc": {
    "kind": "dev",
    "methods": {},
    "version": 1
  },
  "userdoc": {
    "kind": "user",
    "methods": {},
    "version": 1
  },
  "storageLayout": {
    "storage": [
      {
        "astId": 723,
        "contract": "contracts/EASOnboarding.sol:EASOnboarding",
        "label": "deployer",
        "offset": 0,
        "slot": "0",
        "type": "t_address"
      },
      {
        "astId": 728,
        "contract": "contracts/EASOnboarding.sol:EASOnboarding",
        "label": "attestationProfile",
        "offset": 0,
        "slot": "1",
        "type": "t_mapping(t_address,t_struct(AttestationProfile)701_storage)"
      },
      {
        "astId": 735,
        "contract": "contracts/EASOnboarding.sol:EASOnboarding",
        "label": "studentEventMap",
        "offset": 0,
        "slot": "2",
        "type": "t_mapping(t_address,t_mapping(t_uint256,t_struct(metaEvent)716_storage))"
      },
      {
        "astId": 740,
        "contract": "contracts/EASOnboarding.sol:EASOnboarding",
        "label": "events",
        "offset": 0,
        "slot": "3",
        "type": "t_mapping(t_uint256,t_struct(Event)692_storage)"
      },
      {
        "astId": 744,
        "contract": "contracts/EASOnboarding.sol:EASOnboarding",
        "label": "isMentor",
        "offset": 0,
        "slot": "4",
        "type": "t_mapping(t_address,t_bool)"
      },
      {
        "astId": 747,
        "contract": "contracts/EASOnboarding.sol:EASOnboarding",
        "label": "eventIdCounter",
        "offset": 0,
        "slot": "5",
        "type": "t_uint256"
      }
    ],
    "types": {
      "t_address": {
        "encoding": "inplace",
        "label": "address",
        "numberOfBytes": "20"
      },
      "t_array(t_address)dyn_storage": {
        "base": "t_address",
        "encoding": "dynamic_array",
        "label": "address[]",
        "numberOfBytes": "32"
      },
      "t_array(t_bytes32)dyn_storage": {
        "base": "t_bytes32",
        "encoding": "dynamic_array",
        "label": "bytes32[]",
        "numberOfBytes": "32"
      },
      "t_array(t_uint256)dyn_storage": {
        "base": "t_uint256",
        "encoding": "dynamic_array",
        "label": "uint256[]",
        "numberOfBytes": "32"
      },
      "t_bool": {
        "encoding": "inplace",
        "label": "bool",
        "numberOfBytes": "1"
      },
      "t_bytes32": {
        "encoding": "inplace",
        "label": "bytes32",
        "numberOfBytes": "32"
      },
      "t_mapping(t_address,t_bool)": {
        "encoding": "mapping",
        "key": "t_address",
        "label": "mapping(address => bool)",
        "numberOfBytes": "32",
        "value": "t_bool"
      },
      "t_mapping(t_address,t_mapping(t_uint256,t_struct(metaEvent)716_storage))": {
        "encoding": "mapping",
        "key": "t_address",
        "label": "mapping(address => mapping(uint256 => struct Structs.metaEvent))",
        "numberOfBytes": "32",
        "value": "t_mapping(t_uint256,t_struct(metaEvent)716_storage)"
      },
      "t_mapping(t_address,t_struct(AttestationProfile)701_storage)": {
        "encoding": "mapping",
        "key": "t_address",
        "label": "mapping(address => struct Structs.AttestationProfile)",
        "numberOfBytes": "32",
        "value": "t_struct(AttestationProfile)701_storage"
      },
      "t_mapping(t_uint256,t_struct(Event)692_storage)": {
        "encoding": "mapping",
        "key": "t_uint256",
        "label": "mapping(uint256 => struct Structs.Event)",
        "numberOfBytes": "32",
        "value": "t_struct(Event)692_storage"
      },
      "t_mapping(t_uint256,t_struct(metaEvent)716_storage)": {
        "encoding": "mapping",
        "key": "t_uint256",
        "label": "mapping(uint256 => struct Structs.metaEvent)",
        "numberOfBytes": "32",
        "value": "t_struct(metaEvent)716_storage"
      },
      "t_string_storage": {
        "encoding": "bytes",
        "label": "string",
        "numberOfBytes": "32"
      },
      "t_struct(AttestationProfile)701_storage": {
        "encoding": "inplace",
        "label": "struct Structs.AttestationProfile",
        "members": [
          {
            "astId": 694,
            "contract": "contracts/EASOnboarding.sol:EASOnboarding",
            "label": "studentLevel",
            "offset": 0,
            "slot": "0",
            "type": "t_uint256"
          },
          {
            "astId": 697,
            "contract": "contracts/EASOnboarding.sol:EASOnboarding",
            "label": "eventsCompleted",
            "offset": 0,
            "slot": "1",
            "type": "t_array(t_uint256)dyn_storage"
          },
          {
            "astId": 700,
            "contract": "contracts/EASOnboarding.sol:EASOnboarding",
            "label": "attestations",
            "offset": 0,
            "slot": "2",
            "type": "t_array(t_bytes32)dyn_storage"
          }
        ],
        "numberOfBytes": "96"
      },
      "t_struct(Event)692_storage": {
        "encoding": "inplace",
        "label": "struct Structs.Event",
        "members": [
          {
            "astId": 664,
            "contract": "contracts/EASOnboarding.sol:EASOnboarding",
            "label": "typeOf",
            "offset": 0,
            "slot": "0",
            "type": "t_uint8"
          },
          {
            "astId": 666,
            "contract": "contracts/EASOnboarding.sol:EASOnboarding",
            "label": "eventId",
            "offset": 0,
            "slot": "1",
            "type": "t_uint256"
          },
          {
            "astId": 668,
            "contract": "contracts/EASOnboarding.sol:EASOnboarding",
            "label": "level",
            "offset": 0,
            "slot": "2",
            "type": "t_uint256"
          },
          {
            "astId": 670,
            "contract": "contracts/EASOnboarding.sol:EASOnboarding",
            "label": "closingTimestamp",
            "offset": 0,
            "slot": "3",
            "type": "t_uint256"
          },
          {
            "astId": 672,
            "contract": "contracts/EASOnboarding.sol:EASOnboarding",
            "label": "attendeeCount",
            "offset": 0,
            "slot": "4",
            "type": "t_uint256"
          },
          {
            "astId": 674,
            "contract": "contracts/EASOnboarding.sol:EASOnboarding",
            "label": "eventName",
            "offset": 0,
            "slot": "5",
            "type": "t_string_storage"
          },
          {
            "astId": 676,
            "contract": "contracts/EASOnboarding.sol:EASOnboarding",
            "label": "eventDescription",
            "offset": 0,
            "slot": "6",
            "type": "t_string_storage"
          },
          {
            "astId": 678,
            "contract": "contracts/EASOnboarding.sol:EASOnboarding",
            "label": "mentorName",
            "offset": 0,
            "slot": "7",
            "type": "t_string_storage"
          },
          {
            "astId": 680,
            "contract": "contracts/EASOnboarding.sol:EASOnboarding",
            "label": "badgeUri",
            "offset": 0,
            "slot": "8",
            "type": "t_string_storage"
          },
          {
            "astId": 682,
            "contract": "contracts/EASOnboarding.sol:EASOnboarding",
            "label": "mentorAddress",
            "offset": 0,
            "slot": "9",
            "type": "t_address"
          },
          {
            "astId": 685,
            "contract": "contracts/EASOnboarding.sol:EASOnboarding",
            "label": "attendees",
            "offset": 0,
            "slot": "10",
            "type": "t_array(t_address)dyn_storage"
          },
          {
            "astId": 687,
            "contract": "contracts/EASOnboarding.sol:EASOnboarding",
            "label": "isActive",
            "offset": 0,
            "slot": "11",
            "type": "t_bool"
          },
          {
            "astId": 689,
            "contract": "contracts/EASOnboarding.sol:EASOnboarding",
            "label": "overrideClosingTimestamp",
            "offset": 1,
            "slot": "11",
            "type": "t_bool"
          },
          {
            "astId": 691,
            "contract": "contracts/EASOnboarding.sol:EASOnboarding",
            "label": "schemaUID",
            "offset": 0,
            "slot": "12",
            "type": "t_bytes32"
          }
        ],
        "numberOfBytes": "416"
      },
      "t_struct(metaEvent)716_storage": {
        "encoding": "inplace",
        "label": "struct Structs.metaEvent",
        "members": [
          {
            "astId": 703,
            "contract": "contracts/EASOnboarding.sol:EASOnboarding",
            "label": "attestation",
            "offset": 0,
            "slot": "0",
            "type": "t_bytes32"
          },
          {
            "astId": 705,
            "contract": "contracts/EASOnboarding.sol:EASOnboarding",
            "label": "eventId",
            "offset": 0,
            "slot": "1",
            "type": "t_uint256"
          },
          {
            "astId": 707,
            "contract": "contracts/EASOnboarding.sol:EASOnboarding",
            "label": "level",
            "offset": 0,
            "slot": "2",
            "type": "t_uint256"
          },
          {
            "astId": 709,
            "contract": "contracts/EASOnboarding.sol:EASOnboarding",
            "label": "eventName",
            "offset": 0,
            "slot": "3",
            "type": "t_string_storage"
          },
          {
            "astId": 711,
            "contract": "contracts/EASOnboarding.sol:EASOnboarding",
            "label": "eventDescription",
            "offset": 0,
            "slot": "4",
            "type": "t_string_storage"
          },
          {
            "astId": 713,
            "contract": "contracts/EASOnboarding.sol:EASOnboarding",
            "label": "mentorName",
            "offset": 0,
            "slot": "5",
            "type": "t_string_storage"
          },
          {
            "astId": 715,
            "contract": "contracts/EASOnboarding.sol:EASOnboarding",
            "label": "mentorAddress",
            "offset": 0,
            "slot": "6",
            "type": "t_address"
          }
        ],
        "numberOfBytes": "224"
      },
      "t_uint256": {
        "encoding": "inplace",
        "label": "uint256",
        "numberOfBytes": "32"
      },
      "t_uint8": {
        "encoding": "inplace",
        "label": "uint8",
        "numberOfBytes": "1"
      }
    }
  }
}