{
  "address": "0x0F6E9aAF3a32E607b874d089D2322d8e78a567CB",
  "abi": [
    {
      "inputs": [],
      "stateMutability": "nonpayable",
      "type": "constructor"
    },
    {
      "inputs": [
        {
          "internalType": "bytes32",
          "name": "_attestation",
          "type": "bytes32"
        },
        {
          "internalType": "address",
          "name": "_studentAddress",
          "type": "address"
        },
        {
          "internalType": "uint256",
          "name": "_eventId",
          "type": "uint256"
        }
      ],
      "name": "addAttestation",
      "outputs": [],
      "stateMutability": "nonpayable",
      "type": "function"
    },
    {
      "inputs": [
        {
          "internalType": "address[]",
          "name": "_newMentors",
          "type": "address[]"
        }
      ],
      "name": "addMentors",
      "outputs": [],
      "stateMutability": "nonpayable",
      "type": "function"
    },
    {
      "inputs": [
        {
          "internalType": "address",
          "name": "",
          "type": "address"
        }
      ],
      "name": "attestationProfile",
      "outputs": [
        {
          "internalType": "uint256",
          "name": "studentLevel",
          "type": "uint256"
        }
      ],
      "stateMutability": "view",
      "type": "function"
    },
    {
      "inputs": [
        {
          "internalType": "uint256",
          "name": "_closingTimestamp",
          "type": "uint256"
        },
        {
          "internalType": "uint256",
          "name": "_level",
          "type": "uint256"
        },
        {
          "internalType": "uint8",
          "name": "_type",
          "type": "uint8"
        },
        {
          "internalType": "string",
          "name": "_eventName",
          "type": "string"
        },
        {
          "internalType": "string",
          "name": "_eventDescription",
          "type": "string"
        },
        {
          "internalType": "string",
          "name": "_mentorName",
          "type": "string"
        }
      ],
      "name": "createEvent",
      "outputs": [],
      "stateMutability": "nonpayable",
      "type": "function"
    },
    {
      "inputs": [],
      "name": "eventIdCounter",
      "outputs": [
        {
          "internalType": "uint256",
          "name": "",
          "type": "uint256"
        }
      ],
      "stateMutability": "view",
      "type": "function"
    },
    {
      "inputs": [
        {
          "internalType": "uint256",
          "name": "",
          "type": "uint256"
        }
      ],
      "name": "events",
      "outputs": [
        {
          "internalType": "uint8",
          "name": "typeOf",
          "type": "uint8"
        },
        {
          "internalType": "uint256",
          "name": "eventId",
          "type": "uint256"
        },
        {
          "internalType": "uint256",
          "name": "level",
          "type": "uint256"
        },
        {
          "internalType": "uint256",
          "name": "closingTimestamp",
          "type": "uint256"
        },
        {
          "internalType": "uint256",
          "name": "attendeeCount",
          "type": "uint256"
        },
        {
          "internalType": "string",
          "name": "eventName",
          "type": "string"
        },
        {
          "internalType": "string",
          "name": "eventDescription",
          "type": "string"
        },
        {
          "internalType": "string",
          "name": "mentorName",
          "type": "string"
        },
        {
          "internalType": "address",
          "name": "mentorAddress",
          "type": "address"
        },
        {
          "internalType": "bool",
          "name": "isActive",
          "type": "bool"
        },
        {
          "internalType": "bool",
          "name": "overrideClosingTimestamp",
          "type": "bool"
        }
      ],
      "stateMutability": "view",
      "type": "function"
    },
    {
      "inputs": [],
      "name": "getAllEvents",
      "outputs": [
        {
          "components": [
            {
              "internalType": "uint8",
              "name": "typeOf",
              "type": "uint8"
            },
            {
              "internalType": "uint256",
              "name": "eventId",
              "type": "uint256"
            },
            {
              "internalType": "uint256",
              "name": "level",
              "type": "uint256"
            },
            {
              "internalType": "uint256",
              "name": "closingTimestamp",
              "type": "uint256"
            },
            {
              "internalType": "uint256",
              "name": "attendeeCount",
              "type": "uint256"
            },
            {
              "internalType": "string",
              "name": "eventName",
              "type": "string"
            },
            {
              "internalType": "string",
              "name": "eventDescription",
              "type": "string"
            },
            {
              "internalType": "string",
              "name": "mentorName",
              "type": "string"
            },
            {
              "internalType": "address",
              "name": "mentorAddress",
              "type": "address"
            },
            {
              "internalType": "address[]",
              "name": "attendees",
              "type": "address[]"
            },
            {
              "internalType": "bool",
              "name": "isActive",
              "type": "bool"
            },
            {
              "internalType": "bool",
              "name": "overrideClosingTimestamp",
              "type": "bool"
            }
          ],
          "internalType": "struct Structs.Event[]",
          "name": "",
          "type": "tuple[]"
        }
      ],
      "stateMutability": "view",
      "type": "function"
    },
    {
      "inputs": [
        {
          "internalType": "address",
          "name": "_studentAddress",
          "type": "address"
        }
      ],
      "name": "getAllStudentEventsWithAttestations",
      "outputs": [
        {
          "components": [
            {
              "internalType": "bytes32",
              "name": "attestation",
              "type": "bytes32"
            },
            {
              "internalType": "uint256",
              "name": "eventId",
              "type": "uint256"
            },
            {
              "internalType": "uint256",
              "name": "level",
              "type": "uint256"
            },
            {
              "internalType": "string",
              "name": "eventName",
              "type": "string"
            },
            {
              "internalType": "string",
              "name": "eventDescription",
              "type": "string"
            },
            {
              "internalType": "string",
              "name": "mentorName",
              "type": "string"
            },
            {
              "internalType": "address",
              "name": "mentorAddress",
              "type": "address"
            }
          ],
          "internalType": "struct Structs.metaEvent[]",
          "name": "",
          "type": "tuple[]"
        }
      ],
      "stateMutability": "view",
      "type": "function"
    },
    {
      "inputs": [
        {
          "internalType": "uint256",
          "name": "_eventId",
          "type": "uint256"
        },
        {
          "internalType": "uint256",
          "name": "_level",
          "type": "uint256"
        },
        {
          "internalType": "bytes32",
          "name": "_msgHash",
          "type": "bytes32"
        },
        {
          "internalType": "bytes",
          "name": "_signature",
          "type": "bytes"
        }
      ],
      "name": "getAttested",
      "outputs": [
        {
          "internalType": "bool",
          "name": "",
          "type": "bool"
        }
      ],
      "stateMutability": "nonpayable",
      "type": "function"
    },
    {
      "inputs": [
        {
          "internalType": "bytes32",
          "name": "_messageHash",
          "type": "bytes32"
        }
      ],
      "name": "getEthSignedMessageHash",
      "outputs": [
        {
          "internalType": "bytes32",
          "name": "",
          "type": "bytes32"
        }
      ],
      "stateMutability": "pure",
      "type": "function"
    },
    {
      "inputs": [
        {
          "internalType": "address",
          "name": "_studentAddress",
          "type": "address"
        }
      ],
      "name": "getEventsCompleted",
      "outputs": [
        {
          "internalType": "uint256",
          "name": "_studentLevel",
          "type": "uint256"
        },
        {
          "internalType": "uint256[]",
          "name": "",
          "type": "uint256[]"
        },
        {
          "internalType": "bytes32[]",
          "name": "",
          "type": "bytes32[]"
        }
      ],
      "stateMutability": "view",
      "type": "function"
    },
    {
      "inputs": [
        {
          "internalType": "bytes32",
          "name": "_messageHash",
          "type": "bytes32"
        },
        {
          "internalType": "bytes",
          "name": "_signature",
          "type": "bytes"
        }
      ],
      "name": "isVerified",
      "outputs": [
        {
          "internalType": "bool",
          "name": "",
          "type": "bool"
        }
      ],
      "stateMutability": "view",
      "type": "function"
    },
    {
      "inputs": [
        {
          "internalType": "bytes32",
          "name": "_ethSignedMessageHash",
          "type": "bytes32"
        },
        {
          "internalType": "bytes",
          "name": "_signature",
          "type": "bytes"
        }
      ],
      "name": "recoverSigner",
      "outputs": [
        {
          "internalType": "address",
          "name": "",
          "type": "address"
        }
      ],
      "stateMutability": "pure",
      "type": "function"
    },
    {
      "inputs": [
        {
          "internalType": "bytes",
          "name": "sig",
          "type": "bytes"
        }
      ],
      "name": "splitSignature",
      "outputs": [
        {
          "internalType": "uint8",
          "name": "",
          "type": "uint8"
        },
        {
          "internalType": "bytes32",
          "name": "",
          "type": "bytes32"
        },
        {
          "internalType": "bytes32",
          "name": "",
          "type": "bytes32"
        }
      ],
      "stateMutability": "pure",
      "type": "function"
    },
    {
      "inputs": [
        {
          "internalType": "address",
          "name": "",
          "type": "address"
        },
        {
          "internalType": "uint256",
          "name": "",
          "type": "uint256"
        }
      ],
      "name": "studentEventMap",
      "outputs": [
        {
          "internalType": "bytes32",
          "name": "attestation",
          "type": "bytes32"
        },
        {
          "internalType": "uint256",
          "name": "eventId",
          "type": "uint256"
        },
        {
          "internalType": "uint256",
          "name": "level",
          "type": "uint256"
        },
        {
          "internalType": "string",
          "name": "eventName",
          "type": "string"
        },
        {
          "internalType": "string",
          "name": "eventDescription",
          "type": "string"
        },
        {
          "internalType": "string",
          "name": "mentorName",
          "type": "string"
        },
        {
          "internalType": "address",
          "name": "mentorAddress",
          "type": "address"
        }
      ],
      "stateMutability": "view",
      "type": "function"
    },
    {
      "inputs": [
        {
          "internalType": "uint256",
          "name": "_eventId",
          "type": "uint256"
        },
        {
          "internalType": "bool",
          "name": "_res",
          "type": "bool"
        }
      ],
      "name": "toggleOverrideEventFlag",
      "outputs": [],
      "stateMutability": "nonpayable",
      "type": "function"
    }
  ],
  "transactionHash": "0x147e5920d4416020a0bbb9c8bab70b30fa9615ba40350139ecfa123d1700c618",
  "args": [],
  "numDeployments": 2,
  "solcInputHash": "6f8d24cc746d6625c5f16b89725bece5",
  "bytecode": "0x6080604052600160055534801561001557600080fd5b50600080546001600160a01b031916331790556121e5806100376000396000f3fe608060405234801561001057600080fd5b50600436106101005760003560e01c8063a264efce11610097578063e01a0ebe11610066578063e01a0ebe14610291578063ed0568af1461029a578063fa540801146102ba578063fed6bf28146102cd57600080fd5b8063a264efce14610224578063a7bb580314610237578063c27a500d14610269578063c3816c131461027e57600080fd5b80636dff9131116100d35780636dff9131146101865780637fcacc0e146101b457806391ea6364146101d757806397aba7f9146101f957600080fd5b806306648651146101055780630b7914301461011a57806358586bad1461014d5780635c78442c14610160575b600080fd5b610118610113366004611721565b6102e0565b005b61012d610128366004611756565b61033f565b6040516101449b9a999897969594939291906117b5565b60405180910390f35b61011861015b3660046118fb565b610543565b61017361016e3660046119ae565b61072c565b60405161014497969594939291906119d8565b6101a6610194366004611a40565b60016020526000908152604090205481565b604051908152602001610144565b6101c76101c2366004611a62565b610912565b6040519015158152602001610144565b6101ea6101e5366004611a40565b610999565b60405161014493929190611aa9565b61020c610207366004611a62565b610a6f565b6040516001600160a01b039091168152602001610144565b610118610232366004611b2f565b610aee565b61024a610245366004611b64565b610b60565b6040805160ff9094168452602084019290925290820152606001610144565b610271610bd2565b6040516101449190611be5565b6101c761028c366004611d1d565b610f90565b6101a660055481565b6102ad6102a8366004611a40565b61129d565b6040516101449190611d77565b6101a66102c8366004611756565b6115fe565b6101186102db366004611e3f565b611651565b6000546001600160a01b031633146102f757600080fd5b6001600160a01b039091166000818152600160208181526040808420600290810180549485018155855282852090930187905593835290815282822093825292909252902055565b600360208190526000918252604090912080546001820154600283015493830154600484015460058501805460ff90951696939593949293919261038290611eec565b80601f01602080910402602001604051908101604052809291908181526020018280546103ae90611eec565b80156103fb5780601f106103d0576101008083540402835291602001916103fb565b820191906000526020600020905b8154815290600101906020018083116103de57829003601f168201915b50505050509080600601805461041090611eec565b80601f016020809104026020016040519081016040528092919081815260200182805461043c90611eec565b80156104895780601f1061045e57610100808354040283529160200191610489565b820191906000526020600020905b81548152906001019060200180831161046c57829003601f168201915b50505050509080600701805461049e90611eec565b80601f01602080910402602001604051908101604052809291908181526020018280546104ca90611eec565b80156105175780601f106104ec57610100808354040283529160200191610517565b820191906000526020600020905b8154815290600101906020018083116104fa57829003601f168201915b505050506008830154600a9093015491926001600160a01b03169160ff8082169250610100909104168b565b3360008181526004602052604090205460ff168061056e57506000546001600160a01b038281169116145b6105935760405162461bcd60e51b815260040161058a90611f20565b60405180910390fd5b4287116105f35760405162461bcd60e51b815260206004820152602860248201527f436c6f73696e672074696d657374616d702063616e6e6f7420626520696e20746044820152673432903830b9ba1760c11b606482015260840161058a565b600580546000908152600360208190526040808320805460ff191660ff8b1617905583548084528184206001818101929092556002018b9055845484528184209092018b90558354835280832060040191909155825482529020016106588582611fbc565b5060055460009081526003602052604090206006016106778482611fbc565b5060055460009081526003602052604090206007016106968382611fbc565b506005805460009081526003602090815260408083206008018054336001600160a01b03199182168117909255855485528285206009018054600181810183559187529486209094018054909116909117905583548352808320600a908101805460ff191690931790925583548352822001805461ff00191690558154919061071e83612092565b919050555050505050505050565b600260208181526000938452604080852090915291835291208054600182015492820154600383018054929493919261076490611eec565b80601f016020809104026020016040519081016040528092919081815260200182805461079090611eec565b80156107dd5780601f106107b2576101008083540402835291602001916107dd565b820191906000526020600020905b8154815290600101906020018083116107c057829003601f168201915b5050505050908060040180546107f290611eec565b80601f016020809104026020016040519081016040528092919081815260200182805461081e90611eec565b801561086b5780601f106108405761010080835404028352916020019161086b565b820191906000526020600020905b81548152906001019060200180831161084e57829003601f168201915b50505050509080600501805461088090611eec565b80601f01602080910402602001604051908101604052809291908181526020018280546108ac90611eec565b80156108f95780601f106108ce576101008083540402835291602001916108f9565b820191906000526020600020905b8154815290600101906020018083116108dc57829003601f168201915b505050600690930154919250506001600160a01b031687565b60008061091e846115fe565b9050600061092c8285610a6f565b6000549091506001600160a01b0380831691161461098c5760405162461bcd60e51b815260206004820152601a60248201527f556e617574686f72697a656420436f6e74726163742063616c6c000000000000604482015260640161058a565b6001925050505b92915050565b6001600160a01b03811660009081526001602081815260408084208054938101805483518186028101860190945280845260609586959094929360020192918491830182828015610a0957602002820191906000526020600020905b8154815260200190600101908083116109f5575b5050505050915080805480602002602001604051908101604052809291908181526020018280548015610a5b57602002820191906000526020600020905b815481526020019060010190808311610a47575b505050505090509250925092509193909250565b600080600080610a7e85610b60565b6040805160008152602081018083528b905260ff8516918101919091526060810183905260808101829052929550909350915060019060a0016020604051602081039080840390855afa158015610ad9573d6000803e3d6000fd5b5050604051601f190151979650505050505050565b3360008181526004602052604090205460ff1680610b1957506000546001600160a01b038281169116145b610b355760405162461bcd60e51b815260040161058a90611f20565b50600091825260036020526040909120600a0180549115156101000261ff0019909216919091179055565b60008060008351604114610bb65760405162461bcd60e51b815260206004820152601860248201527f696e76616c6964207369676e6174757265206c656e6774680000000000000000604482015260640161058a565b5050506020810151604082015160609092015160001a92909190565b606060006001600554610be591906120ab565b67ffffffffffffffff811115610bfd57610bfd611844565b604051908082528060200260200182016040528015610ca257816020015b610c8f604051806101800160405280600060ff1681526020016000815260200160008152602001600081526020016000815260200160608152602001606081526020016060815260200160006001600160a01b03168152602001606081526020016000151581526020016000151581525090565b815260200190600190039081610c1b5790505b50905060015b600554811015610f8a57600081815260036020818152604092839020835161018081018552815460ff1681526001820154928101929092526002810154938201939093529082015460608201526004820154608082015260058201805491929160a084019190610d1790611eec565b80601f0160208091040260200160405190810160405280929190818152602001828054610d4390611eec565b8015610d905780601f10610d6557610100808354040283529160200191610d90565b820191906000526020600020905b815481529060010190602001808311610d7357829003601f168201915b50505050508152602001600682018054610da990611eec565b80601f0160208091040260200160405190810160405280929190818152602001828054610dd590611eec565b8015610e225780601f10610df757610100808354040283529160200191610e22565b820191906000526020600020905b815481529060010190602001808311610e0557829003601f168201915b50505050508152602001600782018054610e3b90611eec565b80601f0160208091040260200160405190810160405280929190818152602001828054610e6790611eec565b8015610eb45780601f10610e8957610100808354040283529160200191610eb4565b820191906000526020600020905b815481529060010190602001808311610e9757829003601f168201915b505050918352505060088201546001600160a01b03166020808301919091526009830180546040805182850281018501825282815294019392830182828015610f2657602002820191906000526020600020905b81546001600160a01b03168152600190910190602001808311610f08575b5050509183525050600a919091015460ff8082161515602084015261010090910416151560409091015282610f5c6001846120ab565b81518110610f6c57610f6c6120be565b60200260200101819052508080610f8290612092565b915050610ca8565b50919050565b336000908152600260209081526040808320878452909152812054156110085760405162461bcd60e51b815260206004820152602760248201527f53747564656e7420616c726561647920617474657374656420666f72207468696044820152661cc8195d995b9d60ca1b606482015260840161058a565b6110128383610912565b6110535760405162461bcd60e51b8152602060048201526012602482015271496e76616c69642054786e20536f7572636560701b604482015260640161058a565b6000858152600360205260409020600a015460ff168061108a57506000858152600360205260409020600a0154610100900460ff16155b6110d65760405162461bcd60e51b815260206004820152601960248201527f4576656e74206973206e6f206c6f6e6765722061637469766500000000000000604482015260640161058a565b6000858152600360208190526040909120015442108061110d57506000858152600360205260409020600a0154610100900460ff16155b6111595760405162461bcd60e51b815260206004820152601f60248201527f4576656e74206973207061737420636c6f73696e672074696d657374616d7000604482015260640161058a565b6000858152600360208181526040808420600981018054600180820183559187528487200180546001600160a01b0319163390811790915580875281855283872080830180548085018255908952868920018d90559087528a9055600284528286208b8752909352932090810188905501906111d890600501826120d4565b506000858152600360209081526040808320338452600283528184208985529092529091206004019061120e90600601826120d4565b506000858152600360209081526040808320338452600283528184208985529092529091206005019061124490600701826120d4565b5050506000838152600360209081526040808320600801543384526002808452828520978552969092529091206006810180546001600160a01b0319166001600160a01b03909316929092179091559092015550600190565b6001600160a01b0381166000908152600160208190526040822001546060919067ffffffffffffffff8111156112d5576112d5611844565b60405190808252806020026020018201604052801561135257816020015b61133f6040518060e0016040528060008019168152602001600081526020016000815260200160608152602001606081526020016060815260200160006001600160a01b031681525090565b8152602001906001900390816112f35790505b50905060005b6001600160a01b038416600090815260016020819052604090912001548110156115f7576001600160a01b03841660009081526002602090815260408083206001928390529083209091018054919291849081106113b8576113b86120be565b906000526020600020015481526020019081526020016000206040518060e001604052908160008201548152602001600182015481526020016002820154815260200160038201805461140a90611eec565b80601f016020809104026020016040519081016040528092919081815260200182805461143690611eec565b80156114835780601f1061145857610100808354040283529160200191611483565b820191906000526020600020905b81548152906001019060200180831161146657829003601f168201915b5050505050815260200160048201805461149c90611eec565b80601f01602080910402602001604051908101604052809291908181526020018280546114c890611eec565b80156115155780601f106114ea57610100808354040283529160200191611515565b820191906000526020600020905b8154815290600101906020018083116114f857829003601f168201915b5050505050815260200160058201805461152e90611eec565b80601f016020809104026020016040519081016040528092919081815260200182805461155a90611eec565b80156115a75780601f1061157c576101008083540402835291602001916115a7565b820191906000526020600020905b81548152906001019060200180831161158a57829003601f168201915b5050509183525050600691909101546001600160a01b031660209091015282518390839081106115d9576115d96120be565b602002602001018190525080806115ef90612092565b915050611358565b5092915050565b6040517f19457468657265756d205369676e6564204d6573736167653a0a3332000000006020820152603c8101829052600090605c01604051602081830303815290604052805190602001209050919050565b3360008181526004602052604090205460ff168061167c57506000546001600160a01b038281169116145b6116985760405162461bcd60e51b815260040161058a90611f20565b60005b8251811015611700576001600460008584815181106116bc576116bc6120be565b6020908102919091018101516001600160a01b03168252810191909152604001600020805460ff1916911515919091179055806116f881612092565b91505061169b565b505050565b80356001600160a01b038116811461171c57600080fd5b919050565b60008060006060848603121561173657600080fd5b8335925061174660208501611705565b9150604084013590509250925092565b60006020828403121561176857600080fd5b5035919050565b6000815180845260005b8181101561179557602081850181015186830182015201611779565b506000602082860101526020601f19601f83011685010191505092915050565b600061016060ff8e1683528c60208401528b60408401528a60608401528960808401528060a08401526117ea8184018a61176f565b905082810360c08401526117fe818961176f565b905082810360e0840152611812818861176f565b6001600160a01b0396909616610100840152505091151561012083015215156101409091015298975050505050505050565b634e487b7160e01b600052604160045260246000fd5b604051601f8201601f1916810167ffffffffffffffff8111828210171561188357611883611844565b604052919050565b600082601f83011261189c57600080fd5b813567ffffffffffffffff8111156118b6576118b6611844565b6118c9601f8201601f191660200161185a565b8181528460208386010111156118de57600080fd5b816020850160208301376000918101602001919091529392505050565b60008060008060008060c0878903121561191457600080fd5b8635955060208701359450604087013560ff8116811461193357600080fd5b9350606087013567ffffffffffffffff8082111561195057600080fd5b61195c8a838b0161188b565b9450608089013591508082111561197257600080fd5b61197e8a838b0161188b565b935060a089013591508082111561199457600080fd5b506119a189828a0161188b565b9150509295509295509295565b600080604083850312156119c157600080fd5b6119ca83611705565b946020939093013593505050565b87815286602082015285604082015260e0606082015260006119fd60e083018761176f565b8281036080840152611a0f818761176f565b905082810360a0840152611a23818661176f565b91505060018060a01b03831660c083015298975050505050505050565b600060208284031215611a5257600080fd5b611a5b82611705565b9392505050565b60008060408385031215611a7557600080fd5b82359150602083013567ffffffffffffffff811115611a9357600080fd5b611a9f8582860161188b565b9150509250929050565b6000606082018583526020606081850152818651808452608086019150828801935060005b81811015611aea57845183529383019391830191600101611ace565b50508481036040860152855180825290820192508186019060005b81811015611b2157825185529383019391830191600101611b05565b509298975050505050505050565b60008060408385031215611b4257600080fd5b8235915060208301358015158114611b5957600080fd5b809150509250929050565b600060208284031215611b7657600080fd5b813567ffffffffffffffff811115611b8d57600080fd5b611b998482850161188b565b949350505050565b600081518084526020808501945080840160005b83811015611bda5781516001600160a01b031687529582019590820190600101611bb5565b509495945050505050565b60006020808301818452808551808352604092508286019150828160051b87010184880160005b83811015611d0f57888303603f190185528151805160ff16845261018081890151858a01528782015188860152606080830151908601526080808301519086015260a080830151818701839052611c658388018261176f565b9250505060c08083015186830382880152611c80838261176f565b9250505060e08083015186830382880152611c9b838261176f565b9250505061010080830151611cba828801826001600160a01b03169052565b50506101208083015186830382880152611cd48382611ba1565b9250505061014080830151611cec8288018215159052565b505061016091820151151594909101939093529386019390860190600101611c0c565b509098975050505050505050565b60008060008060808587031215611d3357600080fd5b843593506020850135925060408501359150606085013567ffffffffffffffff811115611d5f57600080fd5b611d6b8782880161188b565b91505092959194509250565b60006020808301818452808551808352604092508286019150828160051b87010184880160005b83811015611d0f57603f19898403018552815160e081518552888201518986015287820151888601526060808301518282880152611dde8388018261176f565b9250505060808083015186830382880152611df9838261176f565b9250505060a08083015186830382880152611e14838261176f565b60c0948501516001600160a01b03169790940196909652505094870194925090860190600101611d9e565b60006020808385031215611e5257600080fd5b823567ffffffffffffffff80821115611e6a57600080fd5b818501915085601f830112611e7e57600080fd5b813581811115611e9057611e90611844565b8060051b9150611ea184830161185a565b8181529183018401918481019088841115611ebb57600080fd5b938501935b83851015611ee057611ed185611705565b82529385019390850190611ec0565b98975050505050505050565b600181811c90821680611f0057607f821691505b602082108103610f8a57634e487b7160e01b600052602260045260246000fd5b6020808252602e908201527f4f6e6c792073656c6563746564206d656e746f7220616464726573736573206360408201526d30b71031b932b0ba329038bab4bd60911b606082015260800190565b601f82111561170057600081815260208120601f850160051c81016020861015611f955750805b601f850160051c820191505b81811015611fb457828155600101611fa1565b505050505050565b815167ffffffffffffffff811115611fd657611fd6611844565b611fea81611fe48454611eec565b84611f6e565b602080601f83116001811461201f57600084156120075750858301515b600019600386901b1c1916600185901b178555611fb4565b600085815260208120601f198616915b8281101561204e5788860151825594840194600190910190840161202f565b508582101561206c5787850151600019600388901b60f8161c191681555b5050505050600190811b01905550565b634e487b7160e01b600052601160045260246000fd5b6000600182016120a4576120a461207c565b5060010190565b818103818111156109935761099361207c565b634e487b7160e01b600052603260045260246000fd5b8181036120df575050565b6120e98254611eec565b67ffffffffffffffff81111561210157612101611844565b61210f81611fe48454611eec565b6000601f821160018114612143576000831561212b5750848201545b600019600385901b1c1916600184901b1784556121a8565b600085815260209020601f19841690600086815260209020845b8381101561217d578286015482556001958601959091019060200161215d565b508583101561219b5781850154600019600388901b60f8161c191681555b50505060018360011b0184555b505050505056fea2646970667358221220de6f2193c9112664b781c48210f3827aff84d2e0dc111b6a64bddbbdf334d21e64736f6c63430008140033",
  "devdoc": {
    "kind": "dev",
    "methods": {},
    "version": 1
  },
  "userdoc": {
    "kind": "user",
    "methods": {},
    "version": 1
  },
  "storageLayout": {
    "storage": [
      {
        "astId": 2372,
        "contract": "contracts/EASOnboarding.sol:EASOnboarding",
        "label": "deployer",
        "offset": 0,
        "slot": "0",
        "type": "t_address"
      },
      {
        "astId": 2377,
        "contract": "contracts/EASOnboarding.sol:EASOnboarding",
        "label": "attestationProfile",
        "offset": 0,
        "slot": "1",
        "type": "t_mapping(t_address,t_struct(AttestationProfile)2350_storage)"
      },
      {
        "astId": 2384,
        "contract": "contracts/EASOnboarding.sol:EASOnboarding",
        "label": "studentEventMap",
        "offset": 0,
        "slot": "2",
        "type": "t_mapping(t_address,t_mapping(t_uint256,t_struct(metaEvent)2365_storage))"
      },
      {
        "astId": 2389,
        "contract": "contracts/EASOnboarding.sol:EASOnboarding",
        "label": "events",
        "offset": 0,
        "slot": "3",
        "type": "t_mapping(t_uint256,t_struct(Event)2341_storage)"
      },
      {
        "astId": 2393,
        "contract": "contracts/EASOnboarding.sol:EASOnboarding",
        "label": "isMentor",
        "offset": 0,
        "slot": "4",
        "type": "t_mapping(t_address,t_bool)"
      },
      {
        "astId": 2396,
        "contract": "contracts/EASOnboarding.sol:EASOnboarding",
        "label": "eventIdCounter",
        "offset": 0,
        "slot": "5",
        "type": "t_uint256"
      }
    ],
    "types": {
      "t_address": {
        "encoding": "inplace",
        "label": "address",
        "numberOfBytes": "20"
      },
      "t_array(t_address)dyn_storage": {
        "base": "t_address",
        "encoding": "dynamic_array",
        "label": "address[]",
        "numberOfBytes": "32"
      },
      "t_array(t_bytes32)dyn_storage": {
        "base": "t_bytes32",
        "encoding": "dynamic_array",
        "label": "bytes32[]",
        "numberOfBytes": "32"
      },
      "t_array(t_uint256)dyn_storage": {
        "base": "t_uint256",
        "encoding": "dynamic_array",
        "label": "uint256[]",
        "numberOfBytes": "32"
      },
      "t_bool": {
        "encoding": "inplace",
        "label": "bool",
        "numberOfBytes": "1"
      },
      "t_bytes32": {
        "encoding": "inplace",
        "label": "bytes32",
        "numberOfBytes": "32"
      },
      "t_mapping(t_address,t_bool)": {
        "encoding": "mapping",
        "key": "t_address",
        "label": "mapping(address => bool)",
        "numberOfBytes": "32",
        "value": "t_bool"
      },
      "t_mapping(t_address,t_mapping(t_uint256,t_struct(metaEvent)2365_storage))": {
        "encoding": "mapping",
        "key": "t_address",
        "label": "mapping(address => mapping(uint256 => struct Structs.metaEvent))",
        "numberOfBytes": "32",
        "value": "t_mapping(t_uint256,t_struct(metaEvent)2365_storage)"
      },
      "t_mapping(t_address,t_struct(AttestationProfile)2350_storage)": {
        "encoding": "mapping",
        "key": "t_address",
        "label": "mapping(address => struct Structs.AttestationProfile)",
        "numberOfBytes": "32",
        "value": "t_struct(AttestationProfile)2350_storage"
      },
      "t_mapping(t_uint256,t_struct(Event)2341_storage)": {
        "encoding": "mapping",
        "key": "t_uint256",
        "label": "mapping(uint256 => struct Structs.Event)",
        "numberOfBytes": "32",
        "value": "t_struct(Event)2341_storage"
      },
      "t_mapping(t_uint256,t_struct(metaEvent)2365_storage)": {
        "encoding": "mapping",
        "key": "t_uint256",
        "label": "mapping(uint256 => struct Structs.metaEvent)",
        "numberOfBytes": "32",
        "value": "t_struct(metaEvent)2365_storage"
      },
      "t_string_storage": {
        "encoding": "bytes",
        "label": "string",
        "numberOfBytes": "32"
      },
      "t_struct(AttestationProfile)2350_storage": {
        "encoding": "inplace",
        "label": "struct Structs.AttestationProfile",
        "members": [
          {
            "astId": 2343,
            "contract": "contracts/EASOnboarding.sol:EASOnboarding",
            "label": "studentLevel",
            "offset": 0,
            "slot": "0",
            "type": "t_uint256"
          },
          {
            "astId": 2346,
            "contract": "contracts/EASOnboarding.sol:EASOnboarding",
            "label": "eventsCompleted",
            "offset": 0,
            "slot": "1",
            "type": "t_array(t_uint256)dyn_storage"
          },
          {
            "astId": 2349,
            "contract": "contracts/EASOnboarding.sol:EASOnboarding",
            "label": "attestations",
            "offset": 0,
            "slot": "2",
            "type": "t_array(t_bytes32)dyn_storage"
          }
        ],
        "numberOfBytes": "96"
      },
      "t_struct(Event)2341_storage": {
        "encoding": "inplace",
        "label": "struct Structs.Event",
        "members": [
          {
            "astId": 2317,
            "contract": "contracts/EASOnboarding.sol:EASOnboarding",
            "label": "typeOf",
            "offset": 0,
            "slot": "0",
            "type": "t_uint8"
          },
          {
            "astId": 2319,
            "contract": "contracts/EASOnboarding.sol:EASOnboarding",
            "label": "eventId",
            "offset": 0,
            "slot": "1",
            "type": "t_uint256"
          },
          {
            "astId": 2321,
            "contract": "contracts/EASOnboarding.sol:EASOnboarding",
            "label": "level",
            "offset": 0,
            "slot": "2",
            "type": "t_uint256"
          },
          {
            "astId": 2323,
            "contract": "contracts/EASOnboarding.sol:EASOnboarding",
            "label": "closingTimestamp",
            "offset": 0,
            "slot": "3",
            "type": "t_uint256"
          },
          {
            "astId": 2325,
            "contract": "contracts/EASOnboarding.sol:EASOnboarding",
            "label": "attendeeCount",
            "offset": 0,
            "slot": "4",
            "type": "t_uint256"
          },
          {
            "astId": 2327,
            "contract": "contracts/EASOnboarding.sol:EASOnboarding",
            "label": "eventName",
            "offset": 0,
            "slot": "5",
            "type": "t_string_storage"
          },
          {
            "astId": 2329,
            "contract": "contracts/EASOnboarding.sol:EASOnboarding",
            "label": "eventDescription",
            "offset": 0,
            "slot": "6",
            "type": "t_string_storage"
          },
          {
            "astId": 2331,
            "contract": "contracts/EASOnboarding.sol:EASOnboarding",
            "label": "mentorName",
            "offset": 0,
            "slot": "7",
            "type": "t_string_storage"
          },
          {
            "astId": 2333,
            "contract": "contracts/EASOnboarding.sol:EASOnboarding",
            "label": "mentorAddress",
            "offset": 0,
            "slot": "8",
            "type": "t_address"
          },
          {
            "astId": 2336,
            "contract": "contracts/EASOnboarding.sol:EASOnboarding",
            "label": "attendees",
            "offset": 0,
            "slot": "9",
            "type": "t_array(t_address)dyn_storage"
          },
          {
            "astId": 2338,
            "contract": "contracts/EASOnboarding.sol:EASOnboarding",
            "label": "isActive",
            "offset": 0,
            "slot": "10",
            "type": "t_bool"
          },
          {
            "astId": 2340,
            "contract": "contracts/EASOnboarding.sol:EASOnboarding",
            "label": "overrideClosingTimestamp",
            "offset": 1,
            "slot": "10",
            "type": "t_bool"
          }
        ],
        "numberOfBytes": "352"
      },
      "t_struct(metaEvent)2365_storage": {
        "encoding": "inplace",
        "label": "struct Structs.metaEvent",
        "members": [
          {
            "astId": 2352,
            "contract": "contracts/EASOnboarding.sol:EASOnboarding",
            "label": "attestation",
            "offset": 0,
            "slot": "0",
            "type": "t_bytes32"
          },
          {
            "astId": 2354,
            "contract": "contracts/EASOnboarding.sol:EASOnboarding",
            "label": "eventId",
            "offset": 0,
            "slot": "1",
            "type": "t_uint256"
          },
          {
            "astId": 2356,
            "contract": "contracts/EASOnboarding.sol:EASOnboarding",
            "label": "level",
            "offset": 0,
            "slot": "2",
            "type": "t_uint256"
          },
          {
            "astId": 2358,
            "contract": "contracts/EASOnboarding.sol:EASOnboarding",
            "label": "eventName",
            "offset": 0,
            "slot": "3",
            "type": "t_string_storage"
          },
          {
            "astId": 2360,
            "contract": "contracts/EASOnboarding.sol:EASOnboarding",
            "label": "eventDescription",
            "offset": 0,
            "slot": "4",
            "type": "t_string_storage"
          },
          {
            "astId": 2362,
            "contract": "contracts/EASOnboarding.sol:EASOnboarding",
            "label": "mentorName",
            "offset": 0,
            "slot": "5",
            "type": "t_string_storage"
          },
          {
            "astId": 2364,
            "contract": "contracts/EASOnboarding.sol:EASOnboarding",
            "label": "mentorAddress",
            "offset": 0,
            "slot": "6",
            "type": "t_address"
          }
        ],
        "numberOfBytes": "224"
      },
      "t_uint256": {
        "encoding": "inplace",
        "label": "uint256",
        "numberOfBytes": "32"
      },
      "t_uint8": {
        "encoding": "inplace",
        "label": "uint8",
        "numberOfBytes": "1"
      }
    }
  }
}