{
  "address": "0xE383f2B3Ff9024bAa09b33923b8DBd0F2AF98ad0",
  "abi": [
    {
      "inputs": [],
      "stateMutability": "nonpayable",
      "type": "constructor"
    },
    {
      "anonymous": false,
      "inputs": [
        {
          "indexed": true,
          "internalType": "address",
          "name": "studentAddress",
          "type": "address"
        },
        {
          "indexed": true,
          "internalType": "uint256",
          "name": "eventId",
          "type": "uint256"
        },
        {
          "indexed": false,
          "internalType": "bytes32",
          "name": "attestation",
          "type": "bytes32"
        }
      ],
      "name": "AttestationAdded",
      "type": "event"
    },
    {
      "anonymous": false,
      "inputs": [
        {
          "indexed": true,
          "internalType": "uint256",
          "name": "eventId",
          "type": "uint256"
        },
        {
          "indexed": false,
          "internalType": "string",
          "name": "eventName",
          "type": "string"
        },
        {
          "indexed": true,
          "internalType": "address",
          "name": "mentorAddress",
          "type": "address"
        },
        {
          "indexed": false,
          "internalType": "uint256",
          "name": "closingTimestamp",
          "type": "uint256"
        }
      ],
      "name": "EventCreated",
      "type": "event"
    },
    {
      "anonymous": false,
      "inputs": [
        {
          "indexed": true,
          "internalType": "address",
          "name": "mentorAddress",
          "type": "address"
        }
      ],
      "name": "MentorAdded",
      "type": "event"
    },
    {
      "anonymous": false,
      "inputs": [
        {
          "indexed": true,
          "internalType": "address",
          "name": "mentorAddress",
          "type": "address"
        }
      ],
      "name": "MentorRemoved",
      "type": "event"
    },
    {
      "anonymous": false,
      "inputs": [
        {
          "indexed": true,
          "internalType": "uint256",
          "name": "eventId",
          "type": "uint256"
        },
        {
          "indexed": false,
          "internalType": "bool",
          "name": "status",
          "type": "bool"
        }
      ],
      "name": "OverrideEventFlagToggled",
      "type": "event"
    },
    {
      "inputs": [
        {
          "internalType": "bytes32",
          "name": "_attestation",
          "type": "bytes32"
        },
        {
          "internalType": "address",
          "name": "_studentAddress",
          "type": "address"
        },
        {
          "internalType": "uint256",
          "name": "_eventId",
          "type": "uint256"
        }
      ],
      "name": "addAttestation",
      "outputs": [],
      "stateMutability": "nonpayable",
      "type": "function"
    },
    {
      "inputs": [
        {
          "internalType": "address[]",
          "name": "_newMentors",
          "type": "address[]"
        }
      ],
      "name": "addMentors",
      "outputs": [],
      "stateMutability": "nonpayable",
      "type": "function"
    },
    {
      "inputs": [
        {
          "internalType": "address",
          "name": "",
          "type": "address"
        }
      ],
      "name": "attestationProfile",
      "outputs": [
        {
          "internalType": "uint256",
          "name": "studentLevel",
          "type": "uint256"
        }
      ],
      "stateMutability": "view",
      "type": "function"
    },
    {
      "inputs": [
        {
          "internalType": "uint256",
          "name": "_closingTimestamp",
          "type": "uint256"
        },
        {
          "internalType": "uint256",
          "name": "_level",
          "type": "uint256"
        },
        {
          "internalType": "uint8",
          "name": "_type",
          "type": "uint8"
        },
        {
          "internalType": "string",
          "name": "_eventName",
          "type": "string"
        },
        {
          "internalType": "string",
          "name": "_eventDescription",
          "type": "string"
        },
        {
          "internalType": "string",
          "name": "_mentorName",
          "type": "string"
        },
        {
          "internalType": "string",
          "name": "_badgeUri",
          "type": "string"
        },
        {
          "internalType": "bytes32",
          "name": "_schemaUID",
          "type": "bytes32"
        }
      ],
      "name": "createEvent",
      "outputs": [],
      "stateMutability": "nonpayable",
      "type": "function"
    },
    {
      "inputs": [],
      "name": "eventIdCounter",
      "outputs": [
        {
          "internalType": "uint256",
          "name": "",
          "type": "uint256"
        }
      ],
      "stateMutability": "view",
      "type": "function"
    },
    {
      "inputs": [
        {
          "internalType": "uint256",
          "name": "",
          "type": "uint256"
        }
      ],
      "name": "events",
      "outputs": [
        {
          "internalType": "uint8",
          "name": "typeOf",
          "type": "uint8"
        },
        {
          "internalType": "uint256",
          "name": "eventId",
          "type": "uint256"
        },
        {
          "internalType": "uint256",
          "name": "level",
          "type": "uint256"
        },
        {
          "internalType": "uint256",
          "name": "closingTimestamp",
          "type": "uint256"
        },
        {
          "internalType": "uint256",
          "name": "attendeeCount",
          "type": "uint256"
        },
        {
          "internalType": "string",
          "name": "eventName",
          "type": "string"
        },
        {
          "internalType": "string",
          "name": "eventDescription",
          "type": "string"
        },
        {
          "internalType": "string",
          "name": "mentorName",
          "type": "string"
        },
        {
          "internalType": "string",
          "name": "badgeUri",
          "type": "string"
        },
        {
          "internalType": "address",
          "name": "mentorAddress",
          "type": "address"
        },
        {
          "internalType": "bool",
          "name": "isActive",
          "type": "bool"
        },
        {
          "internalType": "bool",
          "name": "overrideClosingTimestamp",
          "type": "bool"
        },
        {
          "internalType": "bytes32",
          "name": "schemaUID",
          "type": "bytes32"
        }
      ],
      "stateMutability": "view",
      "type": "function"
    },
    {
      "inputs": [],
      "name": "getAllEvents",
      "outputs": [
        {
          "components": [
            {
              "internalType": "uint8",
              "name": "typeOf",
              "type": "uint8"
            },
            {
              "internalType": "uint256",
              "name": "eventId",
              "type": "uint256"
            },
            {
              "internalType": "uint256",
              "name": "level",
              "type": "uint256"
            },
            {
              "internalType": "uint256",
              "name": "closingTimestamp",
              "type": "uint256"
            },
            {
              "internalType": "uint256",
              "name": "attendeeCount",
              "type": "uint256"
            },
            {
              "internalType": "string",
              "name": "eventName",
              "type": "string"
            },
            {
              "internalType": "string",
              "name": "eventDescription",
              "type": "string"
            },
            {
              "internalType": "string",
              "name": "mentorName",
              "type": "string"
            },
            {
              "internalType": "string",
              "name": "badgeUri",
              "type": "string"
            },
            {
              "internalType": "address",
              "name": "mentorAddress",
              "type": "address"
            },
            {
              "internalType": "address[]",
              "name": "attendees",
              "type": "address[]"
            },
            {
              "internalType": "bool",
              "name": "isActive",
              "type": "bool"
            },
            {
              "internalType": "bool",
              "name": "overrideClosingTimestamp",
              "type": "bool"
            },
            {
              "internalType": "bytes32",
              "name": "schemaUID",
              "type": "bytes32"
            }
          ],
          "internalType": "struct Structs.Event[]",
          "name": "",
          "type": "tuple[]"
        }
      ],
      "stateMutability": "view",
      "type": "function"
    },
    {
      "inputs": [
        {
          "internalType": "address",
          "name": "_studentAddress",
          "type": "address"
        }
      ],
      "name": "getAllStudentEventsWithAttestations",
      "outputs": [
        {
          "components": [
            {
              "internalType": "bytes32",
              "name": "attestation",
              "type": "bytes32"
            },
            {
              "internalType": "uint256",
              "name": "eventId",
              "type": "uint256"
            },
            {
              "internalType": "uint256",
              "name": "level",
              "type": "uint256"
            },
            {
              "internalType": "string",
              "name": "eventName",
              "type": "string"
            },
            {
              "internalType": "string",
              "name": "eventDescription",
              "type": "string"
            },
            {
              "internalType": "string",
              "name": "mentorName",
              "type": "string"
            },
            {
              "internalType": "address",
              "name": "mentorAddress",
              "type": "address"
            }
          ],
          "internalType": "struct Structs.metaEvent[]",
          "name": "",
          "type": "tuple[]"
        },
        {
          "internalType": "string[]",
          "name": "",
          "type": "string[]"
        }
      ],
      "stateMutability": "view",
      "type": "function"
    },
    {
      "inputs": [
        {
          "internalType": "uint256",
          "name": "_eventId",
          "type": "uint256"
        },
        {
          "internalType": "uint256",
          "name": "_level",
          "type": "uint256"
        },
        {
          "internalType": "bytes32",
          "name": "_msgHash",
          "type": "bytes32"
        },
        {
          "internalType": "bytes",
          "name": "_signature",
          "type": "bytes"
        }
      ],
      "name": "getAttested",
      "outputs": [
        {
          "internalType": "bool",
          "name": "",
          "type": "bool"
        }
      ],
      "stateMutability": "nonpayable",
      "type": "function"
    },
    {
      "inputs": [
        {
          "internalType": "bytes32",
          "name": "_messageHash",
          "type": "bytes32"
        }
      ],
      "name": "getEthSignedMessageHash",
      "outputs": [
        {
          "internalType": "bytes32",
          "name": "",
          "type": "bytes32"
        }
      ],
      "stateMutability": "pure",
      "type": "function"
    },
    {
      "inputs": [
        {
          "internalType": "address",
          "name": "_studentAddress",
          "type": "address"
        }
      ],
      "name": "getEventsCompleted",
      "outputs": [
        {
          "internalType": "uint256",
          "name": "_studentLevel",
          "type": "uint256"
        },
        {
          "internalType": "uint256[]",
          "name": "",
          "type": "uint256[]"
        },
        {
          "internalType": "bytes32[]",
          "name": "",
          "type": "bytes32[]"
        }
      ],
      "stateMutability": "view",
      "type": "function"
    },
    {
      "inputs": [
        {
          "internalType": "address",
          "name": "",
          "type": "address"
        }
      ],
      "name": "isMentor",
      "outputs": [
        {
          "internalType": "bool",
          "name": "",
          "type": "bool"
        }
      ],
      "stateMutability": "view",
      "type": "function"
    },
    {
      "inputs": [
        {
          "internalType": "bytes32",
          "name": "_messageHash",
          "type": "bytes32"
        },
        {
          "internalType": "bytes",
          "name": "_signature",
          "type": "bytes"
        }
      ],
      "name": "isVerified",
      "outputs": [
        {
          "internalType": "bool",
          "name": "",
          "type": "bool"
        }
      ],
      "stateMutability": "view",
      "type": "function"
    },
    {
      "inputs": [
        {
          "internalType": "bytes32",
          "name": "_ethSignedMessageHash",
          "type": "bytes32"
        },
        {
          "internalType": "bytes",
          "name": "_signature",
          "type": "bytes"
        }
      ],
      "name": "recoverSigner",
      "outputs": [
        {
          "internalType": "address",
          "name": "",
          "type": "address"
        }
      ],
      "stateMutability": "pure",
      "type": "function"
    },
    {
      "inputs": [
        {
          "internalType": "address[]",
          "name": "_mentors",
          "type": "address[]"
        }
      ],
      "name": "removeMentors",
      "outputs": [],
      "stateMutability": "nonpayable",
      "type": "function"
    },
    {
      "inputs": [
        {
          "internalType": "bytes",
          "name": "sig",
          "type": "bytes"
        }
      ],
      "name": "splitSignature",
      "outputs": [
        {
          "internalType": "uint8",
          "name": "",
          "type": "uint8"
        },
        {
          "internalType": "bytes32",
          "name": "",
          "type": "bytes32"
        },
        {
          "internalType": "bytes32",
          "name": "",
          "type": "bytes32"
        }
      ],
      "stateMutability": "pure",
      "type": "function"
    },
    {
      "inputs": [
        {
          "internalType": "address",
          "name": "",
          "type": "address"
        },
        {
          "internalType": "uint256",
          "name": "",
          "type": "uint256"
        }
      ],
      "name": "studentEventMap",
      "outputs": [
        {
          "internalType": "bytes32",
          "name": "attestation",
          "type": "bytes32"
        },
        {
          "internalType": "uint256",
          "name": "eventId",
          "type": "uint256"
        },
        {
          "internalType": "uint256",
          "name": "level",
          "type": "uint256"
        },
        {
          "internalType": "string",
          "name": "eventName",
          "type": "string"
        },
        {
          "internalType": "string",
          "name": "eventDescription",
          "type": "string"
        },
        {
          "internalType": "string",
          "name": "mentorName",
          "type": "string"
        },
        {
          "internalType": "address",
          "name": "mentorAddress",
          "type": "address"
        }
      ],
      "stateMutability": "view",
      "type": "function"
    },
    {
      "inputs": [
        {
          "internalType": "uint256",
          "name": "_eventId",
          "type": "uint256"
        },
        {
          "internalType": "bool",
          "name": "_res",
          "type": "bool"
        }
      ],
      "name": "toggleOverrideEventFlag",
      "outputs": [],
      "stateMutability": "nonpayable",
      "type": "function"
    }
  ],
  "transactionHash": "0x779fd904ef9b1b2d73f6f3699fd67ca4f2b79dc5fa42dba0325a947f71a08468",
  "args": [],
  "numDeployments": 4,
  "solcInputHash": "129794f7347f84994963edfaa70c56a4",
  "bytecode": "0x6080604052600160055534801561001557600080fd5b50600080546001600160a01b03191633179055612922806100376000396000f3fe608060405234801561001057600080fd5b50600436106101165760003560e01c8063a264efce116100a2578063e01a0ebe11610071578063e01a0ebe146102cc578063e7ce9ba3146102d5578063ed0568af146102e8578063fa54080114610309578063fed6bf281461031c57600080fd5b8063a264efce1461025f578063a7bb580314610272578063c27a500d146102a4578063c3816c13146102b957600080fd5b80635e98a145116100e95780635e98a1451461019e5780636dff9131146101d15780637fcacc0e146101ff57806391ea63641461021257806397aba7f91461023457600080fd5b8063030666c51461011b57806306648651146101305780630b791430146101435780635c78442c14610178575b600080fd5b61012e610129366004611db3565b61032f565b005b61012e61013e366004611ea5565b610592565b610156610151366004611eda565b6106d1565b60405161016f9d9c9b9a99989796959493929190611f39565b60405180910390f35b61018b610186366004611fea565b61096d565b60405161016f9796959493929190612014565b6101c16101ac36600461207c565b60046020526000908152604090205460ff1681565b604051901515815260200161016f565b6101f16101df36600461207c565b60016020526000908152604090205481565b60405190815260200161016f565b6101c161020d36600461209e565b610b53565b61022561022036600461207c565b610bda565b60405161016f939291906120e5565b61024761024236600461209e565b610cb0565b6040516001600160a01b03909116815260200161016f565b61012e61026d36600461216b565b610d2f565b6102856102803660046121a0565b610ddd565b6040805160ff909416845260208401929092529082015260600161016f565b6102ac610e4f565b60405161016f9190612221565b6101c16102c736600461237d565b6112b9565b6101f160055481565b61012e6102e33660046123d7565b61154e565b6102fb6102f636600461207c565b6116b3565b60405161016f9291906124d9565b6101f1610317366004611eda565b611b83565b61012e61032a3660046123d7565b611bd6565b3360008181526004602052604090205460ff168061035a57506000546001600160a01b038281169116145b61037f5760405162461bcd60e51b8152600401610376906125c0565b60405180910390fd5b4289116103df5760405162461bcd60e51b815260206004820152602860248201527f436c6f73696e672074696d657374616d702063616e6e6f7420626520696e20746044820152673432903830b9ba1760c11b6064820152608401610376565b600580546000908152600360208190526040808320805460ff191660ff8d1617905583548084528184206001818101929092556002018d9055845484528184209092018d90558354835280832060040191909155825482529020016104448782612690565b5060055460009081526003602052604090206006016104638682612690565b5060055460009081526003602052604090206007016104828582612690565b5060055460009081526003602052604090206008016104a18482612690565b506005805460009081526003602090815260408083206009018054336001600160a01b0319918216811790925585548552828520600a018054600181810183559187529486209094018054909116909117905583548352808320600b908101805460ff191690931790925583548352808320909101805461ff0019169055825482528120600c018490558154919061053883612766565b9091555050600554339061054e9060019061277f565b7fad389ee79ceb9d0e3a1739d75d42c8727ca5946b701beaa8ef2801b04d7d7a57888c60405161057f929190612792565b60405180910390a3505050505050505050565b6000546001600160a01b031633146105a957600080fd5b6001600160a01b0382166000908152600260209081526040808320848452909152902054156105ea5760405162461bcd60e51b8152600401610376906127b4565b60008181526003602090815260408220600a8101805460018101825590845291832090910180546001600160a01b0319166001600160a01b03861617905582825260040180549161063a83612766565b90915550506001600160a01b038216600081815260016020818152604080842080840180548086018255908652838620018790556002908101805494850181558552828520909301889055848452918152818320858452815291819020869055518581528392917ffd78fe1c1010dd57ea4476d0eb6d5bd32e62d719166bf0974f538b76dbf9fdb2910160405180910390a3505050565b600360208190526000918252604090912080546001820154600283015493830154600484015460058501805460ff9095169693959394929391926107149061260e565b80601f01602080910402602001604051908101604052809291908181526020018280546107409061260e565b801561078d5780601f106107625761010080835404028352916020019161078d565b820191906000526020600020905b81548152906001019060200180831161077057829003601f168201915b5050505050908060060180546107a29061260e565b80601f01602080910402602001604051908101604052809291908181526020018280546107ce9061260e565b801561081b5780601f106107f05761010080835404028352916020019161081b565b820191906000526020600020905b8154815290600101906020018083116107fe57829003601f168201915b5050505050908060070180546108309061260e565b80601f016020809104026020016040519081016040528092919081815260200182805461085c9061260e565b80156108a95780601f1061087e576101008083540402835291602001916108a9565b820191906000526020600020905b81548152906001019060200180831161088c57829003601f168201915b5050505050908060080180546108be9061260e565b80601f01602080910402602001604051908101604052809291908181526020018280546108ea9061260e565b80156109375780601f1061090c57610100808354040283529160200191610937565b820191906000526020600020905b81548152906001019060200180831161091a57829003601f168201915b5050506009840154600b850154600c9095015493946001600160a01b039091169360ff808316945061010090920490911691508d565b60026020818152600093845260408085209091529183529120805460018201549282015460038301805492949391926109a59061260e565b80601f01602080910402602001604051908101604052809291908181526020018280546109d19061260e565b8015610a1e5780601f106109f357610100808354040283529160200191610a1e565b820191906000526020600020905b815481529060010190602001808311610a0157829003601f168201915b505050505090806004018054610a339061260e565b80601f0160208091040260200160405190810160405280929190818152602001828054610a5f9061260e565b8015610aac5780601f10610a8157610100808354040283529160200191610aac565b820191906000526020600020905b815481529060010190602001808311610a8f57829003601f168201915b505050505090806005018054610ac19061260e565b80601f0160208091040260200160405190810160405280929190818152602001828054610aed9061260e565b8015610b3a5780601f10610b0f57610100808354040283529160200191610b3a565b820191906000526020600020905b815481529060010190602001808311610b1d57829003601f168201915b505050600690930154919250506001600160a01b031687565b600080610b5f84611b83565b90506000610b6d8285610cb0565b6000549091506001600160a01b03808316911614610bcd5760405162461bcd60e51b815260206004820152601a60248201527f556e617574686f72697a656420436f6e74726163742063616c6c0000000000006044820152606401610376565b6001925050505b92915050565b6001600160a01b03811660009081526001602081815260408084208054938101805483518186028101860190945280845260609586959094929360020192918491830182828015610c4a57602002820191906000526020600020905b815481526020019060010190808311610c36575b5050505050915080805480602002602001604051908101604052809291908181526020018280548015610c9c57602002820191906000526020600020905b815481526020019060010190808311610c88575b505050505090509250925092509193909250565b600080600080610cbf85610ddd565b6040805160008152602081018083528b905260ff8516918101919091526060810183905260808101829052929550909350915060019060a0016020604051602081039080840390855afa158015610d1a573d6000803e3d6000fd5b5050604051601f190151979650505050505050565b3360008181526004602052604090205460ff1680610d5a57506000546001600160a01b038281169116145b610d765760405162461bcd60e51b8152600401610376906125c0565b60008381526003602052604090819020600b0180548415156101000261ff00199091161790555183907f255b22f81f52ca696c92545ed4e776709442e0c2f0d5b053f1bb5e73729826a990610dd090851515815260200190565b60405180910390a2505050565b60008060008351604114610e335760405162461bcd60e51b815260206004820152601860248201527f696e76616c6964207369676e6174757265206c656e67746800000000000000006044820152606401610376565b5050506020810151604082015160609092015160001a92909190565b606060006001600554610e62919061277f565b67ffffffffffffffff811115610e7a57610e7a611cfc565b604051908082528060200260200182016040528015610f3057816020015b610f1d604051806101c00160405280600060ff168152602001600081526020016000815260200160008152602001600081526020016060815260200160608152602001606081526020016060815260200160006001600160a01b0316815260200160608152602001600015158152602001600015158152602001600080191681525090565b815260200190600190039081610e985790505b50905060015b6005548110156112b35760008181526003602081815260409283902083516101c081018552815460ff1681526001820154928101929092526002810154938201939093529082015460608201526004820154608082015260058201805491929160a084019190610fa59061260e565b80601f0160208091040260200160405190810160405280929190818152602001828054610fd19061260e565b801561101e5780601f10610ff35761010080835404028352916020019161101e565b820191906000526020600020905b81548152906001019060200180831161100157829003601f168201915b505050505081526020016006820180546110379061260e565b80601f01602080910402602001604051908101604052809291908181526020018280546110639061260e565b80156110b05780601f10611085576101008083540402835291602001916110b0565b820191906000526020600020905b81548152906001019060200180831161109357829003601f168201915b505050505081526020016007820180546110c99061260e565b80601f01602080910402602001604051908101604052809291908181526020018280546110f59061260e565b80156111425780601f1061111757610100808354040283529160200191611142565b820191906000526020600020905b81548152906001019060200180831161112557829003601f168201915b5050505050815260200160088201805461115b9061260e565b80601f01602080910402602001604051908101604052809291908181526020018280546111879061260e565b80156111d45780601f106111a9576101008083540402835291602001916111d4565b820191906000526020600020905b8154815290600101906020018083116111b757829003601f168201915b505050918352505060098201546001600160a01b0316602080830191909152600a83018054604080518285028101850182528281529401939283018282801561124657602002820191906000526020600020905b81546001600160a01b03168152600190910190602001808311611228575b5050509183525050600b82015460ff808216151560208401526101009091041615156040820152600c909101546060909101528261128560018461277f565b81518110611295576112956127fb565b602002602001018190525080806112ab90612766565b915050610f36565b50919050565b336000908152600260209081526040808320878452909152812054156112f15760405162461bcd60e51b8152600401610376906127b4565b6112fb8383610b53565b61133c5760405162461bcd60e51b8152602060048201526012602482015271496e76616c69642054786e20536f7572636560701b6044820152606401610376565b6000858152600360205260409020600b015460ff168061137357506000858152600360205260409020600b0154610100900460ff16155b6113bf5760405162461bcd60e51b815260206004820152601960248201527f4576656e74206973206e6f206c6f6e67657220616374697665000000000000006044820152606401610376565b600085815260036020819052604090912001544210806113f657506000858152600360205260409020600b0154610100900460ff16155b6114425760405162461bcd60e51b815260206004820152601f60248201527f4576656e74206973207061737420636c6f73696e672074696d657374616d70006044820152606401610376565b336000908152600160208181526040808420889055600282528084208985528083528185209384018a90556003808452919094209390915201906114899060050182612811565b50600085815260036020908152604080832033845260028352818420898552909252909120600401906114bf9060060182612811565b50600085815260036020908152604080832033845260028352818420898552909252909120600501906114f59060070182612811565b5050506000838152600360209081526040808320600901543384526002808452828520978552969092529091206006810180546001600160a01b0319166001600160a01b03909316929092179091559092015550600190565b6000546001600160a01b031633146115a85760405162461bcd60e51b815260206004820181905260248201527f4f6e6c79206465706c6f7965722063616e2072656d6f7665206d656e746f72736044820152606401610376565b60005b81518110156116af57600460008383815181106115ca576115ca6127fb565b6020908102919091018101516001600160a01b031682528101919091526040016000205460ff161561169d5760006004600084848151811061160e5761160e6127fb565b60200260200101516001600160a01b03166001600160a01b0316815260200190815260200160002060006101000a81548160ff02191690831515021790555081818151811061165f5761165f6127fb565b60200260200101516001600160a01b03167f8a89d1bce5d2a5b9324b1e700a7bb2d8ed55b236f9ba2c17a6917a0597fc404160405160405180910390a25b806116a781612766565b9150506115ab565b5050565b6001600160a01b038116600090815260016020819052604082200154606091829167ffffffffffffffff8111156116ec576116ec611cfc565b60405190808252806020026020018201604052801561171f57816020015b606081526020019060019003908161170a5790505b506001600160a01b0385166000908152600160208190526040822001549192509067ffffffffffffffff81111561175857611758611cfc565b6040519080825280602002602001820160405280156117d557816020015b6117c26040518060e0016040528060008019168152602001600081526020016000815260200160608152602001606081526020016060815260200160006001600160a01b031681525090565b8152602001906001900390816117765790505b50905060005b6001600160a01b03861660009081526001602081905260409091200154811015611b79576001600160a01b038616600090815260026020908152604080832060019283905290832090910180549192918490811061183b5761183b6127fb565b906000526020600020015481526020019081526020016000206040518060e001604052908160008201548152602001600182015481526020016002820154815260200160038201805461188d9061260e565b80601f01602080910402602001604051908101604052809291908181526020018280546118b99061260e565b80156119065780601f106118db57610100808354040283529160200191611906565b820191906000526020600020905b8154815290600101906020018083116118e957829003601f168201915b5050505050815260200160048201805461191f9061260e565b80601f016020809104026020016040519081016040528092919081815260200182805461194b9061260e565b80156119985780601f1061196d57610100808354040283529160200191611998565b820191906000526020600020905b81548152906001019060200180831161197b57829003601f168201915b505050505081526020016005820180546119b19061260e565b80601f01602080910402602001604051908101604052809291908181526020018280546119dd9061260e565b8015611a2a5780601f106119ff57610100808354040283529160200191611a2a565b820191906000526020600020905b815481529060010190602001808311611a0d57829003601f168201915b5050509183525050600691909101546001600160a01b03166020909101528251839083908110611a5c57611a5c6127fb565b60200260200101819052506003600060016000896001600160a01b03166001600160a01b031681526020019081526020016000206001018381548110611aa457611aa46127fb565b906000526020600020015481526020019081526020016000206008018054611acb9061260e565b80601f0160208091040260200160405190810160405280929190818152602001828054611af79061260e565b8015611b445780601f10611b1957610100808354040283529160200191611b44565b820191906000526020600020905b815481529060010190602001808311611b2757829003601f168201915b5050505050838281518110611b5b57611b5b6127fb565b60200260200101819052508080611b7190612766565b9150506117db565b5094909350915050565b6040517f19457468657265756d205369676e6564204d6573736167653a0a3332000000006020820152603c8101829052600090605c01604051602081830303815290604052805190602001209050919050565b3360008181526004602052604090205460ff1680611c0157506000546001600160a01b038281169116145b611c1d5760405162461bcd60e51b8152600401610376906125c0565b60005b8251811015611ce157600160046000858481518110611c4157611c416127fb565b60200260200101516001600160a01b03166001600160a01b0316815260200190815260200160002060006101000a81548160ff021916908315150217905550828181518110611c9257611c926127fb565b60200260200101516001600160a01b03167f4df3f3208bfbe9457b85364190a65e66a3e7a7cded1cf16b59627bc99bad5db960405160405180910390a280611cd981612766565b915050611c20565b505050565b803560ff81168114611cf757600080fd5b919050565b634e487b7160e01b600052604160045260246000fd5b604051601f8201601f1916810167ffffffffffffffff81118282101715611d3b57611d3b611cfc565b604052919050565b600082601f830112611d5457600080fd5b813567ffffffffffffffff811115611d6e57611d6e611cfc565b611d81601f8201601f1916602001611d12565b818152846020838601011115611d9657600080fd5b816020850160208301376000918101602001919091529392505050565b600080600080600080600080610100898b031215611dd057600080fd5b8835975060208901359650611de760408a01611ce6565b9550606089013567ffffffffffffffff80821115611e0457600080fd5b611e108c838d01611d43565b965060808b0135915080821115611e2657600080fd5b611e328c838d01611d43565b955060a08b0135915080821115611e4857600080fd5b611e548c838d01611d43565b945060c08b0135915080821115611e6a57600080fd5b50611e778b828c01611d43565b92505060e089013590509295985092959890939650565b80356001600160a01b0381168114611cf757600080fd5b600080600060608486031215611eba57600080fd5b83359250611eca60208501611e8e565b9150604084013590509250925092565b600060208284031215611eec57600080fd5b5035919050565b6000815180845260005b81811015611f1957602081850181015186830182015201611efd565b506000602082860101526020601f19601f83011685010191505092915050565b60ff8e1681528c60208201528b60408201528a60608201528960808201526101a060a08201526000611f6f6101a083018b611ef3565b82810360c0840152611f81818b611ef3565b905082810360e0840152611f95818a611ef3565b9050828103610100840152611faa8189611ef3565b915050611fc36101208301876001600160a01b03169052565b931515610140820152911515610160830152610180909101529a9950505050505050505050565b60008060408385031215611ffd57600080fd5b61200683611e8e565b946020939093013593505050565b87815286602082015285604082015260e06060820152600061203960e0830187611ef3565b828103608084015261204b8187611ef3565b905082810360a084015261205f8186611ef3565b91505060018060a01b03831660c083015298975050505050505050565b60006020828403121561208e57600080fd5b61209782611e8e565b9392505050565b600080604083850312156120b157600080fd5b82359150602083013567ffffffffffffffff8111156120cf57600080fd5b6120db85828601611d43565b9150509250929050565b6000606082018583526020606081850152818651808452608086019150828801935060005b818110156121265784518352938301939183019160010161210a565b50508481036040860152855180825290820192508186019060005b8181101561215d57825185529383019391830191600101612141565b509298975050505050505050565b6000806040838503121561217e57600080fd5b823591506020830135801515811461219557600080fd5b809150509250929050565b6000602082840312156121b257600080fd5b813567ffffffffffffffff8111156121c957600080fd5b6121d584828501611d43565b949350505050565b600081518084526020808501945080840160005b838110156122165781516001600160a01b0316875295820195908201906001016121f1565b509495945050505050565b60006020808301818452808551808352604092508286019150828160051b87010184880160005b8381101561236f57888303603f190185528151805160ff1684526101c081890151858a01528782015188860152606080830151908601526080808301519086015260a0808301518187018390526122a183880182611ef3565b9250505060c080830151868303828801526122bc8382611ef3565b9250505060e080830151868303828801526122d78382611ef3565b9250505061010080830151868303828801526122f38382611ef3565b9250505061012080830151612312828801826001600160a01b03169052565b5050610140808301518683038288015261232c83826121dd565b92505050610160808301516123448288018215159052565b5050610180828101511515908601526101a09182015191909401529386019390860190600101612248565b509098975050505050505050565b6000806000806080858703121561239357600080fd5b843593506020850135925060408501359150606085013567ffffffffffffffff8111156123bf57600080fd5b6123cb87828801611d43565b91505092959194509250565b600060208083850312156123ea57600080fd5b823567ffffffffffffffff8082111561240257600080fd5b818501915085601f83011261241657600080fd5b81358181111561242857612428611cfc565b8060051b9150612439848301611d12565b818152918301840191848101908884111561245357600080fd5b938501935b838510156124785761246985611e8e565b82529385019390850190612458565b98975050505050505050565b600081518084526020808501808196508360051b8101915082860160005b858110156124cc5782840389526124ba848351611ef3565b988501989350908401906001016124a2565b5091979650505050505050565b60006040808301818452808651808352606092508286019150828160051b8701016020808a0160005b848110156125a057605f198a8503018652815160e0815186528482015185870152898201518a87015288820151818a88015261254082880182611ef3565b9150506080808301518783038289015261255a8382611ef3565b9250505060a080830151878303828901526125758382611ef3565b60c0948501516001600160a01b03169890940197909752505095830195935090820190600101612502565b5050878203908801526125b38189612484565b9998505050505050505050565b6020808252602e908201527f4f6e6c792073656c6563746564206d656e746f7220616464726573736573206360408201526d30b71031b932b0ba329038bab4bd60911b606082015260800190565b600181811c9082168061262257607f821691505b6020821081036112b357634e487b7160e01b600052602260045260246000fd5b601f821115611ce157600081815260208120601f850160051c810160208610156126695750805b601f850160051c820191505b8181101561268857828155600101612675565b505050505050565b815167ffffffffffffffff8111156126aa576126aa611cfc565b6126be816126b8845461260e565b84612642565b602080601f8311600181146126f357600084156126db5750858301515b600019600386901b1c1916600185901b178555612688565b600085815260208120601f198616915b8281101561272257888601518255948401946001909101908401612703565b50858210156127405787850151600019600388901b60f8161c191681555b5050505050600190811b01905550565b634e487b7160e01b600052601160045260246000fd5b60006001820161277857612778612750565b5060010190565b81810381811115610bd457610bd4612750565b6040815260006127a56040830185611ef3565b90508260208301529392505050565b60208082526027908201527f53747564656e7420616c726561647920617474657374656420666f72207468696040820152661cc8195d995b9d60ca1b606082015260800190565b634e487b7160e01b600052603260045260246000fd5b81810361281c575050565b612826825461260e565b67ffffffffffffffff81111561283e5761283e611cfc565b61284c816126b8845461260e565b6000601f82116001811461288057600083156128685750848201545b600019600385901b1c1916600184901b1784556128e5565b600085815260209020601f19841690600086815260209020845b838110156128ba578286015482556001958601959091019060200161289a565b50858310156128d85781850154600019600388901b60f8161c191681555b50505060018360011b0184555b505050505056fea2646970667358221220c209833647768315ffa1afbe0d29c78a8c9252448be41f9baa9c1d6f749a692c64736f6c63430008140033",
  "devdoc": {
    "kind": "dev",
    "methods": {},
    "version": 1
  },
  "userdoc": {
    "kind": "user",
    "methods": {},
    "version": 1
  },
  "storageLayout": {
    "storage": [
      {
        "astId": 723,
        "contract": "contracts/EASOnboarding.sol:EASOnboarding",
        "label": "deployer",
        "offset": 0,
        "slot": "0",
        "type": "t_address"
      },
      {
        "astId": 728,
        "contract": "contracts/EASOnboarding.sol:EASOnboarding",
        "label": "attestationProfile",
        "offset": 0,
        "slot": "1",
        "type": "t_mapping(t_address,t_struct(AttestationProfile)701_storage)"
      },
      {
        "astId": 735,
        "contract": "contracts/EASOnboarding.sol:EASOnboarding",
        "label": "studentEventMap",
        "offset": 0,
        "slot": "2",
        "type": "t_mapping(t_address,t_mapping(t_uint256,t_struct(metaEvent)716_storage))"
      },
      {
        "astId": 740,
        "contract": "contracts/EASOnboarding.sol:EASOnboarding",
        "label": "events",
        "offset": 0,
        "slot": "3",
        "type": "t_mapping(t_uint256,t_struct(Event)692_storage)"
      },
      {
        "astId": 744,
        "contract": "contracts/EASOnboarding.sol:EASOnboarding",
        "label": "isMentor",
        "offset": 0,
        "slot": "4",
        "type": "t_mapping(t_address,t_bool)"
      },
      {
        "astId": 747,
        "contract": "contracts/EASOnboarding.sol:EASOnboarding",
        "label": "eventIdCounter",
        "offset": 0,
        "slot": "5",
        "type": "t_uint256"
      }
    ],
    "types": {
      "t_address": {
        "encoding": "inplace",
        "label": "address",
        "numberOfBytes": "20"
      },
      "t_array(t_address)dyn_storage": {
        "base": "t_address",
        "encoding": "dynamic_array",
        "label": "address[]",
        "numberOfBytes": "32"
      },
      "t_array(t_bytes32)dyn_storage": {
        "base": "t_bytes32",
        "encoding": "dynamic_array",
        "label": "bytes32[]",
        "numberOfBytes": "32"
      },
      "t_array(t_uint256)dyn_storage": {
        "base": "t_uint256",
        "encoding": "dynamic_array",
        "label": "uint256[]",
        "numberOfBytes": "32"
      },
      "t_bool": {
        "encoding": "inplace",
        "label": "bool",
        "numberOfBytes": "1"
      },
      "t_bytes32": {
        "encoding": "inplace",
        "label": "bytes32",
        "numberOfBytes": "32"
      },
      "t_mapping(t_address,t_bool)": {
        "encoding": "mapping",
        "key": "t_address",
        "label": "mapping(address => bool)",
        "numberOfBytes": "32",
        "value": "t_bool"
      },
      "t_mapping(t_address,t_mapping(t_uint256,t_struct(metaEvent)716_storage))": {
        "encoding": "mapping",
        "key": "t_address",
        "label": "mapping(address => mapping(uint256 => struct Structs.metaEvent))",
        "numberOfBytes": "32",
        "value": "t_mapping(t_uint256,t_struct(metaEvent)716_storage)"
      },
      "t_mapping(t_address,t_struct(AttestationProfile)701_storage)": {
        "encoding": "mapping",
        "key": "t_address",
        "label": "mapping(address => struct Structs.AttestationProfile)",
        "numberOfBytes": "32",
        "value": "t_struct(AttestationProfile)701_storage"
      },
      "t_mapping(t_uint256,t_struct(Event)692_storage)": {
        "encoding": "mapping",
        "key": "t_uint256",
        "label": "mapping(uint256 => struct Structs.Event)",
        "numberOfBytes": "32",
        "value": "t_struct(Event)692_storage"
      },
      "t_mapping(t_uint256,t_struct(metaEvent)716_storage)": {
        "encoding": "mapping",
        "key": "t_uint256",
        "label": "mapping(uint256 => struct Structs.metaEvent)",
        "numberOfBytes": "32",
        "value": "t_struct(metaEvent)716_storage"
      },
      "t_string_storage": {
        "encoding": "bytes",
        "label": "string",
        "numberOfBytes": "32"
      },
      "t_struct(AttestationProfile)701_storage": {
        "encoding": "inplace",
        "label": "struct Structs.AttestationProfile",
        "members": [
          {
            "astId": 694,
            "contract": "contracts/EASOnboarding.sol:EASOnboarding",
            "label": "studentLevel",
            "offset": 0,
            "slot": "0",
            "type": "t_uint256"
          },
          {
            "astId": 697,
            "contract": "contracts/EASOnboarding.sol:EASOnboarding",
            "label": "eventsCompleted",
            "offset": 0,
            "slot": "1",
            "type": "t_array(t_uint256)dyn_storage"
          },
          {
            "astId": 700,
            "contract": "contracts/EASOnboarding.sol:EASOnboarding",
            "label": "attestations",
            "offset": 0,
            "slot": "2",
            "type": "t_array(t_bytes32)dyn_storage"
          }
        ],
        "numberOfBytes": "96"
      },
      "t_struct(Event)692_storage": {
        "encoding": "inplace",
        "label": "struct Structs.Event",
        "members": [
          {
            "astId": 664,
            "contract": "contracts/EASOnboarding.sol:EASOnboarding",
            "label": "typeOf",
            "offset": 0,
            "slot": "0",
            "type": "t_uint8"
          },
          {
            "astId": 666,
            "contract": "contracts/EASOnboarding.sol:EASOnboarding",
            "label": "eventId",
            "offset": 0,
            "slot": "1",
            "type": "t_uint256"
          },
          {
            "astId": 668,
            "contract": "contracts/EASOnboarding.sol:EASOnboarding",
            "label": "level",
            "offset": 0,
            "slot": "2",
            "type": "t_uint256"
          },
          {
            "astId": 670,
            "contract": "contracts/EASOnboarding.sol:EASOnboarding",
            "label": "closingTimestamp",
            "offset": 0,
            "slot": "3",
            "type": "t_uint256"
          },
          {
            "astId": 672,
            "contract": "contracts/EASOnboarding.sol:EASOnboarding",
            "label": "attendeeCount",
            "offset": 0,
            "slot": "4",
            "type": "t_uint256"
          },
          {
            "astId": 674,
            "contract": "contracts/EASOnboarding.sol:EASOnboarding",
            "label": "eventName",
            "offset": 0,
            "slot": "5",
            "type": "t_string_storage"
          },
          {
            "astId": 676,
            "contract": "contracts/EASOnboarding.sol:EASOnboarding",
            "label": "eventDescription",
            "offset": 0,
            "slot": "6",
            "type": "t_string_storage"
          },
          {
            "astId": 678,
            "contract": "contracts/EASOnboarding.sol:EASOnboarding",
            "label": "mentorName",
            "offset": 0,
            "slot": "7",
            "type": "t_string_storage"
          },
          {
            "astId": 680,
            "contract": "contracts/EASOnboarding.sol:EASOnboarding",
            "label": "badgeUri",
            "offset": 0,
            "slot": "8",
            "type": "t_string_storage"
          },
          {
            "astId": 682,
            "contract": "contracts/EASOnboarding.sol:EASOnboarding",
            "label": "mentorAddress",
            "offset": 0,
            "slot": "9",
            "type": "t_address"
          },
          {
            "astId": 685,
            "contract": "contracts/EASOnboarding.sol:EASOnboarding",
            "label": "attendees",
            "offset": 0,
            "slot": "10",
            "type": "t_array(t_address)dyn_storage"
          },
          {
            "astId": 687,
            "contract": "contracts/EASOnboarding.sol:EASOnboarding",
            "label": "isActive",
            "offset": 0,
            "slot": "11",
            "type": "t_bool"
          },
          {
            "astId": 689,
            "contract": "contracts/EASOnboarding.sol:EASOnboarding",
            "label": "overrideClosingTimestamp",
            "offset": 1,
            "slot": "11",
            "type": "t_bool"
          },
          {
            "astId": 691,
            "contract": "contracts/EASOnboarding.sol:EASOnboarding",
            "label": "schemaUID",
            "offset": 0,
            "slot": "12",
            "type": "t_bytes32"
          }
        ],
        "numberOfBytes": "416"
      },
      "t_struct(metaEvent)716_storage": {
        "encoding": "inplace",
        "label": "struct Structs.metaEvent",
        "members": [
          {
            "astId": 703,
            "contract": "contracts/EASOnboarding.sol:EASOnboarding",
            "label": "attestation",
            "offset": 0,
            "slot": "0",
            "type": "t_bytes32"
          },
          {
            "astId": 705,
            "contract": "contracts/EASOnboarding.sol:EASOnboarding",
            "label": "eventId",
            "offset": 0,
            "slot": "1",
            "type": "t_uint256"
          },
          {
            "astId": 707,
            "contract": "contracts/EASOnboarding.sol:EASOnboarding",
            "label": "level",
            "offset": 0,
            "slot": "2",
            "type": "t_uint256"
          },
          {
            "astId": 709,
            "contract": "contracts/EASOnboarding.sol:EASOnboarding",
            "label": "eventName",
            "offset": 0,
            "slot": "3",
            "type": "t_string_storage"
          },
          {
            "astId": 711,
            "contract": "contracts/EASOnboarding.sol:EASOnboarding",
            "label": "eventDescription",
            "offset": 0,
            "slot": "4",
            "type": "t_string_storage"
          },
          {
            "astId": 713,
            "contract": "contracts/EASOnboarding.sol:EASOnboarding",
            "label": "mentorName",
            "offset": 0,
            "slot": "5",
            "type": "t_string_storage"
          },
          {
            "astId": 715,
            "contract": "contracts/EASOnboarding.sol:EASOnboarding",
            "label": "mentorAddress",
            "offset": 0,
            "slot": "6",
            "type": "t_address"
          }
        ],
        "numberOfBytes": "224"
      },
      "t_uint256": {
        "encoding": "inplace",
        "label": "uint256",
        "numberOfBytes": "32"
      },
      "t_uint8": {
        "encoding": "inplace",
        "label": "uint8",
        "numberOfBytes": "1"
      }
    }
  }
}